Component: ARM Compiler 5.06 update 1 (build 61) Tool: armlink [4d35a8]

==============================================================================

Section Cross References

    main.o(.text) refers to mpu6050.o(.text) for MPU_Get_Accelerometer
    main.o(.text) refers to misc.o(.text) for NVIC_PriorityGroupConfig
    main.o(.text) refers to delay.o(.text) for delay_init
    main.o(.text) refers to oled.o(.text) for OLED_Init
    main.o(.text) refers to gui.o(.text) for GUI_ShowString
    main.o(.text) refers to usart.o(.text) for uart2_init
    main.o(.text) refers to inv_mpu.o(.text) for mpu_dmp_init
    main.o(.text) refers to motor.o(.text) for MiniBalance_PWM_Init
    main.o(.text) refers to encoder.o(.text) for Encoder_Init_TIM4
    main.o(.text) refers to pid.o(.text) for PID_Init
    main.o(.text) refers to cfcmple.o(.text) for __aeabi_cfcmple
    main.o(.text) refers to ffixui.o(.text) for __aeabi_f2uiz
    main.o(.text) refers to fmul.o(.text) for __aeabi_fmul
    main.o(.text) refers to f2d.o(.text) for __aeabi_f2d
    main.o(.text) refers to dadd.o(.text) for __aeabi_dadd
    main.o(.text) refers to d2f.o(.text) for __aeabi_d2f
    main.o(.text) refers to cfrcmple.o(.text) for __aeabi_cfrcmple
    main.o(.text) refers to ffixi.o(.text) for __aeabi_f2iz
==============================================================================

Removing Unused input sections from the image.

    Removing dma.o(.text), (128 bytes).
    Removing dma.o(.bss), (44 bytes).
    Removing dma.o(.data), (2 bytes).
    Removing sys.o(.emb_text), (6 bytes).
    Removing sys.o(.text), (12 bytes).
    Removing core_cm3.o(.emb_text), (32 bytes).
    Removing startup_stm32f10x_hd.o(HEAP), (512 bytes).
    Removing stm32f10x_dma.o(.text), (596 bytes).
    Removing dfixul.o(.text), (48 bytes).
    Removing cdrcmple.o(.text), (48 bytes).
    Removing cdcmple.o(.text), (48 bytes).

11 unused section(s) (total 1476 bytes) removed from the image.

==============================================================================

Image Symbol Table

    Local Symbols

    Symbol Name                              Value     Ov Type        Size  Object(Section)

    ../clib/microlib/division.c              0x00000000   Number         0  uidiv.o ABSOLUTE
    ../clib/microlib/division.c              0x00000000   Number         0  uldiv.o ABSOLUTE
    ../clib/microlib/division.c              0x00000000   Number         0  ldiv.o ABSOLUTE
    ../clib/microlib/errno.c                 0x00000000   Number         0  errno.o ABSOLUTE
    ../clib/microlib/init/entry.s            0x00000000   Number         0  entry11b.o ABSOLUTE
    ../clib/microlib/init/entry.s            0x00000000   Number         0  entry10b.o ABSOLUTE
    ../clib/microlib/init/entry.s            0x00000000   Number         0  entry10a.o ABSOLUTE
    ../clib/microlib/init/entry.s            0x00000000   Number         0  entry.o ABSOLUTE
    ../clib/microlib/init/entry.s            0x00000000   Number         0  entry5.o ABSOLUTE
    ../clib/microlib/init/entry.s            0x00000000   Number         0  entry9b.o ABSOLUTE
    ../clib/microlib/init/entry.s            0x00000000   Number         0  entry11a.o ABSOLUTE
    ../clib/microlib/init/entry.s            0x00000000   Number         0  entry2.o ABSOLUTE
    ../clib/microlib/init/entry.s            0x00000000   Number         0  entry7a.o ABSOLUTE
    ../clib/microlib/init/entry.s            0x00000000   Number         0  entry7b.o ABSOLUTE
    ../clib/microlib/init/entry.s            0x00000000   Number         0  entry8a.o ABSOLUTE
    ../clib/microlib/init/entry.s            0x00000000   Number         0  entry9a.o ABSOLUTE
    ../clib/microlib/init/entry.s            0x00000000   Number         0  entry8b.o ABSOLUTE
    ../clib/microlib/longlong.c              0x00000000   Number         0  llshl.o ABSOLUTE
    ../clib/microlib/longlong.c              0x00000000   Number         0  llsshr.o ABSOLUTE
    ../clib/microlib/longlong.c              0x00000000   Number         0  llushr.o ABSOLUTE
    ../clib/microlib/printf/printf.c         0x00000000   Number         0  printf8.o ABSOLUTE
    ../clib/microlib/printf/printf.c         0x00000000   Number         0  printf4.o ABSOLUTE
    ../clib/microlib/printf/printf.c         0x00000000   Number         0  printfa.o ABSOLUTE
    ../clib/microlib/printf/printf.c         0x00000000   Number         0  printf7.o ABSOLUTE
    ../clib/microlib/printf/printf.c         0x00000000   Number         0  printfb.o ABSOLUTE
    ../clib/microlib/printf/printf.c         0x00000000   Number         0  printf0.o ABSOLUTE
    ../clib/microlib/printf/printf.c         0x00000000   Number         0  printf1.o ABSOLUTE
    ../clib/microlib/printf/printf.c         0x00000000   Number         0  printf2.o ABSOLUTE
    ../clib/microlib/printf/printf.c         0x00000000   Number         0  printf3.o ABSOLUTE
    ../clib/microlib/printf/printf.c         0x00000000   Number         0  printf5.o ABSOLUTE
    ../clib/microlib/printf/printf.c         0x00000000   Number         0  printf6.o ABSOLUTE
    ../clib/microlib/printf/stubs.s          0x00000000   Number         0  stubs.o ABSOLUTE
    ../clib/microlib/string/memcmp.c         0x00000000   Number         0  memcmp.o ABSOLUTE
    ../clib/microlib/string/memset.c         0x00000000   Number         0  memseta.o ABSOLUTE
    ../clib/microlib/stubs.s                 0x00000000   Number         0  iusefp.o ABSOLUTE
    ../clib/microlib/stubs.s                 0x00000000   Number         0  useno.o ABSOLUTE
    ../fplib/microlib/d2f.c                  0x00000000   Number         0  d2f.o ABSOLUTE
    ../fplib/microlib/f2d.c                  0x00000000   Number         0  f2d.o ABSOLUTE
    ../fplib/microlib/fpadd.c                0x00000000   Number         0  fadd.o ABSOLUTE
    ../fplib/microlib/fpadd.c                0x00000000   Number         0  dadd.o ABSOLUTE
    ../fplib/microlib/fpdiv.c                0x00000000   Number         0  fdiv.o ABSOLUTE
    ../fplib/microlib/fpdiv.c                0x00000000   Number         0  ddiv.o ABSOLUTE
    ../fplib/microlib/fpepilogue.c           0x00000000   Number         0  depilogue.o ABSOLUTE
    ../fplib/microlib/fpepilogue.c           0x00000000   Number         0  fepilogue.o ABSOLUTE
    ../fplib/microlib/fpfix.c                0x00000000   Number         0  dfixul.o ABSOLUTE
    ../fplib/microlib/fpfix.c                0x00000000   Number         0  ffixui.o ABSOLUTE
    ../fplib/microlib/fpfix.c                0x00000000   Number         0  ffixi.o ABSOLUTE
    ../fplib/microlib/fpflt.c                0x00000000   Number         0  fflti.o ABSOLUTE
    ../fplib/microlib/fpflt.c                0x00000000   Number         0  dflti.o ABSOLUTE
    ../fplib/microlib/fpflt.c                0x00000000   Number         0  ffltui.o ABSOLUTE
    ../fplib/microlib/fpmul.c                0x00000000   Number         0  fmul.o ABSOLUTE
    ../fplib/microlib/fpmul.c                0x00000000   Number         0  dmul.o ABSOLUTE
    ../fplib/microlib/fpscalb.c              0x00000000   Number         0  dscalb.o ABSOLUTE
    ../fplib/microlib/fpsqrt.c               0x00000000   Number         0  dsqrt.o ABSOLUTE
    ../mathlib/asin.c                        0x00000000   Number         0  asin_x.o ABSOLUTE
    ../mathlib/asin.c                        0x00000000   Number         0  asin.o ABSOLUTE
    ../mathlib/atan.c                        0x00000000   Number         0  atan_x.o ABSOLUTE
    ../mathlib/atan.c                        0x00000000   Number         0  atan.o ABSOLUTE
    ../mathlib/atan2.c                       0x00000000   Number         0  atan2_x.o ABSOLUTE
    ../mathlib/atan2.c                       0x00000000   Number         0  atan2.o ABSOLUTE
    ../mathlib/dunder.c                      0x00000000   Number         0  dunder.o ABSOLUTE
    ../mathlib/fpclassify.c                  0x00000000   Number         0  fpclassify.o ABSOLUTE
    ../mathlib/poly.c                        0x00000000   Number         0  poly.o ABSOLUTE
    ../mathlib/qnan.c                        0x00000000   Number         0  qnan.o ABSOLUTE
    ../mathlib/sqrt.c                        0x00000000   Number         0  sqrt_x.o ABSOLUTE
    ../mathlib/sqrt.c                        0x00000000   Number         0  sqrt.o ABSOLUTE
    ..\CORE\core_cm3.c                       0x00000000   Number         0  core_cm3.o ABSOLUTE
    ..\CORE\startup_stm32f10x_hd.s           0x00000000   Number         0  startup_stm32f10x_hd.o ABSOLUTE
    ..\HARDWARE\DMA\dma.c                    0x00000000   Number         0  dma.o ABSOLUTE
    ..\HARDWARE\ENMOTOR\encoder.c            0x00000000   Number         0  encoder.o ABSOLUTE
    ..\HARDWARE\GUI\gui.c                    0x00000000   Number         0  gui.o ABSOLUTE
    ..\HARDWARE\MOTOR\motor.c                0x00000000   Number         0  motor.o ABSOLUTE
    ..\HARDWARE\MPU6050\eMPL\inv_mpu.c       0x00000000   Number         0  inv_mpu.o ABSOLUTE
    ..\HARDWARE\MPU6050\eMPL\inv_mpu_dmp_motion_driver.c 0x00000000   Number         0  inv_mpu_dmp_motion_driver.o ABSOLUTE
    ..\HARDWARE\MPU6050\mpu6050.c            0x00000000   Number         0  mpu6050.o ABSOLUTE
    ..\HARDWARE\MPU6050\mpuiic.c             0x00000000   Number         0  mpuiic.o ABSOLUTE
    ..\HARDWARE\OLED\oled.c                  0x00000000   Number         0  oled.o ABSOLUTE
    ..\HARDWARE\PID\pid.c                    0x00000000   Number         0  pid.o ABSOLUTE
    ..\HARDWARE\SPI\spi.c                    0x00000000   Number         0  spi.o ABSOLUTE
    ..\STM32F10x_FWLib\src\misc.c            0x00000000   Number         0  misc.o ABSOLUTE
    ..\STM32F10x_FWLib\src\stm32f10x_dma.c   0x00000000   Number         0  stm32f10x_dma.o ABSOLUTE
    ..\STM32F10x_FWLib\src\stm32f10x_gpio.c  0x00000000   Number         0  stm32f10x_gpio.o ABSOLUTE
    ..\STM32F10x_FWLib\src\stm32f10x_rcc.c   0x00000000   Number         0  stm32f10x_rcc.o ABSOLUTE
    ..\STM32F10x_FWLib\src\stm32f10x_tim.c   0x00000000   Number         0  stm32f10x_tim.o ABSOLUTE
    ..\STM32F10x_FWLib\src\stm32f10x_usart.c 0x00000000   Number         0  stm32f10x_usart.o ABSOLUTE
    ..\SYSTEM\delay\delay.c                  0x00000000   Number         0  delay.o ABSOLUTE
    ..\SYSTEM\sys\sys.c                      0x00000000   Number         0  sys.o ABSOLUTE
    ..\SYSTEM\usart\usart.c                  0x00000000   Number         0  usart.o ABSOLUTE
    ..\\CORE\\core_cm3.c                     0x00000000   Number         0  core_cm3.o ABSOLUTE
    ..\\SYSTEM\\sys\\sys.c                   0x00000000   Number         0  sys.o ABSOLUTE
    cdcmple.s                                0x00000000   Number         0  cdcmple.o ABSOLUTE
    cdrcmple.s                               0x00000000   Number         0  cdrcmple.o ABSOLUTE
    cfcmple.s                                0x00000000   Number         0  cfcmple.o ABSOLUTE
    cfrcmple.s                               0x00000000   Number         0  cfrcmple.o ABSOLUTE
    dc.s                                     0x00000000   Number         0  dc.o ABSOLUTE
    handlers.s                               0x00000000   Number         0  handlers.o ABSOLUTE
    init.s                                   0x00000000   Number         0  init.o ABSOLUTE
    main.c                                   0x00000000   Number         0  main.o ABSOLUTE
    stm32f10x_it.c                           0x00000000   Number         0  stm32f10x_it.o ABSOLUTE
    system_stm32f10x.c                       0x00000000   Number         0  system_stm32f10x.o ABSOLUTE
    RESET                                    0x08000000   Section      304  startup_stm32f10x_hd.o(RESET)
    .ARM.Collect$$$$00000000                 0x08000130   Section        0  entry.o(.ARM.Collect$$$$00000000)
    .ARM.Collect$$$$00000001                 0x08000130   Section        4  entry2.o(.ARM.Collect$$$$00000001)
    .ARM.Collect$$$$00000004                 0x08000134   Section        4  entry5.o(.ARM.Collect$$$$00000004)
    .ARM.Collect$$$$00000008                 0x08000138   Section        0  entry7b.o(.ARM.Collect$$$$00000008)
    .ARM.Collect$$$$0000000A                 0x08000138   Section        0  entry8b.o(.ARM.Collect$$$$0000000A)
    .ARM.Collect$$$$0000000B                 0x08000138   Section        8  entry9a.o(.ARM.Collect$$$$0000000B)
    .ARM.Collect$$$$0000000D                 0x08000140   Section        0  entry10a.o(.ARM.Collect$$$$0000000D)
    .ARM.Collect$$$$0000000F                 0x08000140   Section        0  entry11a.o(.ARM.Collect$$$$0000000F)
    .ARM.Collect$$$$00002712                 0x08000140   Section        4  entry2.o(.ARM.Collect$$$$00002712)
    __lit__00000000                          0x08000140   Data           4  entry2.o(.ARM.Collect$$$$00002712)
    .text                                    0x08000144   Section        0  main.o(.text)
    .text                                    0x080004f4   Section        0  stm32f10x_it.o(.text)
    .text                                    0x08000510   Section        0  system_stm32f10x.o(.text)
    SetSysClockTo72                          0x08000511   Thumb Code   214  system_stm32f10x.o(.text)
    SetSysClock                              0x080005e7   Thumb Code     8  system_stm32f10x.o(.text)
    .text                                    0x080006f0   Section        0  mpuiic.o(.text)
    .text                                    0x08000964   Section        0  mpu6050.o(.text)
    .text                                    0x08000cd4   Section        0  inv_mpu_dmp_motion_driver.o(.text)
    decode_gesture                           0x08001789   Thumb Code    94  inv_mpu_dmp_motion_driver.o(.text)
    .text                                    0x08001a44   Section        0  inv_mpu.o(.text)
    set_int_enable                           0x08001a45   Thumb Code   138  inv_mpu.o(.text)
    get_accel_prod_shift                     0x08002cb5   Thumb Code   168  inv_mpu.o(.text)
    accel_self_test                          0x08002d5d   Thumb Code   164  inv_mpu.o(.text)
    gyro_self_test                           0x08002e01   Thumb Code   280  inv_mpu.o(.text)
    get_st_biases                            0x08002f19   Thumb Code  1136  inv_mpu.o(.text)
    .text                                    0x08003cd0   Section        0  oled.o(.text)
    .text                                    0x08003fbc   Section        0  motor.o(.text)
    .text                                    0x08004298   Section        0  encoder.o(.text)
    .text                                    0x080044d8   Section        0  pid.o(.text)
    .text                                    0x080046e8   Section        0  spi.o(.text)
    .text                                    0x0800472c   Section        0  gui.o(.text)
    mypow                                    0x0800493b   Thumb Code    22  gui.o(.text)
    .text                                    0x08004e04   Section        0  delay.o(.text)
    .text                                    0x08004ed8   Section        0  usart.o(.text)
    .text                                    0x08005118   Section       36  startup_stm32f10x_hd.o(.text)
    .text                                    0x0800513c   Section        0  stm32f10x_gpio.o(.text)
    .text                                    0x08005498   Section        0  stm32f10x_rcc.o(.text)
    .text                                    0x0800583c   Section        0  stm32f10x_usart.o(.text)
    .text                                    0x08005c44   Section        0  misc.o(.text)
    .text                                    0x08005d20   Section        0  stm32f10x_tim.o(.text)
    TI4_Config                               0x080061c7   Thumb Code   130  stm32f10x_tim.o(.text)
    TI3_Config                               0x0800625b   Thumb Code   122  stm32f10x_tim.o(.text)
    TI2_Config                               0x080062ef   Thumb Code   130  stm32f10x_tim.o(.text)
    TI1_Config                               0x08006383   Thumb Code   108  stm32f10x_tim.o(.text)
    .text                                    0x08006b3a   Section        0  ldiv.o(.text)
    .text                                    0x08006b9c   Section        0  memseta.o(.text)
    .text                                    0x08006bc0   Section        0  memcmp.o(.text)
    .text                                    0x08006bda   Section        0  fadd.o(.text)
    .text                                    0x08006c8a   Section        0  fmul.o(.text)
    .text                                    0x08006cee   Section        0  fdiv.o(.text)
    .text                                    0x08006d6a   Section        0  dadd.o(.text)
    .text                                    0x08006eb8   Section        0  dmul.o(.text)
    .text                                    0x08006f9c   Section        0  ddiv.o(.text)
    .text                                    0x0800707a   Section        0  fflti.o(.text)
    .text                                    0x0800708c   Section        0  ffltui.o(.text)
    .text                                    0x08007096   Section        0  dflti.o(.text)
    .text                                    0x080070b8   Section        0  ffixi.o(.text)
    .text                                    0x080070ea   Section        0  ffixui.o(.text)
    .text                                    0x08007112   Section        0  f2d.o(.text)
    .text                                    0x08007138   Section        0  d2f.o(.text)
    .text                                    0x08007170   Section       20  cfcmple.o(.text)
    .text                                    0x08007184   Section       20  cfrcmple.o(.text)
    .text                                    0x08007198   Section        0  uldiv.o(.text)
    .text                                    0x080071fa   Section        0  llshl.o(.text)
    .text                                    0x08007218   Section        0  llsshr.o(.text)
    .text                                    0x0800723c   Section        0  iusefp.o(.text)
    .text                                    0x0800723c   Section        0  fepilogue.o(.text)
    .text                                    0x080072aa   Section        0  depilogue.o(.text)
    .text                                    0x08007364   Section        0  dscalb.o(.text)
    .text                                    0x08007394   Section       36  init.o(.text)
    .text                                    0x080073b8   Section        0  llushr.o(.text)
    .text                                    0x080073d8   Section        0  dsqrt.o(.text)
    i.__0printf$8                            0x0800747c   Section        0  printf8.o(i.__0printf$8)
    i.__ARM_fpclassify                       0x0800749c   Section        0  fpclassify.o(i.__ARM_fpclassify)
    i.__kernel_poly                          0x080074c4   Section        0  poly.o(i.__kernel_poly)
    i.__mathlib_dbl_infnan                   0x0800756e   Section        0  dunder.o(i.__mathlib_dbl_infnan)
    i.__mathlib_dbl_infnan2                  0x08007574   Section        0  dunder.o(i.__mathlib_dbl_infnan2)
    i.__mathlib_dbl_invalid                  0x08007578   Section        0  dunder.o(i.__mathlib_dbl_invalid)
    i.__mathlib_dbl_underflow                0x08007584   Section        0  dunder.o(i.__mathlib_dbl_underflow)
    i.__scatterload_copy                     0x08007594   Section       14  handlers.o(i.__scatterload_copy)
    i.__scatterload_null                     0x080075a2   Section        2  handlers.o(i.__scatterload_null)
    i.__scatterload_zeroinit                 0x080075a4   Section       14  handlers.o(i.__scatterload_zeroinit)
    i.__set_errno                            0x080075b4   Section        0  errno.o(i.__set_errno)
    i._printf_core                           0x080075c0   Section        0  printf8.o(i._printf_core)
    _printf_core                             0x080075c1   Thumb Code   996  printf8.o(i._printf_core)
    i._printf_post_padding                   0x080079d0   Section        0  printf8.o(i._printf_post_padding)
    _printf_post_padding                     0x080079d1   Thumb Code    36  printf8.o(i._printf_post_padding)
    i._printf_pre_padding                    0x080079f4   Section        0  printf8.o(i._printf_pre_padding)
    _printf_pre_padding                      0x080079f5   Thumb Code    46  printf8.o(i._printf_pre_padding)
    i.asin                                   0x08007a24   Section        0  asin.o(i.asin)
    i.atan                                   0x08007c94   Section        0  atan.o(i.atan)
    i.atan2                                  0x08007eb4   Section        0  atan2.o(i.atan2)
    i.sqrt                                   0x08008034   Section        0  sqrt.o(i.sqrt)
    .constdata                               0x08008080   Section     3062  inv_mpu_dmp_motion_driver.o(.constdata)
    dmp_memory                               0x08008080   Data        3062  inv_mpu_dmp_motion_driver.o(.constdata)
    .constdata                               0x08008c78   Section       80  inv_mpu.o(.constdata)
    .constdata                               0x08008cc8   Section     1758  gui.o(.constdata)
    .constdata                               0x080093a8   Section       80  asin.o(.constdata)
    pS                                       0x080093a8   Data          48  asin.o(.constdata)
    qS                                       0x080093d8   Data          32  asin.o(.constdata)
    .constdata                               0x080093f8   Section      152  atan.o(.constdata)
    atanhi                                   0x080093f8   Data          32  atan.o(.constdata)
    atanlo                                   0x08009418   Data          32  atan.o(.constdata)
    aTodd                                    0x08009438   Data          40  atan.o(.constdata)
    aTeven                                   0x08009460   Data          48  atan.o(.constdata)
    .constdata                               0x08009490   Section        8  qnan.o(.constdata)
    .conststring                             0x08009498   Section       77  inv_mpu.o(.conststring)
    .data                                    0x20000000   Section       60  main.o(.data)
    target_angle                             0x20000030   Data           4  main.o(.data)
    Turn_Speed                               0x20000034   Data           4  main.o(.data)
    Turn_pwm                                 0x20000038   Data           4  main.o(.data)
    .data                                    0x2000003c   Section       20  system_stm32f10x.o(.data)
    .data                                    0x20000050   Section       53  inv_mpu.o(.data)
    st                                       0x20000050   Data          44  inv_mpu.o(.data)
    gyro_orientation                         0x2000007c   Data           9  inv_mpu.o(.data)
    .data                                    0x20000088   Section        8  motor.o(.data)
    .data                                    0x20000090   Section       12  pid.o(.data)
    Encoder_Least                            0x20000090   Data           4  pid.o(.data)
    Encoder                                  0x20000094   Data           4  pid.o(.data)
    Encoder_Integral                         0x20000098   Data           4  pid.o(.data)
    .data                                    0x2000009c   Section        4  delay.o(.data)
    fac_us                                   0x2000009c   Data           1  delay.o(.data)
    fac_ms                                   0x2000009e   Data           2  delay.o(.data)
    .data                                    0x200000a0   Section       16  usart.o(.data)
    .data                                    0x200000b0   Section       20  stm32f10x_rcc.o(.data)
    APBAHBPrescTable                         0x200000b0   Data          16  stm32f10x_rcc.o(.data)
    ADCPrescTable                            0x200000c0   Data           4  stm32f10x_rcc.o(.data)
    .data                                    0x200000c4   Section        4  errno.o(.data)
    _errno                                   0x200000c4   Data           4  errno.o(.data)
    .bss                                     0x200000c8   Section       16  inv_mpu_dmp_motion_driver.o(.bss)
    dmp                                      0x200000c8   Data          16  inv_mpu_dmp_motion_driver.o(.bss)
    .bss                                     0x200000d8   Section     1024  oled.o(.bss)
    OLED_buffer                              0x200000d8   Data        1024  oled.o(.bss)
    .bss                                     0x200004d8   Section       52  pid.o(.bss)
    STACK                                    0x20000510   Section     1024  startup_stm32f10x_hd.o(STACK)

    Global Symbols

    Symbol Name                              Value     Ov Type        Size  Object(Section)

    BuildAttributes$$THM_ISAv4$P$D$K$B$S$PE$A:L22UL41UL21$X:L11$S22US41US21$IEEE1$IW$USESV6$~STKCKD$USESV7$~SHL$OTIME$ROPI$IEEEX$EBA8$MICROLIB$REQ8$PRES8$EABIv2 0x00000000   Number         0  anon$$obj.o ABSOLUTE
    __ARM_use_no_argv                        0x00000000   Number         0  main.o ABSOLUTE
    __use_no_errno                           0x00000000   Number         0  useno.o ABSOLUTE
    __use_no_exception_handling              0x00000000   Number         0  useno.o ABSOLUTE
    __use_no_fp                              0x00000000   Number         0  useno.o ABSOLUTE
    __use_no_heap                            0x00000000   Number         0  useno.o ABSOLUTE
    __use_no_heap_region                     0x00000000   Number         0  useno.o ABSOLUTE
    __use_no_semihosting                     0x00000000   Number         0  useno.o ABSOLUTE
    __use_no_semihosting_swi                 0x00000000   Number         0  useno.o ABSOLUTE
    __use_no_signal_handling                 0x00000000   Number         0  useno.o ABSOLUTE
    _printf_a                                0x00000000   Number         0  stubs.o ABSOLUTE
    _printf_c                                0x00000000   Number         0  stubs.o ABSOLUTE
    _printf_charcount                        0x00000000   Number         0  stubs.o ABSOLUTE
    _printf_d                                0x00000000   Number         0  stubs.o ABSOLUTE
    _printf_e                                0x00000000   Number         0  stubs.o ABSOLUTE
    _printf_f                                0x00000000   Number         0  stubs.o ABSOLUTE
    _printf_flags                            0x00000000   Number         0  stubs.o ABSOLUTE
    _printf_fp_dec                           0x00000000   Number         0  stubs.o ABSOLUTE
    _printf_fp_hex                           0x00000000   Number         0  stubs.o ABSOLUTE
    _printf_g                                0x00000000   Number         0  stubs.o ABSOLUTE
    _printf_i                                0x00000000   Number         0  stubs.o ABSOLUTE
    _printf_int_dec                          0x00000000   Number         0  stubs.o ABSOLUTE
    _printf_l                                0x00000000   Number         0  stubs.o ABSOLUTE
    _printf_lc                               0x00000000   Number         0  stubs.o ABSOLUTE
    _printf_ll                               0x00000000   Number         0  stubs.o ABSOLUTE
    _printf_lld                              0x00000000   Number         0  stubs.o ABSOLUTE
    _printf_lli                              0x00000000   Number         0  stubs.o ABSOLUTE
    _printf_llo                              0x00000000   Number         0  stubs.o ABSOLUTE
    _printf_llu                              0x00000000   Number         0  stubs.o ABSOLUTE
    _printf_llx                              0x00000000   Number         0  stubs.o ABSOLUTE
    _printf_longlong_dec                     0x00000000   Number         0  stubs.o ABSOLUTE
    _printf_longlong_hex                     0x00000000   Number         0  stubs.o ABSOLUTE
    _printf_longlong_oct                     0x00000000   Number         0  stubs.o ABSOLUTE
    _printf_ls                               0x00000000   Number         0  stubs.o ABSOLUTE
    _printf_mbtowc                           0x00000000   Number         0  stubs.o ABSOLUTE
    _printf_n                                0x00000000   Number         0  stubs.o ABSOLUTE
    _printf_o                                0x00000000   Number         0  stubs.o ABSOLUTE
    _printf_p                                0x00000000   Number         0  stubs.o ABSOLUTE
    _printf_percent                          0x00000000   Number         0  stubs.o ABSOLUTE
    _printf_pre_padding                      0x00000000   Number         0  stubs.o ABSOLUTE
    _printf_return_value                     0x00000000   Number         0  stubs.o ABSOLUTE
    _printf_s                                0x00000000   Number         0  stubs.o ABSOLUTE
    _printf_sizespec                         0x00000000   Number         0  stubs.o ABSOLUTE
    _printf_str                              0x00000000   Number         0  stubs.o ABSOLUTE
    _printf_truncate_signed                  0x00000000   Number         0  stubs.o ABSOLUTE
    _printf_truncate_unsigned                0x00000000   Number         0  stubs.o ABSOLUTE
    _printf_u                                0x00000000   Number         0  stubs.o ABSOLUTE
    _printf_wc                               0x00000000   Number         0  stubs.o ABSOLUTE
    _printf_wctomb                           0x00000000   Number         0  stubs.o ABSOLUTE
    _printf_widthprec                        0x00000000   Number         0  stubs.o ABSOLUTE
    _printf_x                                0x00000000   Number         0  stubs.o ABSOLUTE
    __cpp_initialize__aeabi_                  - Undefined Weak Reference
    __cxa_finalize                            - Undefined Weak Reference
    __decompress                              - Undefined Weak Reference
    _clock_init                               - Undefined Weak Reference
    _microlib_exit                            - Undefined Weak Reference
    __Vectors_Size                           0x00000130   Number         0  startup_stm32f10x_hd.o ABSOLUTE
    __Vectors                                0x08000000   Data           4  startup_stm32f10x_hd.o(RESET)
    __Vectors_End                            0x08000130   Data           0  startup_stm32f10x_hd.o(RESET)
    __main                                   0x08000131   Thumb Code     0  entry.o(.ARM.Collect$$$$00000000)
    _main_stk                                0x08000131   Thumb Code     0  entry2.o(.ARM.Collect$$$$00000001)
    _main_scatterload                        0x08000135   Thumb Code     0  entry5.o(.ARM.Collect$$$$00000004)
    __main_after_scatterload                 0x08000139   Thumb Code     0  entry5.o(.ARM.Collect$$$$00000004)
    _main_clock                              0x08000139   Thumb Code     0  entry7b.o(.ARM.Collect$$$$00000008)
    _main_cpp_init                           0x08000139   Thumb Code     0  entry8b.o(.ARM.Collect$$$$0000000A)
    _main_init                               0x08000139   Thumb Code     0  entry9a.o(.ARM.Collect$$$$0000000B)
    __rt_final_cpp                           0x08000141   Thumb Code     0  entry10a.o(.ARM.Collect$$$$0000000D)
    __rt_final_exit                          0x08000141   Thumb Code     0  entry11a.o(.ARM.Collect$$$$0000000F)
    MPU_Read                                 0x08000145   Thumb Code    24  main.o(.text)
    main                                     0x0800015d   Thumb Code   210  main.o(.text)
    calculation                              0x0800022f   Thumb Code   556  main.o(.text)
    NMI_Handler                              0x080004f5   Thumb Code     2  stm32f10x_it.o(.text)
    HardFault_Handler                        0x080004f7   Thumb Code     4  stm32f10x_it.o(.text)
    MemManage_Handler                        0x080004fb   Thumb Code     4  stm32f10x_it.o(.text)
    BusFault_Handler                         0x080004ff   Thumb Code     4  stm32f10x_it.o(.text)
    UsageFault_Handler                       0x08000503   Thumb Code     4  stm32f10x_it.o(.text)
    SVC_Handler                              0x08000507   Thumb Code     2  stm32f10x_it.o(.text)
    DebugMon_Handler                         0x08000509   Thumb Code     2  stm32f10x_it.o(.text)
    PendSV_Handler                           0x0800050b   Thumb Code     2  stm32f10x_it.o(.text)
    SysTick_Handler                          0x0800050d   Thumb Code     2  stm32f10x_it.o(.text)
    SystemInit                               0x080005ef   Thumb Code    78  system_stm32f10x.o(.text)
    SystemCoreClockUpdate                    0x0800063d   Thumb Code   142  system_stm32f10x.o(.text)
    MPU_IIC_Delay                            0x080006f1   Thumb Code    10  mpuiic.o(.text)
    MPU_IIC_Init                             0x080006fb   Thumb Code    58  mpuiic.o(.text)
    MPU_IIC_Start                            0x08000735   Thumb Code    64  mpuiic.o(.text)
    MPU_IIC_Stop                             0x08000775   Thumb Code    66  mpuiic.o(.text)
    MPU_IIC_Wait_Ack                         0x080007b7   Thumb Code    90  mpuiic.o(.text)
    MPU_IIC_Ack                              0x08000811   Thumb Code    70  mpuiic.o(.text)
    MPU_IIC_NAck                             0x08000857   Thumb Code    70  mpuiic.o(.text)
    MPU_IIC_Send_Byte                        0x0800089d   Thumb Code    86  mpuiic.o(.text)
    MPU_IIC_Read_Byte                        0x080008f3   Thumb Code   100  mpuiic.o(.text)
    MPU_Write_Byte                           0x08000965   Thumb Code    68  mpu6050.o(.text)
    MPU_Set_LPF                              0x080009a9   Thumb Code    58  mpu6050.o(.text)
    MPU_Set_Rate                             0x080009e3   Thumb Code    58  mpu6050.o(.text)
    MPU_Read_Byte                            0x08000a1d   Thumb Code    58  mpu6050.o(.text)
    MPU_Set_Accel_Fsr                        0x08000a57   Thumb Code    14  mpu6050.o(.text)
    MPU_Set_Gyro_Fsr                         0x08000a65   Thumb Code    16  mpu6050.o(.text)
    MPU_Init                                 0x08000a75   Thumb Code   130  mpu6050.o(.text)
    MPU_Read_Len                             0x08000af7   Thumb Code   116  mpu6050.o(.text)
    MPU_Get_Temperature                      0x08000b6b   Thumb Code    86  mpu6050.o(.text)
    MPU_Get_Gyroscope                        0x08000bc1   Thumb Code    80  mpu6050.o(.text)
    MPU_Get_Accelerometer                    0x08000c11   Thumb Code    80  mpu6050.o(.text)
    MPU_Write_Len                            0x08000c61   Thumb Code    96  mpu6050.o(.text)
    dmp_load_motion_driver_firmware          0x08000cd5   Thumb Code    20  inv_mpu_dmp_motion_driver.o(.text)
    dmp_set_orientation                      0x08000ce9   Thumb Code   290  inv_mpu_dmp_motion_driver.o(.text)
    dmp_set_gyro_bias                        0x08000e0b   Thumb Code   294  inv_mpu_dmp_motion_driver.o(.text)
    dmp_set_accel_bias                       0x08000f31   Thumb Code   300  inv_mpu_dmp_motion_driver.o(.text)
    dmp_set_fifo_rate                        0x0800105d   Thumb Code   136  inv_mpu_dmp_motion_driver.o(.text)
    dmp_get_fifo_rate                        0x080010e5   Thumb Code    12  inv_mpu_dmp_motion_driver.o(.text)
    dmp_set_tap_thresh                       0x080010f1   Thumb Code   396  inv_mpu_dmp_motion_driver.o(.text)
    dmp_set_tap_axes                         0x0800127d   Thumb Code    70  inv_mpu_dmp_motion_driver.o(.text)
    dmp_set_tap_count                        0x080012c3   Thumb Code    38  inv_mpu_dmp_motion_driver.o(.text)
    dmp_set_tap_time                         0x080012e9   Thumb Code    38  inv_mpu_dmp_motion_driver.o(.text)
    dmp_set_tap_time_multi                   0x0800130f   Thumb Code    38  inv_mpu_dmp_motion_driver.o(.text)
    dmp_set_shake_reject_thresh              0x08001335   Thumb Code    56  inv_mpu_dmp_motion_driver.o(.text)
    dmp_set_shake_reject_time                0x0800136d   Thumb Code    38  inv_mpu_dmp_motion_driver.o(.text)
    dmp_set_shake_reject_timeout             0x08001393   Thumb Code    38  inv_mpu_dmp_motion_driver.o(.text)
    dmp_get_pedometer_step_count             0x080013b9   Thumb Code    66  inv_mpu_dmp_motion_driver.o(.text)
    dmp_set_pedometer_step_count             0x080013fb   Thumb Code    42  inv_mpu_dmp_motion_driver.o(.text)
    dmp_get_pedometer_walk_time              0x08001425   Thumb Code    72  inv_mpu_dmp_motion_driver.o(.text)
    dmp_set_pedometer_walk_time              0x0800146d   Thumb Code    48  inv_mpu_dmp_motion_driver.o(.text)
    dmp_enable_6x_lp_quat                    0x0800149d   Thumb Code    84  inv_mpu_dmp_motion_driver.o(.text)
    dmp_enable_lp_quat                       0x080014f1   Thumb Code    60  inv_mpu_dmp_motion_driver.o(.text)
    dmp_enable_gyro_cal                      0x0800152d   Thumb Code    62  inv_mpu_dmp_motion_driver.o(.text)
    dmp_enable_feature                       0x0800156b   Thumb Code   530  inv_mpu_dmp_motion_driver.o(.text)
    dmp_get_enabled_features                 0x0800177d   Thumb Code    12  inv_mpu_dmp_motion_driver.o(.text)
    dmp_set_interrupt_mode                   0x080017e7   Thumb Code    66  inv_mpu_dmp_motion_driver.o(.text)
    dmp_read_fifo                            0x08001829   Thumb Code   514  inv_mpu_dmp_motion_driver.o(.text)
    dmp_register_tap_cb                      0x08001a2b   Thumb Code    10  inv_mpu_dmp_motion_driver.o(.text)
    dmp_register_android_orient_cb           0x08001a35   Thumb Code    10  inv_mpu_dmp_motion_driver.o(.text)
    mpu_reg_dump                             0x08001acf   Thumb Code    84  inv_mpu.o(.text)
    mpu_read_reg                             0x08001b23   Thumb Code    66  inv_mpu.o(.text)
    mpu_set_int_latched                      0x08001b65   Thumb Code   102  inv_mpu.o(.text)
    mpu_set_sensors                          0x08001bcb   Thumb Code   202  inv_mpu.o(.text)
    mpu_set_bypass                           0x08001c95   Thumb Code   328  inv_mpu.o(.text)
    mpu_reset_fifo                           0x08001ddd   Thumb Code   472  inv_mpu.o(.text)
    mpu_configure_fifo                       0x08001fb5   Thumb Code   106  inv_mpu.o(.text)
    mpu_set_lpf                              0x0800201f   Thumb Code   126  inv_mpu.o(.text)
    mpu_lp_accel_mode                        0x0800209d   Thumb Code   218  inv_mpu.o(.text)
    mpu_set_sample_rate                      0x08002177   Thumb Code   152  inv_mpu.o(.text)
    mpu_set_accel_fsr                        0x0800220f   Thumb Code   132  inv_mpu.o(.text)
    mpu_set_gyro_fsr                         0x08002293   Thumb Code   132  inv_mpu.o(.text)
    mpu_init                                 0x08002317   Thumb Code   416  inv_mpu.o(.text)
    mget_ms                                  0x080024b7   Thumb Code     2  inv_mpu.o(.text)
    mpu_get_gyro_reg                         0x080024b9   Thumb Code   110  inv_mpu.o(.text)
    mpu_get_accel_reg                        0x08002527   Thumb Code   110  inv_mpu.o(.text)
    mpu_get_temperature                      0x08002595   Thumb Code   150  inv_mpu.o(.text)
    mpu_set_accel_bias                       0x0800262b   Thumb Code   468  inv_mpu.o(.text)
    mpu_get_gyro_fsr                         0x080027ff   Thumb Code    64  inv_mpu.o(.text)
    mpu_get_accel_fsr                        0x0800283f   Thumb Code    72  inv_mpu.o(.text)
    mpu_get_lpf                              0x08002887   Thumb Code    74  inv_mpu.o(.text)
    mpu_get_sample_rate                      0x080028d1   Thumb Code    26  inv_mpu.o(.text)
    mpu_get_compass_sample_rate              0x080028eb   Thumb Code    10  inv_mpu.o(.text)
    mpu_set_compass_sample_rate              0x080028f5   Thumb Code     8  inv_mpu.o(.text)
    mpu_get_gyro_sens                        0x080028fd   Thumb Code    58  inv_mpu.o(.text)
    mpu_get_accel_sens                       0x08002937   Thumb Code    78  inv_mpu.o(.text)
    mpu_get_fifo_config                      0x08002985   Thumb Code    12  inv_mpu.o(.text)
    mpu_get_power_state                      0x08002991   Thumb Code    22  inv_mpu.o(.text)
    mpu_get_int_status                       0x080029a7   Thumb Code    64  inv_mpu.o(.text)
    mpu_read_fifo                            0x080029e7   Thumb Code   520  inv_mpu.o(.text)
    mpu_read_fifo_stream                     0x08002bef   Thumb Code   186  inv_mpu.o(.text)
    mpu_set_int_level                        0x08002ca9   Thumb Code    12  inv_mpu.o(.text)
    mpu_set_dmp_state                        0x08003389   Thumb Code   138  inv_mpu.o(.text)
    mpu_run_self_test                        0x08003413   Thumb Code   278  inv_mpu.o(.text)
    mpu_write_mem                            0x08003529   Thumb Code   122  inv_mpu.o(.text)
    mpu_read_mem                             0x080035a3   Thumb Code   122  inv_mpu.o(.text)
    mpu_load_firmware                        0x0800361d   Thumb Code   190  inv_mpu.o(.text)
    mpu_get_dmp_state                        0x080036db   Thumb Code    14  inv_mpu.o(.text)
    setup_compass                            0x080036e9   Thumb Code     6  inv_mpu.o(.text)
    mpu_get_compass_reg                      0x080036ef   Thumb Code     8  inv_mpu.o(.text)
    mpu_get_compass_fsr                      0x080036f7   Thumb Code     8  inv_mpu.o(.text)
    mpu_lp_motion_interrupt                  0x080036ff   Thumb Code   512  inv_mpu.o(.text)
    run_self_test                            0x080038ff   Thumb Code   148  inv_mpu.o(.text)
    inv_row_2_scale                          0x08003993   Thumb Code    78  inv_mpu.o(.text)
    inv_orientation_matrix_to_scalar         0x080039e1   Thumb Code    40  inv_mpu.o(.text)
    mpu_dmp_init                             0x08003a09   Thumb Code   154  inv_mpu.o(.text)
    mpu_dmp_get_data                         0x08003aa3   Thumb Code   554  inv_mpu.o(.text)
    OLED_WR_Byte                             0x08003cd1   Thumb Code    54  oled.o(.text)
    OLED_Set_Pos                             0x08003d07   Thumb Code    56  oled.o(.text)
    OLED_Display_On                          0x08003d3f   Thumb Code    28  oled.o(.text)
    OLED_Display_Off                         0x08003d5b   Thumb Code    28  oled.o(.text)
    OLED_Set_Pixel                           0x08003d77   Thumb Code   122  oled.o(.text)
    OLED_Display                             0x08003df1   Thumb Code    68  oled.o(.text)
    OLED_buffer_Clear                        0x08003e35   Thumb Code    14  oled.o(.text)
    OLED_Clear                               0x08003e43   Thumb Code    36  oled.o(.text)
    OLED_Reset                               0x08003e67   Thumb Code    40  oled.o(.text)
    OLED_Init_GPIO                           0x08003e8f   Thumb Code    72  oled.o(.text)
    OLED_Init                                0x08003ed7   Thumb Code   218  oled.o(.text)
    MiniBalance_Motor_Init                   0x08003fbd   Thumb Code    40  motor.o(.text)
    MiniBalance_PWM_Init                     0x08003fe5   Thumb Code   186  motor.o(.text)
    myabs                                    0x0800409f   Thumb Code    14  motor.o(.text)
    Set_Pwm                                  0x080040ad   Thumb Code   108  motor.o(.text)
    Xianfu_Pwm                               0x08004119   Thumb Code    62  motor.o(.text)
    Turn_Off                                 0x08004157   Thumb Code    46  motor.o(.text)
    TIM3_Int_Init                            0x08004185   Thumb Code    90  motor.o(.text)
    TIM3_PWM_Init                            0x080041df   Thumb Code   148  motor.o(.text)
    Encoder_Init_TIM2                        0x08004299   Thumb Code   154  encoder.o(.text)
    Encoder_Init_TIM4                        0x08004333   Thumb Code   148  encoder.o(.text)
    TIM3_Config                              0x080043c7   Thumb Code   104  encoder.o(.text)
    TIM3_IRQHandler                          0x0800442f   Thumb Code    26  encoder.o(.text)
    Read_Encoder                             0x08004449   Thumb Code    78  encoder.o(.text)
    TIM4_IRQHandler                          0x08004497   Thumb Code    24  encoder.o(.text)
    TIM2_IRQHandler                          0x080044af   Thumb Code    24  encoder.o(.text)
    PID_Init                                 0x080044d9   Thumb Code    48  pid.o(.text)
    balance                                  0x08004509   Thumb Code    88  pid.o(.text)
    velocity                                 0x08004561   Thumb Code   264  pid.o(.text)
    turn                                     0x08004669   Thumb Code    68  pid.o(.text)
    SPI_WriteByte                            0x080046e9   Thumb Code    64  spi.o(.text)
    GUI_DrawPoint                            0x0800472d   Thumb Code    24  gui.o(.text)
    GUI_Fill                                 0x08004745   Thumb Code    78  gui.o(.text)
    GUI_DrawLine                             0x08004793   Thumb Code   176  gui.o(.text)
    GUI_ShowChar                             0x08004843   Thumb Code   158  gui.o(.text)
    GUI_ShowString                           0x080048e1   Thumb Code    90  gui.o(.text)
    GUI_ShowNum                              0x08004951   Thumb Code   170  gui.o(.text)
    GUI_ShowFont16                           0x080049fb   Thumb Code   236  gui.o(.text)
    GUI_ShowFont24                           0x08004ae7   Thumb Code   256  gui.o(.text)
    GUI_ShowFont32                           0x08004be7   Thumb Code   264  gui.o(.text)
    GUI_ShowCHinese                          0x08004cef   Thumb Code   106  gui.o(.text)
    GUI_DrawBMP                              0x08004d59   Thumb Code   172  gui.o(.text)
    delay_init                               0x08004e05   Thumb Code    50  delay.o(.text)
    delay_us                                 0x08004e37   Thumb Code    72  delay.o(.text)
    delay_ms                                 0x08004e7f   Thumb Code    72  delay.o(.text)
    _sys_exit                                0x08004ed9   Thumb Code     6  usart.o(.text)
    fputc                                    0x08004edf   Thumb Code    32  usart.o(.text)
    uart2_init                               0x08004eff   Thumb Code   154  usart.o(.text)
    uart1_init                               0x08004f99   Thumb Code   154  usart.o(.text)
    USART2_IRQHandler                        0x08005033   Thumb Code   202  usart.o(.text)
    Reset_Handler                            0x08005119   Thumb Code     8  startup_stm32f10x_hd.o(.text)
    ADC1_2_IRQHandler                        0x08005133   Thumb Code     0  startup_stm32f10x_hd.o(.text)
    ADC3_IRQHandler                          0x08005133   Thumb Code     0  startup_stm32f10x_hd.o(.text)
    CAN1_RX1_IRQHandler                      0x08005133   Thumb Code     0  startup_stm32f10x_hd.o(.text)
    CAN1_SCE_IRQHandler                      0x08005133   Thumb Code     0  startup_stm32f10x_hd.o(.text)
    DMA1_Channel1_IRQHandler                 0x08005133   Thumb Code     0  startup_stm32f10x_hd.o(.text)
    DMA1_Channel2_IRQHandler                 0x08005133   Thumb Code     0  startup_stm32f10x_hd.o(.text)
    DMA1_Channel3_IRQHandler                 0x08005133   Thumb Code     0  startup_stm32f10x_hd.o(.text)
    DMA1_Channel4_IRQHandler                 0x08005133   Thumb Code     0  startup_stm32f10x_hd.o(.text)
    DMA1_Channel5_IRQHandler                 0x08005133   Thumb Code     0  startup_stm32f10x_hd.o(.text)
    DMA1_Channel6_IRQHandler                 0x08005133   Thumb Code     0  startup_stm32f10x_hd.o(.text)
    DMA1_Channel7_IRQHandler                 0x08005133   Thumb Code     0  startup_stm32f10x_hd.o(.text)
    DMA2_Channel1_IRQHandler                 0x08005133   Thumb Code     0  startup_stm32f10x_hd.o(.text)
    DMA2_Channel2_IRQHandler                 0x08005133   Thumb Code     0  startup_stm32f10x_hd.o(.text)
    DMA2_Channel3_IRQHandler                 0x08005133   Thumb Code     0  startup_stm32f10x_hd.o(.text)
    DMA2_Channel4_5_IRQHandler               0x08005133   Thumb Code     0  startup_stm32f10x_hd.o(.text)
    EXTI0_IRQHandler                         0x08005133   Thumb Code     0  startup_stm32f10x_hd.o(.text)
    EXTI15_10_IRQHandler                     0x08005133   Thumb Code     0  startup_stm32f10x_hd.o(.text)
    EXTI1_IRQHandler                         0x08005133   Thumb Code     0  startup_stm32f10x_hd.o(.text)
    EXTI2_IRQHandler                         0x08005133   Thumb Code     0  startup_stm32f10x_hd.o(.text)
    EXTI3_IRQHandler                         0x08005133   Thumb Code     0  startup_stm32f10x_hd.o(.text)
    EXTI4_IRQHandler                         0x08005133   Thumb Code     0  startup_stm32f10x_hd.o(.text)
    EXTI9_5_IRQHandler                       0x08005133   Thumb Code     0  startup_stm32f10x_hd.o(.text)
    FLASH_IRQHandler                         0x08005133   Thumb Code     0  startup_stm32f10x_hd.o(.text)
    FSMC_IRQHandler                          0x08005133   Thumb Code     0  startup_stm32f10x_hd.o(.text)
    I2C1_ER_IRQHandler                       0x08005133   Thumb Code     0  startup_stm32f10x_hd.o(.text)
    I2C1_EV_IRQHandler                       0x08005133   Thumb Code     0  startup_stm32f10x_hd.o(.text)
    I2C2_ER_IRQHandler                       0x08005133   Thumb Code     0  startup_stm32f10x_hd.o(.text)
    I2C2_EV_IRQHandler                       0x08005133   Thumb Code     0  startup_stm32f10x_hd.o(.text)
    PVD_IRQHandler                           0x08005133   Thumb Code     0  startup_stm32f10x_hd.o(.text)
    RCC_IRQHandler                           0x08005133   Thumb Code     0  startup_stm32f10x_hd.o(.text)
    RTCAlarm_IRQHandler                      0x08005133   Thumb Code     0  startup_stm32f10x_hd.o(.text)
    RTC_IRQHandler                           0x08005133   Thumb Code     0  startup_stm32f10x_hd.o(.text)
    SDIO_IRQHandler                          0x08005133   Thumb Code     0  startup_stm32f10x_hd.o(.text)
    SPI1_IRQHandler                          0x08005133   Thumb Code     0  startup_stm32f10x_hd.o(.text)
    SPI2_IRQHandler                          0x08005133   Thumb Code     0  startup_stm32f10x_hd.o(.text)
    SPI3_IRQHandler                          0x08005133   Thumb Code     0  startup_stm32f10x_hd.o(.text)
    TAMPER_IRQHandler                        0x08005133   Thumb Code     0  startup_stm32f10x_hd.o(.text)
    TIM1_BRK_IRQHandler                      0x08005133   Thumb Code     0  startup_stm32f10x_hd.o(.text)
    TIM1_CC_IRQHandler                       0x08005133   Thumb Code     0  startup_stm32f10x_hd.o(.text)
    TIM1_TRG_COM_IRQHandler                  0x08005133   Thumb Code     0  startup_stm32f10x_hd.o(.text)
    TIM1_UP_IRQHandler                       0x08005133   Thumb Code     0  startup_stm32f10x_hd.o(.text)
    TIM5_IRQHandler                          0x08005133   Thumb Code     0  startup_stm32f10x_hd.o(.text)
    TIM6_IRQHandler                          0x08005133   Thumb Code     0  startup_stm32f10x_hd.o(.text)
    TIM7_IRQHandler                          0x08005133   Thumb Code     0  startup_stm32f10x_hd.o(.text)
    TIM8_BRK_IRQHandler                      0x08005133   Thumb Code     0  startup_stm32f10x_hd.o(.text)
    TIM8_CC_IRQHandler                       0x08005133   Thumb Code     0  startup_stm32f10x_hd.o(.text)
    TIM8_TRG_COM_IRQHandler                  0x08005133   Thumb Code     0  startup_stm32f10x_hd.o(.text)
    TIM8_UP_IRQHandler                       0x08005133   Thumb Code     0  startup_stm32f10x_hd.o(.text)
    UART4_IRQHandler                         0x08005133   Thumb Code     0  startup_stm32f10x_hd.o(.text)
    UART5_IRQHandler                         0x08005133   Thumb Code     0  startup_stm32f10x_hd.o(.text)
    USART1_IRQHandler                        0x08005133   Thumb Code     0  startup_stm32f10x_hd.o(.text)
    USART3_IRQHandler                        0x08005133   Thumb Code     0  startup_stm32f10x_hd.o(.text)
    USBWakeUp_IRQHandler                     0x08005133   Thumb Code     0  startup_stm32f10x_hd.o(.text)
    USB_HP_CAN1_TX_IRQHandler                0x08005133   Thumb Code     0  startup_stm32f10x_hd.o(.text)
    USB_LP_CAN1_RX0_IRQHandler               0x08005133   Thumb Code     0  startup_stm32f10x_hd.o(.text)
    WWDG_IRQHandler                          0x08005133   Thumb Code     0  startup_stm32f10x_hd.o(.text)
    GPIO_DeInit                              0x0800513d   Thumb Code   172  stm32f10x_gpio.o(.text)
    GPIO_AFIODeInit                          0x080051e9   Thumb Code    20  stm32f10x_gpio.o(.text)
    GPIO_Init                                0x080051fd   Thumb Code   278  stm32f10x_gpio.o(.text)
    GPIO_StructInit                          0x08005313   Thumb Code    16  stm32f10x_gpio.o(.text)
    GPIO_ReadInputDataBit                    0x08005323   Thumb Code    18  stm32f10x_gpio.o(.text)
    GPIO_ReadInputData                       0x08005335   Thumb Code     8  stm32f10x_gpio.o(.text)
    GPIO_ReadOutputDataBit                   0x0800533d   Thumb Code    18  stm32f10x_gpio.o(.text)
    GPIO_ReadOutputData                      0x0800534f   Thumb Code     8  stm32f10x_gpio.o(.text)
    GPIO_SetBits                             0x08005357   Thumb Code     4  stm32f10x_gpio.o(.text)
    GPIO_ResetBits                           0x0800535b   Thumb Code     4  stm32f10x_gpio.o(.text)
    GPIO_WriteBit                            0x0800535f   Thumb Code    10  stm32f10x_gpio.o(.text)
    GPIO_Write                               0x08005369   Thumb Code     4  stm32f10x_gpio.o(.text)
    GPIO_PinLockConfig                       0x0800536d   Thumb Code    18  stm32f10x_gpio.o(.text)
    GPIO_EventOutputConfig                   0x0800537f   Thumb Code    26  stm32f10x_gpio.o(.text)
    GPIO_EventOutputCmd                      0x08005399   Thumb Code     6  stm32f10x_gpio.o(.text)
    GPIO_PinRemapConfig                      0x0800539f   Thumb Code   138  stm32f10x_gpio.o(.text)
    GPIO_EXTILineConfig                      0x08005429   Thumb Code    66  stm32f10x_gpio.o(.text)
    GPIO_ETH_MediaInterfaceConfig            0x0800546b   Thumb Code     8  stm32f10x_gpio.o(.text)
    RCC_DeInit                               0x08005499   Thumb Code    64  stm32f10x_rcc.o(.text)
    RCC_HSEConfig                            0x080054d9   Thumb Code    70  stm32f10x_rcc.o(.text)
    RCC_GetFlagStatus                        0x0800551f   Thumb Code    56  stm32f10x_rcc.o(.text)
    RCC_WaitForHSEStartUp                    0x08005557   Thumb Code    56  stm32f10x_rcc.o(.text)
    RCC_AdjustHSICalibrationValue            0x0800558f   Thumb Code    20  stm32f10x_rcc.o(.text)
    RCC_HSICmd                               0x080055a3   Thumb Code     6  stm32f10x_rcc.o(.text)
    RCC_PLLConfig                            0x080055a9   Thumb Code    24  stm32f10x_rcc.o(.text)
    RCC_PLLCmd                               0x080055c1   Thumb Code     6  stm32f10x_rcc.o(.text)
    RCC_SYSCLKConfig                         0x080055c7   Thumb Code    18  stm32f10x_rcc.o(.text)
    RCC_GetSYSCLKSource                      0x080055d9   Thumb Code    10  stm32f10x_rcc.o(.text)
    RCC_HCLKConfig                           0x080055e3   Thumb Code    18  stm32f10x_rcc.o(.text)
    RCC_PCLK1Config                          0x080055f5   Thumb Code    18  stm32f10x_rcc.o(.text)
    RCC_PCLK2Config                          0x08005607   Thumb Code    20  stm32f10x_rcc.o(.text)
    RCC_ITConfig                             0x0800561b   Thumb Code    26  stm32f10x_rcc.o(.text)
    RCC_USBCLKConfig                         0x08005635   Thumb Code     8  stm32f10x_rcc.o(.text)
    RCC_ADCCLKConfig                         0x0800563d   Thumb Code    18  stm32f10x_rcc.o(.text)
    RCC_LSEConfig                            0x0800564f   Thumb Code    50  stm32f10x_rcc.o(.text)
    RCC_LSICmd                               0x08005681   Thumb Code     6  stm32f10x_rcc.o(.text)
    RCC_RTCCLKConfig                         0x08005687   Thumb Code    12  stm32f10x_rcc.o(.text)
    RCC_RTCCLKCmd                            0x08005693   Thumb Code     8  stm32f10x_rcc.o(.text)
    RCC_GetClocksFreq                        0x0800569b   Thumb Code   192  stm32f10x_rcc.o(.text)
    RCC_AHBPeriphClockCmd                    0x0800575b   Thumb Code    26  stm32f10x_rcc.o(.text)
    RCC_APB2PeriphClockCmd                   0x08005775   Thumb Code    26  stm32f10x_rcc.o(.text)
    RCC_APB1PeriphClockCmd                   0x0800578f   Thumb Code    26  stm32f10x_rcc.o(.text)
    RCC_APB2PeriphResetCmd                   0x080057a9   Thumb Code    26  stm32f10x_rcc.o(.text)
    RCC_APB1PeriphResetCmd                   0x080057c3   Thumb Code    26  stm32f10x_rcc.o(.text)
    RCC_BackupResetCmd                       0x080057dd   Thumb Code     8  stm32f10x_rcc.o(.text)
    RCC_ClockSecuritySystemCmd               0x080057e5   Thumb Code     6  stm32f10x_rcc.o(.text)
    RCC_MCOConfig                            0x080057eb   Thumb Code     6  stm32f10x_rcc.o(.text)
    RCC_ClearFlag                            0x080057f1   Thumb Code    14  stm32f10x_rcc.o(.text)
    RCC_GetITStatus                          0x080057ff   Thumb Code    20  stm32f10x_rcc.o(.text)
    RCC_ClearITPendingBit                    0x08005813   Thumb Code     6  stm32f10x_rcc.o(.text)
    USART_DeInit                             0x0800583d   Thumb Code   134  stm32f10x_usart.o(.text)
    USART_Init                               0x080058c3   Thumb Code   210  stm32f10x_usart.o(.text)
    USART_StructInit                         0x08005995   Thumb Code    24  stm32f10x_usart.o(.text)
    USART_ClockInit                          0x080059ad   Thumb Code    34  stm32f10x_usart.o(.text)
    USART_ClockStructInit                    0x080059cf   Thumb Code    12  stm32f10x_usart.o(.text)
    USART_Cmd                                0x080059db   Thumb Code    24  stm32f10x_usart.o(.text)
    USART_ITConfig                           0x080059f3   Thumb Code    74  stm32f10x_usart.o(.text)
    USART_DMACmd                             0x08005a3d   Thumb Code    18  stm32f10x_usart.o(.text)
    USART_SetAddress                         0x08005a4f   Thumb Code    18  stm32f10x_usart.o(.text)
    USART_WakeUpConfig                       0x08005a61   Thumb Code    18  stm32f10x_usart.o(.text)
    USART_ReceiverWakeUpCmd                  0x08005a73   Thumb Code    24  stm32f10x_usart.o(.text)
    USART_LINBreakDetectLengthConfig         0x08005a8b   Thumb Code    18  stm32f10x_usart.o(.text)
    USART_LINCmd                             0x08005a9d   Thumb Code    24  stm32f10x_usart.o(.text)
    USART_SendData                           0x08005ab5   Thumb Code     8  stm32f10x_usart.o(.text)
    USART_ReceiveData                        0x08005abd   Thumb Code    10  stm32f10x_usart.o(.text)
    USART_SendBreak                          0x08005ac7   Thumb Code    10  stm32f10x_usart.o(.text)
    USART_SetGuardTime                       0x08005ad1   Thumb Code    16  stm32f10x_usart.o(.text)
    USART_SetPrescaler                       0x08005ae1   Thumb Code    16  stm32f10x_usart.o(.text)
    USART_SmartCardCmd                       0x08005af1   Thumb Code    24  stm32f10x_usart.o(.text)
    USART_SmartCardNACKCmd                   0x08005b09   Thumb Code    24  stm32f10x_usart.o(.text)
    USART_HalfDuplexCmd                      0x08005b21   Thumb Code    24  stm32f10x_usart.o(.text)
    USART_OverSampling8Cmd                   0x08005b39   Thumb Code    22  stm32f10x_usart.o(.text)
    USART_OneBitMethodCmd                    0x08005b4f   Thumb Code    24  stm32f10x_usart.o(.text)
    USART_IrDAConfig                         0x08005b67   Thumb Code    18  stm32f10x_usart.o(.text)
    USART_IrDACmd                            0x08005b79   Thumb Code    24  stm32f10x_usart.o(.text)
    USART_GetFlagStatus                      0x08005b91   Thumb Code    26  stm32f10x_usart.o(.text)
    USART_ClearFlag                          0x08005bab   Thumb Code    18  stm32f10x_usart.o(.text)
    USART_GetITStatus                        0x08005bbd   Thumb Code    84  stm32f10x_usart.o(.text)
    USART_ClearITPendingBit                  0x08005c11   Thumb Code    52  stm32f10x_usart.o(.text)
    NVIC_PriorityGroupConfig                 0x08005c45   Thumb Code    10  misc.o(.text)
    NVIC_Init                                0x08005c4f   Thumb Code   100  misc.o(.text)
    NVIC_SetVectorTable                      0x08005cb3   Thumb Code    14  misc.o(.text)
    NVIC_SystemLPConfig                      0x08005cc1   Thumb Code    34  misc.o(.text)
    SysTick_CLKSourceConfig                  0x08005ce3   Thumb Code    40  misc.o(.text)
    TIM_DeInit                               0x08005d21   Thumb Code   424  stm32f10x_tim.o(.text)
    TIM_TimeBaseInit                         0x08005ec9   Thumb Code   122  stm32f10x_tim.o(.text)
    TIM_OC1Init                              0x08005f43   Thumb Code   132  stm32f10x_tim.o(.text)
    TIM_OC2Init                              0x08005fc7   Thumb Code   154  stm32f10x_tim.o(.text)
    TIM_OC3Init                              0x08006061   Thumb Code   150  stm32f10x_tim.o(.text)
    TIM_OC4Init                              0x080060f7   Thumb Code   182  stm32f10x_tim.o(.text)
    TIM_SetIC4Prescaler                      0x080061ad   Thumb Code    26  stm32f10x_tim.o(.text)
    TIM_SetIC3Prescaler                      0x08006249   Thumb Code    18  stm32f10x_tim.o(.text)
    TIM_SetIC2Prescaler                      0x080062d5   Thumb Code    26  stm32f10x_tim.o(.text)
    TIM_SetIC1Prescaler                      0x08006371   Thumb Code    18  stm32f10x_tim.o(.text)
    TIM_ICInit                               0x080063ef   Thumb Code   150  stm32f10x_tim.o(.text)
    TIM_PWMIConfig                           0x08006485   Thumb Code   124  stm32f10x_tim.o(.text)
    TIM_BDTRConfig                           0x08006501   Thumb Code    32  stm32f10x_tim.o(.text)
    TIM_TimeBaseStructInit                   0x08006521   Thumb Code    18  stm32f10x_tim.o(.text)
    TIM_OCStructInit                         0x08006533   Thumb Code    20  stm32f10x_tim.o(.text)
    TIM_ICStructInit                         0x08006547   Thumb Code    18  stm32f10x_tim.o(.text)
    TIM_BDTRStructInit                       0x08006559   Thumb Code    40  stm32f10x_tim.o(.text)
    TIM_Cmd                                  0x08006581   Thumb Code    24  stm32f10x_tim.o(.text)
    TIM_CtrlPWMOutputs                       0x08006599   Thumb Code    30  stm32f10x_tim.o(.text)
    TIM_ITConfig                             0x080065b7   Thumb Code    18  stm32f10x_tim.o(.text)
    TIM_GenerateEvent                        0x080065c9   Thumb Code     4  stm32f10x_tim.o(.text)
    TIM_DMAConfig                            0x080065cd   Thumb Code    10  stm32f10x_tim.o(.text)
    TIM_DMACmd                               0x080065d7   Thumb Code    18  stm32f10x_tim.o(.text)
    TIM_InternalClockConfig                  0x080065e9   Thumb Code    12  stm32f10x_tim.o(.text)
    TIM_SelectInputTrigger                   0x080065f5   Thumb Code    18  stm32f10x_tim.o(.text)
    TIM_ITRxExternalClockConfig              0x08006607   Thumb Code    24  stm32f10x_tim.o(.text)
    TIM_TIxExternalClockConfig               0x0800661f   Thumb Code    62  stm32f10x_tim.o(.text)
    TIM_ETRConfig                            0x0800665d   Thumb Code    28  stm32f10x_tim.o(.text)
    TIM_ETRClockMode1Config                  0x08006679   Thumb Code    54  stm32f10x_tim.o(.text)
    TIM_ETRClockMode2Config                  0x080066af   Thumb Code    32  stm32f10x_tim.o(.text)
    TIM_PrescalerConfig                      0x080066cf   Thumb Code     6  stm32f10x_tim.o(.text)
    TIM_CounterModeConfig                    0x080066d5   Thumb Code    18  stm32f10x_tim.o(.text)
    TIM_EncoderInterfaceConfig               0x080066e7   Thumb Code    66  stm32f10x_tim.o(.text)
    TIM_ForcedOC1Config                      0x08006729   Thumb Code    18  stm32f10x_tim.o(.text)
    TIM_ForcedOC2Config                      0x0800673b   Thumb Code    26  stm32f10x_tim.o(.text)
    TIM_ForcedOC3Config                      0x08006755   Thumb Code    18  stm32f10x_tim.o(.text)
    TIM_ForcedOC4Config                      0x08006767   Thumb Code    26  stm32f10x_tim.o(.text)
    TIM_ARRPreloadConfig                     0x08006781   Thumb Code    24  stm32f10x_tim.o(.text)
    TIM_SelectCOM                            0x08006799   Thumb Code    24  stm32f10x_tim.o(.text)
    TIM_SelectCCDMA                          0x080067b1   Thumb Code    24  stm32f10x_tim.o(.text)
    TIM_CCPreloadControl                     0x080067c9   Thumb Code    24  stm32f10x_tim.o(.text)
    TIM_OC1PreloadConfig                     0x080067e1   Thumb Code    18  stm32f10x_tim.o(.text)
    TIM_OC2PreloadConfig                     0x080067f3   Thumb Code    26  stm32f10x_tim.o(.text)
    TIM_OC3PreloadConfig                     0x0800680d   Thumb Code    18  stm32f10x_tim.o(.text)
    TIM_OC4PreloadConfig                     0x0800681f   Thumb Code    26  stm32f10x_tim.o(.text)
    TIM_OC1FastConfig                        0x08006839   Thumb Code    18  stm32f10x_tim.o(.text)
    TIM_OC2FastConfig                        0x0800684b   Thumb Code    26  stm32f10x_tim.o(.text)
    TIM_OC3FastConfig                        0x08006865   Thumb Code    18  stm32f10x_tim.o(.text)
    TIM_OC4FastConfig                        0x08006877   Thumb Code    26  stm32f10x_tim.o(.text)
    TIM_ClearOC1Ref                          0x08006891   Thumb Code    18  stm32f10x_tim.o(.text)
    TIM_ClearOC2Ref                          0x080068a3   Thumb Code    24  stm32f10x_tim.o(.text)
    TIM_ClearOC3Ref                          0x080068bb   Thumb Code    18  stm32f10x_tim.o(.text)
    TIM_ClearOC4Ref                          0x080068cd   Thumb Code    24  stm32f10x_tim.o(.text)
    TIM_OC1PolarityConfig                    0x080068e5   Thumb Code    18  stm32f10x_tim.o(.text)
    TIM_OC1NPolarityConfig                   0x080068f7   Thumb Code    18  stm32f10x_tim.o(.text)
    TIM_OC2PolarityConfig                    0x08006909   Thumb Code    26  stm32f10x_tim.o(.text)
    TIM_OC2NPolarityConfig                   0x08006923   Thumb Code    26  stm32f10x_tim.o(.text)
    TIM_OC3PolarityConfig                    0x0800693d   Thumb Code    26  stm32f10x_tim.o(.text)
    TIM_OC3NPolarityConfig                   0x08006957   Thumb Code    26  stm32f10x_tim.o(.text)
    TIM_OC4PolarityConfig                    0x08006971   Thumb Code    26  stm32f10x_tim.o(.text)
    TIM_CCxCmd                               0x0800698b   Thumb Code    30  stm32f10x_tim.o(.text)
    TIM_CCxNCmd                              0x080069a9   Thumb Code    30  stm32f10x_tim.o(.text)
    TIM_SelectOCxM                           0x080069c7   Thumb Code    82  stm32f10x_tim.o(.text)
    TIM_UpdateDisableConfig                  0x08006a19   Thumb Code    24  stm32f10x_tim.o(.text)
    TIM_UpdateRequestConfig                  0x08006a31   Thumb Code    24  stm32f10x_tim.o(.text)
    TIM_SelectHallSensor                     0x08006a49   Thumb Code    24  stm32f10x_tim.o(.text)
    TIM_SelectOnePulseMode                   0x08006a61   Thumb Code    18  stm32f10x_tim.o(.text)
    TIM_SelectOutputTrigger                  0x08006a73   Thumb Code    18  stm32f10x_tim.o(.text)
    TIM_SelectSlaveMode                      0x08006a85   Thumb Code    18  stm32f10x_tim.o(.text)
    TIM_SelectMasterSlaveMode                0x08006a97   Thumb Code    18  stm32f10x_tim.o(.text)
    TIM_SetCounter                           0x08006aa9   Thumb Code     4  stm32f10x_tim.o(.text)
    TIM_SetAutoreload                        0x08006aad   Thumb Code     4  stm32f10x_tim.o(.text)
    TIM_SetCompare1                          0x08006ab1   Thumb Code     4  stm32f10x_tim.o(.text)
    TIM_SetCompare2                          0x08006ab5   Thumb Code     4  stm32f10x_tim.o(.text)
    TIM_SetCompare3                          0x08006ab9   Thumb Code     4  stm32f10x_tim.o(.text)
    TIM_SetCompare4                          0x08006abd   Thumb Code     6  stm32f10x_tim.o(.text)
    TIM_SetClockDivision                     0x08006ac3   Thumb Code    18  stm32f10x_tim.o(.text)
    TIM_GetCapture1                          0x08006ad5   Thumb Code     6  stm32f10x_tim.o(.text)
    TIM_GetCapture2                          0x08006adb   Thumb Code     6  stm32f10x_tim.o(.text)
    TIM_GetCapture3                          0x08006ae1   Thumb Code     6  stm32f10x_tim.o(.text)
    TIM_GetCapture4                          0x08006ae7   Thumb Code     8  stm32f10x_tim.o(.text)
    TIM_GetCounter                           0x08006aef   Thumb Code     6  stm32f10x_tim.o(.text)
    TIM_GetPrescaler                         0x08006af5   Thumb Code     6  stm32f10x_tim.o(.text)
    TIM_GetFlagStatus                        0x08006afb   Thumb Code    18  stm32f10x_tim.o(.text)
    TIM_ClearFlag                            0x08006b0d   Thumb Code     6  stm32f10x_tim.o(.text)
    TIM_GetITStatus                          0x08006b13   Thumb Code    34  stm32f10x_tim.o(.text)
    TIM_ClearITPendingBit                    0x08006b35   Thumb Code     6  stm32f10x_tim.o(.text)
    __aeabi_ldivmod                          0x08006b3b   Thumb Code    98  ldiv.o(.text)
    __aeabi_memset                           0x08006b9d   Thumb Code    14  memseta.o(.text)
    __aeabi_memset4                          0x08006b9d   Thumb Code     0  memseta.o(.text)
    __aeabi_memset8                          0x08006b9d   Thumb Code     0  memseta.o(.text)
    __aeabi_memclr                           0x08006bab   Thumb Code     4  memseta.o(.text)
    __aeabi_memclr4                          0x08006bab   Thumb Code     0  memseta.o(.text)
    __aeabi_memclr8                          0x08006bab   Thumb Code     0  memseta.o(.text)
    _memset$wrapper                          0x08006baf   Thumb Code    18  memseta.o(.text)
    memcmp                                   0x08006bc1   Thumb Code    26  memcmp.o(.text)
    __aeabi_fadd                             0x08006bdb   Thumb Code   164  fadd.o(.text)
    __aeabi_fsub                             0x08006c7f   Thumb Code     6  fadd.o(.text)
    __aeabi_frsub                            0x08006c85   Thumb Code     6  fadd.o(.text)
    __aeabi_fmul                             0x08006c8b   Thumb Code   100  fmul.o(.text)
    __aeabi_fdiv                             0x08006cef   Thumb Code   124  fdiv.o(.text)
    __aeabi_dadd                             0x08006d6b   Thumb Code   322  dadd.o(.text)
    __aeabi_dsub                             0x08006ead   Thumb Code     6  dadd.o(.text)
    __aeabi_drsub                            0x08006eb3   Thumb Code     6  dadd.o(.text)
    __aeabi_dmul                             0x08006eb9   Thumb Code   228  dmul.o(.text)
    __aeabi_ddiv                             0x08006f9d   Thumb Code   222  ddiv.o(.text)
    __aeabi_i2f                              0x0800707b   Thumb Code    18  fflti.o(.text)
    __aeabi_ui2f                             0x0800708d   Thumb Code    10  ffltui.o(.text)
    __aeabi_i2d                              0x08007097   Thumb Code    34  dflti.o(.text)
    __aeabi_f2iz                             0x080070b9   Thumb Code    50  ffixi.o(.text)
    __aeabi_f2uiz                            0x080070eb   Thumb Code    40  ffixui.o(.text)
    __aeabi_f2d                              0x08007113   Thumb Code    38  f2d.o(.text)
    __aeabi_d2f                              0x08007139   Thumb Code    56  d2f.o(.text)
    __aeabi_cfcmpeq                          0x08007171   Thumb Code     0  cfcmple.o(.text)
    __aeabi_cfcmple                          0x08007171   Thumb Code    20  cfcmple.o(.text)
    __aeabi_cfrcmple                         0x08007185   Thumb Code    20  cfrcmple.o(.text)
    __aeabi_uldivmod                         0x08007199   Thumb Code    98  uldiv.o(.text)
    __aeabi_llsl                             0x080071fb   Thumb Code    30  llshl.o(.text)
    _ll_shift_l                              0x080071fb   Thumb Code     0  llshl.o(.text)
    __aeabi_lasr                             0x08007219   Thumb Code    36  llsshr.o(.text)
    _ll_sshift_r                             0x08007219   Thumb Code     0  llsshr.o(.text)
    __I$use$fp                               0x0800723d   Thumb Code     0  iusefp.o(.text)
    _float_round                             0x0800723d   Thumb Code    18  fepilogue.o(.text)
    _float_epilogue                          0x0800724f   Thumb Code    92  fepilogue.o(.text)
    _double_round                            0x080072ab   Thumb Code    30  depilogue.o(.text)
    _double_epilogue                         0x080072c9   Thumb Code   156  depilogue.o(.text)
    __ARM_scalbn                             0x08007365   Thumb Code    46  dscalb.o(.text)
    scalbn                                   0x08007365   Thumb Code     0  dscalb.o(.text)
    __scatterload                            0x08007395   Thumb Code    28  init.o(.text)
    __scatterload_rt2                        0x08007395   Thumb Code     0  init.o(.text)
    __aeabi_llsr                             0x080073b9   Thumb Code    32  llushr.o(.text)
    _ll_ushift_r                             0x080073b9   Thumb Code     0  llushr.o(.text)
    _dsqrt                                   0x080073d9   Thumb Code   162  dsqrt.o(.text)
    __0printf$8                              0x0800747d   Thumb Code    22  printf8.o(i.__0printf$8)
    __1printf$8                              0x0800747d   Thumb Code     0  printf8.o(i.__0printf$8)
    __2printf                                0x0800747d   Thumb Code     0  printf8.o(i.__0printf$8)
    __ARM_fpclassify                         0x0800749d   Thumb Code    40  fpclassify.o(i.__ARM_fpclassify)
    __kernel_poly                            0x080074c5   Thumb Code   170  poly.o(i.__kernel_poly)
    __mathlib_dbl_infnan                     0x0800756f   Thumb Code     6  dunder.o(i.__mathlib_dbl_infnan)
    __mathlib_dbl_infnan2                    0x08007575   Thumb Code     4  dunder.o(i.__mathlib_dbl_infnan2)
    __mathlib_dbl_invalid                    0x08007579   Thumb Code    12  dunder.o(i.__mathlib_dbl_invalid)
    __mathlib_dbl_underflow                  0x08007585   Thumb Code    10  dunder.o(i.__mathlib_dbl_underflow)
    __scatterload_copy                       0x08007595   Thumb Code    14  handlers.o(i.__scatterload_copy)
    __scatterload_null                       0x080075a3   Thumb Code     2  handlers.o(i.__scatterload_null)
    __scatterload_zeroinit                   0x080075a5   Thumb Code    14  handlers.o(i.__scatterload_zeroinit)
    __set_errno                              0x080075b5   Thumb Code     6  errno.o(i.__set_errno)
    asin                                     0x08007a25   Thumb Code   572  asin.o(i.asin)
    atan                                     0x08007c95   Thumb Code   474  atan.o(i.atan)
    atan2                                    0x08007eb5   Thumb Code   346  atan2.o(i.atan2)
    sqrt                                     0x08008035   Thumb Code    76  sqrt.o(i.sqrt)
    reg                                      0x08008c78   Data          27  inv_mpu.o(.constdata)
    hw                                       0x08008c94   Data          12  inv_mpu.o(.constdata)
    test                                     0x08008ca0   Data          40  inv_mpu.o(.constdata)
    F8X16                                    0x08008cc8   Data        1520  gui.o(.constdata)
    cfont16                                  0x080092b8   Data          34  gui.o(.constdata)
    cfont24                                  0x080092da   Data          74  gui.o(.constdata)
    cfont32                                  0x08009324   Data         130  gui.o(.constdata)
    __mathlib_zero                           0x08009490   Data           8  qnan.o(.constdata)
    Region$$Table$$Base                      0x080094e8   Number         0  anon$$obj.o(Region$$Table)
    Region$$Table$$Limit                     0x08009508   Number         0  anon$$obj.o(Region$$Table)
    encoder_left                             0x20000000   Data           4  main.o(.data)
    encoder_right                            0x20000004   Data           4  main.o(.data)
    counter                                  0x20000008   Data           1  main.o(.data)
    state                                    0x20000009   Data           1  main.o(.data)
    pitch                                    0x2000000c   Data           4  main.o(.data)
    roll                                     0x20000010   Data           4  main.o(.data)
    yaw                                      0x20000014   Data           4  main.o(.data)
    gyrox                                    0x20000018   Data           2  main.o(.data)
    gyroy                                    0x2000001a   Data           2  main.o(.data)
    gyroz                                    0x2000001c   Data           2  main.o(.data)
    aacx                                     0x2000001e   Data           2  main.o(.data)
    aacy                                     0x20000020   Data           2  main.o(.data)
    aacz                                     0x20000022   Data           2  main.o(.data)
    Encoder_Left                             0x20000024   Data           4  main.o(.data)
    Encoder_Right                            0x20000028   Data           4  main.o(.data)
    kp                                       0x2000002c   Data           4  main.o(.data)
    SystemCoreClock                          0x2000003c   Data           4  system_stm32f10x.o(.data)
    AHBPrescTable                            0x20000040   Data          16  system_stm32f10x.o(.data)
    Moto1                                    0x20000088   Data           4  motor.o(.data)
    Moto2                                    0x2000008c   Data           4  motor.o(.data)
    __stdout                                 0x200000a0   Data           4  usart.o(.data)
    USART_RX_BUF                             0x200000a4   Data           5  usart.o(.data)
    USART_RX_STA                             0x200000aa   Data           2  usart.o(.data)
    Flag_Qian                                0x200000ac   Data           1  usart.o(.data)
    Flag_Hou                                 0x200000ad   Data           1  usart.o(.data)
    Flag_Left                                0x200000ae   Data           1  usart.o(.data)
    Flag_Right                               0x200000af   Data           1  usart.o(.data)
    pid                                      0x200004d8   Data          52  pid.o(.bss)
    __initial_sp                             0x20000910   Data           0  startup_stm32f10x_hd.o(STACK)



==============================================================================

Memory Map of the image

  Image Entry point : 0x08000131

  Load Region LR_IROM1 (Base: 0x08000000, Size: 0x000095d0, Max: 0x00010000, ABSOLUTE)

    Execution Region ER_IROM1 (Exec base: 0x08000000, Load base: 0x08000000, Size: 0x00009508, Max: 0x00010000, ABSOLUTE)

    Exec Addr    Load Addr    Size         Type   Attr      Idx    E Section Name        Object

    0x08000000   0x08000000   0x00000130   Data   RO          480    RESET               startup_stm32f10x_hd.o
    0x08000130   0x08000130   0x00000000   Code   RO          577  * .ARM.Collect$$$$00000000  mc_w.l(entry.o)
    0x08000130   0x08000130   0x00000004   Code   RO          914    .ARM.Collect$$$$00000001  mc_w.l(entry2.o)
    0x08000134   0x08000134   0x00000004   Code   RO          917    .ARM.Collect$$$$00000004  mc_w.l(entry5.o)
    0x08000138   0x08000138   0x00000000   Code   RO          919    .ARM.Collect$$$$00000008  mc_w.l(entry7b.o)
    0x08000138   0x08000138   0x00000000   Code   RO          921    .ARM.Collect$$$$0000000A  mc_w.l(entry8b.o)
    0x08000138   0x08000138   0x00000008   Code   RO          922    .ARM.Collect$$$$0000000B  mc_w.l(entry9a.o)
    0x08000140   0x08000140   0x00000000   Code   RO          924    .ARM.Collect$$$$0000000D  mc_w.l(entry10a.o)
    0x08000140   0x08000140   0x00000000   Code   RO          926    .ARM.Collect$$$$0000000F  mc_w.l(entry11a.o)
    0x08000140   0x08000140   0x00000004   Code   RO          915    .ARM.Collect$$$$00002712  mc_w.l(entry2.o)
    0x08000144   0x08000144   0x000003b0   Code   RO            1    .text               main.o
    0x080004f4   0x080004f4   0x0000001a   Code   RO          150    .text               stm32f10x_it.o
    0x0800050e   0x0800050e   0x00000002   PAD
    0x08000510   0x08000510   0x000001e0   Code   RO          191    .text               system_stm32f10x.o
    0x080006f0   0x080006f0   0x00000274   Code   RO          209    .text               mpuiic.o
    0x08000964   0x08000964   0x00000370   Code   RO          221    .text               mpu6050.o
    0x08000cd4   0x08000cd4   0x00000d70   Code   RO          233    .text               inv_mpu_dmp_motion_driver.o
    0x08001a44   0x08001a44   0x0000228c   Code   RO          270    .text               inv_mpu.o
    0x08003cd0   0x08003cd0   0x000002ec   Code   RO          294    .text               oled.o
    0x08003fbc   0x08003fbc   0x000002dc   Code   RO          317    .text               motor.o
    0x08004298   0x08004298   0x00000240   Code   RO          332    .text               encoder.o
    0x080044d8   0x080044d8   0x00000210   Code   RO          345    .text               pid.o
    0x080046e8   0x080046e8   0x00000044   Code   RO          365    .text               spi.o
    0x0800472c   0x0800472c   0x000006d8   Code   RO          377    .text               gui.o
    0x08004e04   0x08004e04   0x000000d4   Code   RO          414    .text               delay.o
    0x08004ed8   0x08004ed8   0x00000240   Code   RO          445    .text               usart.o
    0x08005118   0x08005118   0x00000024   Code   RO          481    .text               startup_stm32f10x_hd.o
    0x0800513c   0x0800513c   0x0000035c   Code   RO          485    .text               stm32f10x_gpio.o
    0x08005498   0x08005498   0x000003a4   Code   RO          497    .text               stm32f10x_rcc.o
    0x0800583c   0x0800583c   0x00000408   Code   RO          511    .text               stm32f10x_usart.o
    0x08005c44   0x08005c44   0x000000dc   Code   RO          523    .text               misc.o
    0x08005d20   0x08005d20   0x00000e1a   Code   RO          535    .text               stm32f10x_tim.o
    0x08006b3a   0x08006b3a   0x00000062   Code   RO          580    .text               mc_w.l(ldiv.o)
    0x08006b9c   0x08006b9c   0x00000024   Code   RO          582    .text               mc_w.l(memseta.o)
    0x08006bc0   0x08006bc0   0x0000001a   Code   RO          584    .text               mc_w.l(memcmp.o)
    0x08006bda   0x08006bda   0x000000b0   Code   RO          847    .text               mf_w.l(fadd.o)
    0x08006c8a   0x08006c8a   0x00000064   Code   RO          849    .text               mf_w.l(fmul.o)
    0x08006cee   0x08006cee   0x0000007c   Code   RO          851    .text               mf_w.l(fdiv.o)
    0x08006d6a   0x08006d6a   0x0000014e   Code   RO          853    .text               mf_w.l(dadd.o)
    0x08006eb8   0x08006eb8   0x000000e4   Code   RO          855    .text               mf_w.l(dmul.o)
    0x08006f9c   0x08006f9c   0x000000de   Code   RO          857    .text               mf_w.l(ddiv.o)
    0x0800707a   0x0800707a   0x00000012   Code   RO          859    .text               mf_w.l(fflti.o)
    0x0800708c   0x0800708c   0x0000000a   Code   RO          861    .text               mf_w.l(ffltui.o)
    0x08007096   0x08007096   0x00000022   Code   RO          863    .text               mf_w.l(dflti.o)
    0x080070b8   0x080070b8   0x00000032   Code   RO          865    .text               mf_w.l(ffixi.o)
    0x080070ea   0x080070ea   0x00000028   Code   RO          867    .text               mf_w.l(ffixui.o)
    0x08007112   0x08007112   0x00000026   Code   RO          869    .text               mf_w.l(f2d.o)
    0x08007138   0x08007138   0x00000038   Code   RO          871    .text               mf_w.l(d2f.o)
    0x08007170   0x08007170   0x00000014   Code   RO          873    .text               mf_w.l(cfcmple.o)
    0x08007184   0x08007184   0x00000014   Code   RO          875    .text               mf_w.l(cfrcmple.o)
    0x08007198   0x08007198   0x00000062   Code   RO          930    .text               mc_w.l(uldiv.o)
    0x080071fa   0x080071fa   0x0000001e   Code   RO          932    .text               mc_w.l(llshl.o)
    0x08007218   0x08007218   0x00000024   Code   RO          934    .text               mc_w.l(llsshr.o)
    0x0800723c   0x0800723c   0x00000000   Code   RO          943    .text               mc_w.l(iusefp.o)
    0x0800723c   0x0800723c   0x0000006e   Code   RO          944    .text               mf_w.l(fepilogue.o)
    0x080072aa   0x080072aa   0x000000ba   Code   RO          946    .text               mf_w.l(depilogue.o)
    0x08007364   0x08007364   0x0000002e   Code   RO          948    .text               mf_w.l(dscalb.o)
    0x08007392   0x08007392   0x00000002   PAD
    0x08007394   0x08007394   0x00000024   Code   RO          954    .text               mc_w.l(init.o)
    0x080073b8   0x080073b8   0x00000020   Code   RO          956    .text               mc_w.l(llushr.o)
    0x080073d8   0x080073d8   0x000000a2   Code   RO          958    .text               mf_w.l(dsqrt.o)
    0x0800747a   0x0800747a   0x00000002   PAD
    0x0800747c   0x0800747c   0x00000020   Code   RO          793    i.__0printf$8       mc_w.l(printf8.o)
    0x0800749c   0x0800749c   0x00000028   Code   RO          901    i.__ARM_fpclassify  m_ws.l(fpclassify.o)
    0x080074c4   0x080074c4   0x000000aa   Code   RO          903    i.__kernel_poly     m_ws.l(poly.o)
    0x0800756e   0x0800756e   0x00000006   Code   RO          888    i.__mathlib_dbl_infnan  m_ws.l(dunder.o)
    0x08007574   0x08007574   0x00000004   Code   RO          889    i.__mathlib_dbl_infnan2  m_ws.l(dunder.o)
    0x08007578   0x08007578   0x0000000c   Code   RO          890    i.__mathlib_dbl_invalid  m_ws.l(dunder.o)
    0x08007584   0x08007584   0x00000010   Code   RO          893    i.__mathlib_dbl_underflow  m_ws.l(dunder.o)
    0x08007594   0x08007594   0x0000000e   Code   RO          964    i.__scatterload_copy  mc_w.l(handlers.o)
    0x080075a2   0x080075a2   0x00000002   Code   RO          965    i.__scatterload_null  mc_w.l(handlers.o)
    0x080075a4   0x080075a4   0x0000000e   Code   RO          966    i.__scatterload_zeroinit  mc_w.l(handlers.o)
    0x080075b2   0x080075b2   0x00000002   PAD
    0x080075b4   0x080075b4   0x0000000c   Code   RO          938    i.__set_errno       mc_w.l(errno.o)
    0x080075c0   0x080075c0   0x00000410   Code   RO          800    i._printf_core      mc_w.l(printf8.o)
    0x080079d0   0x080079d0   0x00000024   Code   RO          801    i._printf_post_padding  mc_w.l(printf8.o)
    0x080079f4   0x080079f4   0x0000002e   Code   RO          802    i._printf_pre_padding  mc_w.l(printf8.o)
    0x08007a22   0x08007a22   0x00000002   PAD
    0x08007a24   0x08007a24   0x00000270   Code   RO          560    i.asin              m_ws.l(asin.o)
    0x08007c94   0x08007c94   0x00000220   Code   RO          878    i.atan              m_ws.l(atan.o)
    0x08007eb4   0x08007eb4   0x00000180   Code   RO          570    i.atan2             m_ws.l(atan2.o)
    0x08008034   0x08008034   0x0000004c   Code   RO          907    i.sqrt              m_ws.l(sqrt.o)
    0x08008080   0x08008080   0x00000bf6   Data   RO          235    .constdata          inv_mpu_dmp_motion_driver.o
    0x08008c76   0x08008c76   0x00000002   PAD
    0x08008c78   0x08008c78   0x00000050   Data   RO          271    .constdata          inv_mpu.o
    0x08008cc8   0x08008cc8   0x000006de   Data   RO          378    .constdata          gui.o
    0x080093a6   0x080093a6   0x00000002   PAD
    0x080093a8   0x080093a8   0x00000050   Data   RO          561    .constdata          m_ws.l(asin.o)
    0x080093f8   0x080093f8   0x00000098   Data   RO          879    .constdata          m_ws.l(atan.o)
    0x08009490   0x08009490   0x00000008   Data   RO          905    .constdata          m_ws.l(qnan.o)
    0x08009498   0x08009498   0x0000004d   Data   RO          272    .conststring        inv_mpu.o
    0x080094e5   0x080094e5   0x00000003   PAD
    0x080094e8   0x080094e8   0x00000020   Data   RO          962    Region$$Table       anon$$obj.o


    Execution Region RW_IRAM1 (Exec base: 0x20000000, Load base: 0x08009508, Size: 0x00000910, Max: 0x00005000, ABSOLUTE)

    Exec Addr    Load Addr    Size         Type   Attr      Idx    E Section Name        Object

    0x20000000   0x08009508   0x0000003c   Data   RW            2    .data               main.o
    0x2000003c   0x08009544   0x00000014   Data   RW          192    .data               system_stm32f10x.o
    0x20000050   0x08009558   0x00000035   Data   RW          273    .data               inv_mpu.o
    0x20000085   0x0800958d   0x00000003   PAD
    0x20000088   0x08009590   0x00000008   Data   RW          318    .data               motor.o
    0x20000090   0x08009598   0x0000000c   Data   RW          347    .data               pid.o
    0x2000009c   0x080095a4   0x00000004   Data   RW          415    .data               delay.o
    0x200000a0   0x080095a8   0x00000010   Data   RW          446    .data               usart.o
    0x200000b0   0x080095b8   0x00000014   Data   RW          498    .data               stm32f10x_rcc.o
    0x200000c4   0x080095cc   0x00000004   Data   RW          939    .data               mc_w.l(errno.o)
    0x200000c8        -       0x00000010   Zero   RW          234    .bss                inv_mpu_dmp_motion_driver.o
    0x200000d8        -       0x00000400   Zero   RW          295    .bss                oled.o
    0x200004d8        -       0x00000034   Zero   RW          346    .bss                pid.o
    0x2000050c   0x080095d0   0x00000004   PAD
    0x20000510        -       0x00000400   Zero   RW          478    STACK               startup_stm32f10x_hd.o


==============================================================================

Image component sizes


      Code (inc. data)   RO Data    RW Data    ZI Data      Debug   Object Name

       212         18          0          4          0       1027   delay.o
       576         18          0          0          0       1999   encoder.o
      1752         18       1758          0          0       7507   gui.o
      8844        196        157         53          0      24001   inv_mpu.o
      3440        126       3062          0         16      15431   inv_mpu_dmp_motion_driver.o
       944        154          0         60          0     253185   main.o
       220         22          0          0          0       1785   misc.o
       732         38          0          8          0       2886   motor.o
       880         20          0          0          0       4375   mpu6050.o
       628         14          0          0          0       2062   mpuiic.o
       748         12          0          0       1024       3190   oled.o
       528         60          0         12         52       2095   pid.o
        68          4          0          0          0        564   spi.o
        36          8        304          0       1024        772   startup_stm32f10x_hd.o
       860         38          0          0          0       5717   stm32f10x_gpio.o
        26          0          0          0          0       1174   stm32f10x_it.o
       932         36          0         20          0       8888   stm32f10x_rcc.o
      3610         88          0          0          0      22824   stm32f10x_tim.o
      1032         22          0          0          0       8444   stm32f10x_usart.o
         0          0          0          0          0         32   sys.o
       480         38          0         20          0       1719   system_stm32f10x.o
       576         28          0         16          0       4087   usart.o

    ----------------------------------------------------------------------
     27126        958       5320        196       2120     373764   Object Totals
         0          0         32          0          0          0   (incl. Generated)
         2          0          7          3          4          0   (incl. Padding)

    ----------------------------------------------------------------------

      Code (inc. data)   RO Data    RW Data    ZI Data      Debug   Library Member Name

       624         52         80          0          0        168   asin.o
       544         70        152          0          0        124   atan.o
       384         38          0          0          0        144   atan2.o
        38          6          0          0          0        272   dunder.o
        40          0          0          0          0         68   fpclassify.o
       170          0          0          0          0         96   poly.o
         0          0          8          0          0          0   qnan.o
        76          0          0          0          0         84   sqrt.o
         0          0          0          0          0          0   entry.o
         0          0          0          0          0          0   entry10a.o
         0          0          0          0          0          0   entry11a.o
         8          4          0          0          0          0   entry2.o
         4          0          0          0          0          0   entry5.o
         0          0          0          0          0          0   entry7b.o
         0          0          0          0          0          0   entry8b.o
         8          4          0          0          0          0   entry9a.o
        12          6          0          4          0         68   errno.o
        30          0          0          0          0          0   handlers.o
        36          8          0          0          0         68   init.o
         0          0          0          0          0          0   iusefp.o
        98          0          0          0          0         84   ldiv.o
        30          0          0          0          0         68   llshl.o
        36          0          0          0          0         68   llsshr.o
        32          0          0          0          0         68   llushr.o
        26          0          0          0          0         80   memcmp.o
        36          0          0          0          0        108   memseta.o
      1154         54          0          0          0        352   printf8.o
        98          0          0          0          0         92   uldiv.o
        20          0          0          0          0         68   cfcmple.o
        20          0          0          0          0         68   cfrcmple.o
        56          0          0          0          0         88   d2f.o
       334          0          0          0          0        148   dadd.o
       222          0          0          0          0        100   ddiv.o
       186          0          0          0          0        176   depilogue.o
        34          0          0          0          0         76   dflti.o
       228          0          0          0          0         96   dmul.o
        46          0          0          0          0         80   dscalb.o
       162          0          0          0          0        100   dsqrt.o
        38          0          0          0          0         68   f2d.o
       176          0          0          0          0        140   fadd.o
       124          0          0          0          0         88   fdiv.o
       110          0          0          0          0        168   fepilogue.o
        50          0          0          0          0         68   ffixi.o
        40          0          0          0          0         68   ffixui.o
        18          0          0          0          0         68   fflti.o
        10          0          0          0          0         68   ffltui.o
       100          0          0          0          0         76   fmul.o

    ----------------------------------------------------------------------
      5466        242        240          4          0       3824   Library Totals
         8          0          0          0          0          0   (incl. Padding)

    ----------------------------------------------------------------------

      Code (inc. data)   RO Data    RW Data    ZI Data      Debug   Library Name

      1876        166        240          0          0        956   m_ws.l
      1608         76          0          4          0       1056   mc_w.l
      1974          0          0          0          0       1812   mf_w.l

    ----------------------------------------------------------------------
      5466        242        240          4          0       3824   Library Totals

    ----------------------------------------------------------------------

==============================================================================


      Code (inc. data)   RO Data    RW Data    ZI Data      Debug   

     32592       1200       5560        200       2120     373892   Grand Totals
     32592       1200       5560        200       2120     373892   ELF Image Totals
     32592       1200       5560        200          0          0   ROM Totals

==============================================================================

    Total RO  Size (Code + RO Data)                38152 (  37.26kB)
    Total RW  Size (RW Data + ZI Data)              2320 (   2.27kB)
    Total ROM Size (Code + RO Data + RW Data)      38352 (  37.45kB)

==============================================================================

