:020000040800F2
:100000001009002019510008F5040008F704000841
:10001000FB040008FF0400080305000800000000BE
:1000200000000000000000000000000007050008BC
:1000300009050008000000000B0500080D05000878
:100040003351000833510008335100083351000880
:100050003351000833510008335100083351000870
:100060003351000833510008335100083351000860
:100070003351000833510008335100083351000850
:100080003351000833510008335100083351000840
:100090003351000833510008335100083351000830
:1000A0003351000833510008335100083351000820
:1000B000AF4400082F44000897440008335100085B
:1000C0003351000833510008335100083351000800
:1000D00033510008335100083350000833510008F1
:1000E00033510008335100083351000833510008E0
:1000F00033510008335100083351000833510008D0
:1001000033510008335100083351000833510008BF
:1001100033510008335100083351000833510008AF
:10012000335100083351000833510008335100089F
:10013000DFF80CD007F02EF9004800475D010008F9
:100140001009002010B5C54AC549C64800F060FD39
:10015000C54AC649C64800F033FD10BD1CB54FF472
:10016000A06005F06FFD04F04DFE03F0B4FE00202A
:1001700003F067FE01201023BEA21A210090022086
:1001800004F0AEFB4FF4165004F0B9FE0AE0002074
:1001900003F057FE01201023B9A21A21009002207B
:1001A00004F09EFB00F066FC0028F0D10AE000207D
:1001B00003F047FE01201023B4A20A210090022080
:1001C00004F08EFB03F020FC0028F0D103F039FE90
:1001D000002141F61F4003F005FF04F0AAF804F0E7
:1001E0005BF8472142F2107004F0EDF804F074F966
:1001F0001CE00021A848006806F0BAFF05D2A64816
:10020000006880F00040A4490860A348006806F038
:100210006CFF04460120102103232246CDE9001083
:10022000014604F095FB322004F029FEE1E72DE9B8
:10023000F0419A4A9A49984803F033FC002876D155
:10024000FFF780FF022004F0FFF8964908600420C1
:1002500004F0FAF89449086094498F48006806F061
:1002600014FD934948609348007830B9924800786B
:1002700018B900209149086024E08E4800780128D0
:100280000ED18E48006806F044FF064600228C4BD3
:1002900006F06BFD044606F04FFF8849086011E048
:1002A0008548007801280DD18448006806F031FFA8
:1002B00006460022824B06F0F9FD044606F03CFF9C
:1002C0007E4908607F497D48006806F05BFF02D2E6
:1002D0007C487A4908607C497848006806F048FF05
:1002E00002D27948754908607448006806F0E4FE57
:1002F0006F4908627548007830B97548007818B9B8
:1003000000207449086025E07048007801280FD16A
:100310007048006806F0FDFE06466F4A6F4B06F017
:1003200024FD044606F008FF6A49086012E092E0E6
:100330006748007801280DD16648006806F0E9FE9C
:100340000646654A654B06F0B1FD044606F0F4FE2C
:100350006049086062495F48006806F013FF02D2F6
:100360005F485C4908605F495A48006806F000FF32
:1003700002D25C48574908605448007830B9544864
:10038000007818B900204A4908630AE04F4800780D
:10039000012803D04E480078012802D100204449AA
:1003A00008634C48006806F087FE044621462E4844
:1003B000B0F90000F03004F057F94B4908603C49AF
:1003C000486804F0A1F804463748016835480068D9
:1003D00004F0C6F8204444490968084443490860C9
:1003E0003349486804F090F804462F4801682D48C6
:1003F000006804F0B5F820443B490968401A3C49BC
:1004000008603A480068002806DA38480068A0F614
:10041000B8303649086005E03448006800F6B83066
:100420003249086032480068002806DA304800681F
:10043000A0F6B8302E49086005E02D48006800F6A7
:10044000B8302B49086003F067FE29480168274847
:10045000006803F02BFEBDE8F081000022000020C0
:10046000200000201E0000201C0000201A00002098
:10047000180000206C6F6164696E672E2E2E0000DC
:100480006D707520206572726F720000646D70204F
:10049000206572726F7200000C00002014000020B2
:1004A000100000202400002028000020000020412F
:1004B000D8040020AC000020AD0000203000002057
:1004C0000000E03F00007041000070C1AE0000205D
:1004D000AF000020340000209A9999999999C93F5A
:1004E00000000C4200000CC23800002088000020F0
:1004F0008C000020704700BFFEE700BFFEE700BF92
:10050000FEE700BFFEE77047704770477047000086
:100510000CB50020019000906C48006840F48030D9
:100520006A49086000BF6948006800F40030009024
:100530000198401C0190009818B90198B0F5A06F7F
:10054000F1D16248006800F4003010B10120009041
:1005500001E0002000900098012843D15C48006829
:1005600040F010005A4908600846006820F0030077
:1005700008600846006840F0020008605348406880
:10058000524948600846406848600846406840F460
:10059000806048600846406820F47C104860084647
:1005A000406840F4E81048600846006840F08070F9
:1005B000086000BF4548006800F000700028F9D0CE
:1005C0004248406820F003004049486008464068BF
:1005D00040F00200486000BF3C48406800F00C005A
:1005E0000828F9D10CBD10B5FFF792FF10BD10B56A
:1005F0003648006840F00100344908600846406809
:10060000344908403149486008460068324908408A
:100610002E4908600846006820F4802008600846DB
:10062000406820F4FE0048604FF41F008860FFF728
:10063000DAFF4FF000602949086010BD10B50021B5
:1006400000200022214B5B6803F00C0121B104293A
:1006500006D0082928D107E0214B224C236027E04F
:100660001F4B204C236023E0184B5B6803F4701091
:10067000164B5B6803F48032022303EB904022B9EF
:10068000194B4343174C23600DE0104B5B6803F498
:10069000003323B1144B4343124C236003E0104B4F
:1006A0004343104C236003E00D4B0E4C236000BF0E
:1006B00000BF064B5B68C3F303130C4CE15C094BB2
:1006C0001B68CB40074C236010BD000000100240A7
:1006D000002002400000FFF8FFFFF6FE08ED00E0FA
:1006E00000127A003C00002000093D00400000207C
:1006F00010B5022004F09FFB10BD08B501210820B1
:1007000005F038F84FF44270ADF8000010208DF875
:10071000030003208DF8020069468F4804F06EFD47
:100720004FF440718C4804F016FE08218A4804F00A
:1007300014FE08BD10B58848001D006820F0F000C8
:100740008549091D08600846006840F030000860CF
:100750000120824908608249C1F8A001FFF7C8FF63
:1007600000207E490860FFF7C3FF00207C49C1F8E4
:10077000A00110BD10B57848001D006820F0F00001
:100780007549091D08600846006840F0300008609F
:1007900000207249091F08607149C1F8A401FFF7E0
:1007A000A7FF01206D49091F08606D49C1F8A40128
:1007B000FFF79EFF10BD10B500246748001D0068BC
:1007C00020F0F0006449091D08600846006840F008
:1007D00080000860012061490860FFF789FF01205F
:1007E0005F49C1F8A001FFF783FF07E0601CC4B2B6
:1007F000FA2C03DDFFF7BEFF012010BD57488038FB
:1008000000680028F2D15549091F086000BFF4E7CD
:1008100010B500205149091F08604F48001D0068AD
:1008200020F0F0004C49091D08600846006840F0BF
:100830003000086000204A49C1F8A401FFF758FFC2
:1008400001204649091F0860FFF752FF0020444974
:10085000C1F8A00110BD10B500204049091F086073
:100860003D48001D006820F0F0003B49091D08606C
:100870000846006840F03000086001203849C1F89F
:10088000A401FFF735FF01203449091F0860FFF775
:100890002FFF00203249C1F8A00110BD70B50446F9
:1008A0002D48001D006820F0F0002B49091D08604C
:1008B0000846006840F03000086000202749091F02
:1008C0000860002512E0E009244908606006040E73
:1008D00001202349C1F8A001FFF70AFF00201F49AA
:1008E000091F0860FFF704FF681CC5B2082DEADB8A
:1008F00070BD70B5054600241748001D006820F043
:10090000F0001549091D08600846006840F08000A5
:100910000860002615E000201049091F0860FFF755
:10092000E7FE01200E49C1F8A0016006040E0B4845
:100930008038006808B1601CC4B2FFF7D9FE701C93
:10094000C6B2082EE7DB15B9FFF785FF01E0FFF718
:100950005FFF204670BD0000000C0140A4812142D1
:100960000080214270B505460C46FFF7E3FED0201B
:10097000FFF794FFFFF71FFF18B1FFF7FBFE012001
:1009800070BD2846FFF78AFFFFF715FF2046FFF7E7
:1009900085FFFFF710FF18B1FFF7ECFE0120EFE72E
:1009A000FFF7E8FE0020EBE770B504460025BC2CFD
:1009B00001DB012510E0622C01DB02250CE02A2C72
:1009C00001DB032508E0142C01DB042504E00A2CDC
:1009D00001DB052500E0062529461A20FFF7C2FFA6
:1009E00070BD70B50446B4F57A7F01DD4FF47A74BA
:1009F000042C00DA04244FF47A7090FBF4F0401ECB
:100A0000C5B229461920FFF7ADFF0546264604EB7F
:100A1000D671C1F34F00FFF7C7FF70BD70B5044634
:100A2000FFF788FED020FFF739FFFFF7C4FE20460E
:100A3000FFF734FFFFF7BFFEFFF77CFED120FFF783
:100A40002DFFFFF7B8FE0020FFF753FF0546FFF725
:100A500091FE284670BD10B5044621461C20FFF7C4
:100A600081FF10BD10B50446E006010E1B20FFF704
:100A700079FF10BD10B5FFF740FE80216B20FFF716
:100A800071FF642004F0FBF900216B20FFF76AFF7F
:100A90000320FFF7E7FF0020FFF7DDFF3220FFF71D
:100AA000A0FF00213820FFF75DFF00216A20FFF73B
:100AB00059FF00212320FFF755FF80213720FFF742
:100AC00051FF7520FFF7AAFF044621467C4804F039
:100AD000F1FF682C0BD101216B20FFF743FF0021B0
:100AE0006C20FFF73FFF3220FFF77BFF01E0012082
:100AF00010BD0020FCE72DE9F04106460F461446E4
:100B00001D46FFF717FE002141EA4601C8B2FFF774
:100B1000C5FEFFF750FE20B1FFF72CFE0120BDE817
:100B2000F0813846FFF7BAFEFFF745FEFFF702FEF9
:100B3000012101EB4601C8B2FFF7B0FEFFF73BFE13
:100B40000DE0012C04D10020FFF7D3FE287003E054
:100B50000120FFF7CEFE2870601EC4B26D1C002C71
:100B6000EFD1FFF707FE0020D9E72DE9F84F6B46DC
:100B7000022241216820FFF7BEFF9DF801009DF889
:100B8000001040EA01200FFA80FA504606F083FA7E
:100B9000804600224B4B06F001FA06464A4A4B4B70
:100BA00006F0E3F8044606F0C7FA8346484958467B
:100BB00006F06BF8044606F07FFA00B2BDE8F88F45
:100BC0002DE9FC4104460D4616466B46062243219C
:100BD0006820FFF790FF0746BFB99DF801009DF818
:100BE000001040EA012000B220809DF803009DF82B
:100BF000021040EA012000B228809DF805009DF80F
:100C0000041040EA012000B230803846BDE8FC8183
:100C10002DE9FC4104460D4616466B4606223B2153
:100C20006820FFF768FF0746BFB99DF801009DF8EF
:100C3000001040EA012000B220809DF803009DF8DA
:100C4000021040EA012000B228809DF805009DF8BE
:100C5000041040EA012000B230803846BDE8FC8133
:100C60002DE9F04105460E4617469846FFF762FD0E
:100C7000002141EA4501C8B2FFF710FEFFF79BFDD6
:100C800020B1FFF777FD0120BDE8F0813046FFF786
:100C900005FEFFF790FD00240CE018F80400FFF7B4
:100CA000FDFDFFF788FD18B1FFF764FD0120EBE7BC
:100CB000601CC4B2BC42F0DBFFF75CFD0020E3E740
:100CC0000038014000407540A4703D0AD7434240BF
:100CD0000000C84210B5C8234FF48062F74940F6BF
:100CE000F63002F09BFC10BD10B586B00446F4A0AF
:100CF00000680390F3A000680290F3A000680190E0
:100D0000F2A00068009004F0030003A9085C8DF8CD
:100D1000140003A8C4F3C101405C8DF8150003A8BA
:100D2000C4F38111405C8DF8160004F0030002A9A1
:100D3000085C8DF8100002A8C4F3C101405C8DF876
:100D4000110002A8C4F38111405C8DF8120005AABD
:100D5000032140F2264002F0E7FB18B14FF0FF30CC
:100D600006B010BD04AA032140F22A4002F0DCFBC9
:100D700010B14FF0FF30F3E7019805900098049010
:100D800004F0040058B19DF8140040F001008DF803
:100D900014009DF8100040F001008DF8100004F0E0
:100DA000200058B19DF8150040F001008DF81500A5
:100DB0009DF8110040F001008DF8110004F48070DE
:100DC00058B19DF8160040F001008DF816009DF80E
:100DD000120040F001008DF8120005AA03214FF423
:100DE000886002F0A1FB10B14FF0FF30B8E704AA11
:100DF000032140F2314002F097FB10B14FF0FF3079
:100E0000AEE7B34804810020AAE71FB50446B04806
:100E1000007A00F0030054F820000190AC48007AFA
:100E200000F0040010B1019840420190A848007AF7
:100E3000C0F3C10054F820000290A548007A00F0E9
:100E4000200010B1029840420290A148007AC0F3FD
:100E5000811054F8200003909D48008900F48070B0
:100E600010B10398404203909A49019880FB010118
:100E7000800F40EA810001909649029880FB0110A2
:100E8000820042EA917002909249039880FB01101F
:100E9000820042EA917003900198000E8DF80000E4
:100EA0000198000C8DF801000198000A8DF80200ED
:100EB0000198C0B28DF803006A4604214FF47470A3
:100EC00002F032FB18B14FF0FF3004B010BD0298B1
:100ED000000E8DF800000298000C8DF801000298B9
:100EE000000A8DF802000298C0B28DF803006A462D
:100EF00004214FF4757002F017FB10B14FF0FF3072
:100F0000E3E70398000E8DF800000398000C8DF8BD
:100F100001000398000A8DF802000398C0B28DF812
:100F200003006A4604214FF4767002F0FDFACCE724
:100F300070B588B0064601A801F0FDFCBDF80400BC
:100F40000021C90341EA5045C4036148007A00F01A
:100F5000030056F8200005905D48007A00F0040078
:100F600010B10598404205905948007AC0F3C1007D
:100F700056F8200006905648007A00F0200010B184
:100F80000698404206905248007AC0F3811056F805
:100F9000200007904E48008900F4807010B1079837
:100FA000404207900598C117A0FB042301FB0431C0
:100FB00000FB0510810041EA927005900698C11768
:100FC000A0FB042301FB043100FB0510810041EA72
:100FD000927006900798C117A0FB042301FB04310F
:100FE00000FB0510810041EA927007900598000E01
:100FF0008DF808000598000C8DF809000598000A86
:101000008DF80A000598C0B28DF80B000698000E06
:101010008DF80C000698000C8DF80D000698000A5B
:101020008DF80E000698C0B28DF80F000798000EDC
:101030008DF810000798000C8DF811000798000A31
:101040008DF812000798C0B28DF8130002AA0C2187
:101050004FF4257002F068FA08B070BD30B585B065
:1010600004461DA207CA02AB07C3C82C03DD4FF01C
:10107000FF3005B030BDC82090FBF4F0401E85B2B3
:10108000280A8DF80000E8B28DF801006A460221B6
:1010900040F2162002F048FA10B14FF0FF30E8E7B6
:1010A00002AA0C2140F6C12002F03EFA10B14FF026
:1010B000FF30DEE7064884810020DAE78080000800
:1010C0004CCD6C000CC92C003656760026466600C6
:1010D000C800002009E3CA02FEF2ABC4AAF1DFDFB8
:1010E000BBAFDFDF0146FC488089088000207047E5
:1010F0002DE9FC4706460F4606F0070010B1B7F58C
:10110000C86F03DD4FF0FF30BDE8FC87384605F0BF
:10111000BDFF8146F14905F0EAFD8046684601F0D1
:101120008EFB9DF80000022806D0042816D008285F
:1011300026D0102848D135E04FF08D41404605F0CB
:10114000A4FD814605F0D1FF84B2E549404605F093
:101150009CFD814605F0C9FF85B238E04FF08C4117
:10116000404605F092FD814605F0BFFF84B2DD499F
:10117000404605F08AFD814605F0B7FF85B226E0BE
:101180004FF08B41404605F080FD814605F0ADFFF4
:1011900084B2D549404605F078FD814605F0A5FFAB
:1011A00085B214E04FF08A41404605F06EFD81465D
:1011B00005F09BFF84B2CD49404605F066FD8146AF
:1011C00005F093FF85B202E04FF0FF309CE700BFCF
:1011D00020128DF80400E0B28DF8050028128DF879
:1011E0000600E8B28DF8070006F00100A0B101AAE0
:1011F00002214FF4EA7002F097F910B14FF0FF307E
:1012000082E70DF1060202214FF4927002F08CF990
:1012100010B14FF0FF3077E706F00200A0B101AA4D
:1012200002214FF4EC7002F07FF910B14FF0FF3063
:101230006AE70DF1060202214FF4947002F074F98E
:1012400010B14FF0FF305FE706F00400A0B101AA33
:1012500002214FF4EE7002F067F910B14FF0FF3049
:1012600052E70DF1060202214FF4967002F05CF98C
:1012700010B14FF0FF3047E7002045E738B504468E
:101280000020009004F0010020B19DF8000040F023
:101290003000009004F0020020B19DF8000040F002
:1012A0000C00009004F0040020B19DF8000040F014
:1012B000030000906A4601214FF4A47002F034F953
:1012C00038BD38B50446012C01DA012402E0042CB3
:1012D00000DD0424601EC0B200906A46012140F285
:1012E0004F1002F021F938BD38B50446052094FBB3
:1012F000F0F085B228128DF80000E8B28DF80100F8
:101300006A4602214FF4EF7002F00EF938BD38B58D
:101310000446052094FBF0F085B228128DF80000F9
:10132000E8B28DF801006A4602214FF4ED7002F038
:10133000FBF838BDF8B505460E464FF47A7095FBBC
:10134000F0F000FB06F4200E8DF80000200C8DF864
:101350000100200A8DF80200E0B28DF803006A4611
:1013600004214FF4AE7002F0DFF8F8BD38B5044642
:10137000052094FBF0F084B220128DF80000E0B25A
:101380008DF801006A4602214FF4AD7002F0CCF8EE
:1013900038BD38B50446052094FBF0F084B2201225
:1013A0008DF80000E0B28DF801006A4602214FF48A
:1013B000AC7002F0B9F838BD38B5044614B94FF036
:1013C000FF3038BD6A4604214FF4587002F0E9F846
:1013D00010B14FF0FF30F4E79DF8000000069DF8D3
:1013E000011040EA01409DF8021040EA01209DF8FA
:1013F0000310084320600020E3E738B50446200EC0
:101400008DF80000200C8DF80100200A8DF80200F4
:10141000E0B28DF803006A4604214FF4587002F0E0
:1014200083F838BD38B5044614B94FF0FF3038BDE5
:101430006A4604214FF4717002F0B3F810B14FF016
:10144000FF30F4E79DF8000000069DF8011040EA27
:1014500001409DF8021040EA01209DF80310084366
:1014600000EB8000800020600020E0E738B50446F3
:101470001420B4FBF0F4200E8DF80000200C8DF841
:101480000100200A8DF80200E0B28DF803006A46E0
:1014900004214FF4717002F047F838BD38B50446A6
:1014A00064B120208DF8000028208DF80100302044
:1014B0008DF8020038208DF8030004E0A3220421F7
:1014C000684605F06BFB6A46042140F69E2002F058
:1014D0002BF800F083FC38BDC80000200000484312
:1014E000000040460000C045000040450000C044E8
:1014F00038B5044664B1C0208DF80000C2208DF8D4
:101500000100C4208DF80200C6208DF8030004E01D
:101510008B220421684605F041FB6A46042140F60F
:10152000982002F001F800F059FC38BD3EB50446A1
:101530006CB1FDA1D1E900208968CDE900200291BC
:101540006A4609214FF4976001F0EEFF3EBDF9A213
:10155000D2E900109268CDE9010200916A460921A2
:101560004FF4976001F0E0FFF0E73EB5044602203B
:101570008DF80000CA208DF80100E3208DF80200EC
:1015800009208DF803006A460421682001F0CCFF91
:10159000A3208DF8000004F0400048B1C0208DF871
:1015A0000100C8208DF80200C2208DF8030006E07B
:1015B000A3208DF801008DF802008DF8030004F4DB
:1015C000C07048B1C4208DF80400CC208DF805000F
:1015D000C6208DF8060006E0A3208DF804008DF8E3
:1015E00005008DF80600A3208DF807008DF808008F
:1015F0008DF809006A460A2140F6A72001F094FF01
:1016000004F0030018B120208DF8000002E0D8207B
:101610008DF800006A46012140F6B62001F084FFF3
:1016200004F0200018B10120FFF780FF02E0002045
:10163000FFF77CFF04F4C07008B304F4807060B15D
:10164000B2208DF800008B208DF80100B6208DF8B7
:1016500002009B208DF803000BE0B0208DF8000005
:1016600080208DF80100B4208DF8020090208DF8C4
:1016700003006A46042140F6A22001F055FF04F061
:10168000010020B3F8208DF800006A4601214FF4D4
:101690000B6001F049FFFA210720FFF729FD072021
:1016A000FFF7ECFD0120FFF70CFE6420FFF71CFEA6
:1016B0004FF4FA70FFF72BFEC821A148FFF73AFE5E
:1016C0002820FFF753FE0A20FFF763FE08E0D8202A
:1016D0008DF800006A4601214FF40B6001F024FFF1
:1016E00004F0020018B1D9208DF8000002E0D820E3
:1016F0008DF800006A46012140F23D7001F014FFB0
:1017000004F0040018B10120FFF7F2FE02E000200F
:10171000FFF7EEFE04F0100018B10120FFF7BEFE47
:1017200002E00020FFF7BAFE44F008008549488136
:1017300000F054FB00208349887304F0400018B186
:101740000846807B801D887304F4C07020B17D48FA
:10175000807B801D7B49887304F0140020B1794898
:10176000807B10307749887304F0030020B17548FE
:10177000807B001D7349887300203EBD014671487F
:1017800040890880002070472DE9F0410446E07848
:1017900000F0C006E07800F03F05607800F001003E
:1017A00098B1EF102846E91705EB5171C910A5EB68
:1017B000C101491C01F0FF086248006820B161487E
:1017C000414602683846904700BF607800F0080044
:1017D00030B15C48406818B1B0115A4A5168884726
:1017E0000020BDE8F08110B586B0044656A207CAB5
:1017F00003AB07C357A207CA8DE80700012C09D025
:10180000022C0ED103AA0B2140F6822001F08CFE9F
:1018100006B010BD6A460B2140F6822001F084FE1E
:10182000F6E74FF0FF30F3E72DE9F04F8DB00746B4
:10183000884615469946DDE9166B00240020308065
:101840004049887B5A4605A901F0D1F918B1601EBC
:101850000DB0BDE8F08F3B48807A00F014000028FE
:1018600061D09DF8140000069DF8151040EA014073
:101870009DF8161040EA01209DF8171008432860D3
:101880009DF8180000069DF8191040EA01409DF8E7
:101890001A1040EA01209DF81B10084368609DF86B
:1018A0001C0000069DF81D1040EA01409DF81E1026
:1018B00040EA01209DF81F100843A8609DF8200011
:1018C00000069DF8211040EA01409DF8221040EAF0
:1018D00001209DF823100843E86004F11000C4B211
:1018E000286800140190686800140290A868001429
:1018F0000390E8680014049001984043029901FBAA
:101900000100039901FB0100049901FB010ABAF1EE
:10191000706F02DBBAF1885F22DD00F05FFA002011
:101920003080401E94E721E0B8AAB38DB4980D35FD
:101930005D000000B8AAAAAAB088C3C5C70000000D
:1019400009E3CA02C8000020D8B1B9F38BA391B64D
:1019500009B4D900DAB1B9F38BA391B6DAB4DA00DD
:10196000B6F9000040F48070308000BF3448807ABF
:1019700000F0400020B305A9601C085C095D40EA46
:10198000012000B2A8F8000005A9E01C095C05AA26
:10199000A01C105C41EA002000B2A8F8020005A9D2
:1019A000601D095C201D105C41EA002000B2A8F80F
:1019B0000400A01DC4B2B6F9000040F00800308059
:1019C0001F48408900F4C07008B305A9601C085C7A
:1019D000095D40EA012000B2388005A9E01C095CDD
:1019E00005AAA01C105C41EA002000B2788005A97D
:1019F000601D095C201D105C41EA002000B2B88027
:101A0000A01DC4B2B6F9000040F0700030800C4850
:101A1000807A00F0030018B105A90819FFF7B4FE99
:101A2000484600F048FD002012E7014604480160E6
:101A300000207047014602484160002070470000C6
:101A4000C800002038B50446F74890F82400C0B11B
:101A500014B10220009001E000200090F24A1268C8
:101A6000D17BF14A526810786B460122FFF7F8F8F3
:101A700010B14FF0FF3038BD9DF80010EA484174B6
:101A800023E0E948807A10B94FF0FF30F3E724B142
:101A9000E548407C08B10020EDE714B1012000903A
:101AA00001E000200090E04A1268D17BDE4A5268D3
:101AB00010786B460122FFF7D3F810B14FF0FF30DA
:101AC000D9E79DF80010D84841740020D3E738B515
:101AD00000241FE0D4480068C07AA04204D0D24855
:101AE0000068407DA04200D112E0CF4949680878E3
:101AF0006B4601222146FEF7FEFF10B14FF0FF308A
:101B000038BD9DF800202146C8A005F0B7FC00BFF5
:101B1000601CC4B2C44840680079A042DADC0020EE
:101B2000EEE770B504460D46BF480068C07AA04293
:101B300004D0BD480068407DA04202D14FF0FF3084
:101B400070BDB94840680079A04202DC4FF0FF3018
:101B5000F6E7B549496808782B4601222146FEF789
:101B6000CAFFEDE738B50446AF4890F82300A0421D
:101B700001D1002038BD14B13020009001E00020D8
:101B80000090A948807C20B19DF8000040F0020040
:101B90000090A54890F8220020B19DF8000040F088
:101BA00080000090A04A1268117D9F4A5268107808
:101BB0006B460122FFF754F810B14FF0FF30D9E720
:101BC000994880F823400020D4E738B5044604F053
:101BD000700010B10120009005E014B100200090C9
:101BE00001E040200090904A1268917C8E4A526831
:101BF00010786B460122FFF733F820B100218A48A4
:101C00008172481E38BD9DF8000020F040018648D2
:101C100001730020009004F0400020B99DF80000FE
:101C200040F00400009004F0200020B99DF800006E
:101C300040F00200009004F0100020B99DF8000070
:101C400040F00100009004F0080020B99DF8000069
:101C500040F038000090744A1268D17C724A526891
:101C600010786B460122FEF7FBFF20B100216E4881
:101C70008172481EC6E724B1082C02D00020FFF76D
:101C800071FF6948847200210175322003F0F7F872
:101C90000020B7E738B504466348807CA04201D1F4
:101CA000002038BD002C46D05F4A126811795E4A88
:101CB000526810786B460122FEF71DFF10B14FF0FD
:101CC000FF30EEE79DF8000020F020000090564A1B
:101CD00012681179544A526810786B460122FEF757
:101CE000BFFF10B14FF0FF30DBE7032003F0C7F870
:101CF000022000904C4890F8220020B19DF800008E
:101D000040F080000090484890F8230020B19DF8F2
:101D1000000040F030000090434A1268117D424AB2
:101D2000526810786B460122FEF79AFF002851D0C6
:101D30004FF0FF30B5E73C4A126811793A4A5268D1
:101D400010786B460122FEF7D6FE10B14FF0FF303F
:101D5000A7E73548807A00F0010028B19DF800001F
:101D600040F02000009004E09DF8000020F02000EA
:101D700000902D4A126811792B4A526810786B46F0
:101D80000122FEF76DFF10B14FF0FF3089E703200D
:101D900003F075F8244890F8220010B180200090DC
:101DA00001E000200090204890F8230020B19DF829
:101DB000000040F0300000901B4A1268117D1A4A62
:101DC000526810786B460122FEF74AFF10B14FF0BF
:101DD000FF3066E714488474002062E708B51248B3
:101DE000807A10B94FF0FF3008BD002000900E4AF5
:101DF0001268D17B0C4A526810786B460122FEF7BC
:101E00002FFF10B14FF0FF30EEE7074A126851790B
:101E1000054A526810786B460122FEF721FF68B12F
:101E20004FF0FF30E0E70000500000202523357818
:101E30003A20252335780D0A00000000F84A126880
:101E40001179F74A526810786B460122FEF708FFB5
:101E500010B14FF0FF30C7E7F14890F82400002898
:101E600053D00C200090EE4A12681179EC4A526867
:101E700010786B460122FEF7F3FE10B14FF0FF30F1
:101E8000B2E7322002F0FBFFC0200090E448807AE5
:101E900000F0010020B19DF8000040F0200000900B
:101EA000DF4A12681179DE4A526810786B460122C7
:101EB000FEF7D6FE10B14FF0FF3095E7D848407CD2
:101EC00010B10220009001E000200090D44A126876
:101ED000D17BD34A526810786B460122FEF7C0FED0
:101EE00010B14FF0FF307FE700200090CC4A12681D
:101EF0005179CB4A526810786B460122FEF7B0FE4A
:101F0000002855D04FF0FF306EE704200090C44AFF
:101F100012681179C24A526810786B460122FEF7A6
:101F20009FFE10B14FF0FF305EE7BD48807C20B9C6
:101F3000BB48807A00F0010010B94020009001E019
:101F400060200090B64A12681179B54A526810783C
:101F50006B460122FEF784FE10B14FF0FF3043E7DD
:101F6000322002F08CFFAE48407C10B1012000907E
:101F700001E000200090AA4A1268D17BA84A52686A
:101F800010786B460122FEF76BFE10B14FF0FF3068
:101F90002AE7A34A12685179A14A52681078A04BE7
:101FA00010330122FEF75CFE10B14FF0FF301BE74B
:101FB000002019E770B50446002624F00104984873
:101FC00090F8240008B1002070BD9548807A10B9BF
:101FD0004FF0FF30F8E79248057C807A2040904926
:101FE00008740846007CA04202D04FF0FF3600E0A3
:101FF000002614B98A48007D18B10120FFF722FDA0
:1020000002E00020FFF71EFD3CB1FFF7E7FE20B124
:10201000834805744FF0FF30D6E73046D4E738B533
:1020200004467F48807A10B94FF0FF3038BDBC2C91
:1020300002DB0120009015E0622C02DB0220009000
:1020400010E02A2C02DB032000900BE0142C02DBB2
:102050000420009006E00A2C02DB0520009001E03D
:10206000062000906E48C07A9DF80010884201D189
:102070000020DBE76A4A12689178694A5268107852
:102080006B460122FEF7ECFD10B14FF0FF30CDE7BB
:102090009DF800106248C1720020C7E738B50446B9
:1020A000282C02DD4FF0FF3038BDDCB90020FFF7EF
:1020B00059FD00208DF8000007208DF80100584AD6
:1020C0001268917C564A526810786B460222FEF7DD
:1020D000C7FD10B14FF0FF30E6E700215048017511
:1020E0000020E1E70120FFF73DFD20208DF80000F2
:1020F000012C06D100208DF801000520FFF78FFF8D
:1021000017E0052C06DC01208DF801000520FFF703
:1021100086FF0EE0142C06DC02208DF801000A2058
:10212000FFF77DFF05E003208DF801001420FFF785
:1021300076FF9DF80100072101EB8010C0B28DF8F9
:102140000100374A1268917C354A526810786B4614
:102150000222FEF785FD10B14FF0FF30A4E7082101
:102160002F48817200210173012101750020FFF7C2
:1021700021FF002098E738B504462948807A10B935
:102180004FF0FF3038BD264890F8240010B14FF0D2
:10219000FF30F7E72248007D50B134B1282C04DC31
:1021A000E0B2FFF77BFF0020ECE70020FFF776FFAF
:1021B000042C01DA042404E0B4F57A7F01DD4FF445
:1021C0007A744FF47A7090FBF4F0401EC0B2009025
:1021D000134A12685178124A526810786B460122ED
:1021E000FEF73EFD10B14FF0FF30CBE79DF8000049
:1021F000401C4FF47A7191FBF0F081B20848C18124
:102200000146C9894810FFF70AFF0020BAE738B530
:1022100004460348807A28B94FF0FF3038BD0000EB
:1022200050000020022C06D0042C07D0082C08D027
:10223000102C0CD108E0002000900BE0082000904A
:1022400008E01020009005E01820009002E04FF018
:10225000FF30E3E700BFF948407A9DF80010B0EB8B
:10226000E10F01D10020D9E7F44A1268D179F34A8D
:10227000526810786B460122FEF7F2FC10B14FF065
:10228000FF30CBE79DF80000C110EC484172002000
:10229000C4E738B50446E948807A10B94FF0FF30FA
:1022A00038BDFA2C09D0B4F5FA7F09D0B4F57A7F9D
:1022B00009D0B4F5FA6F0CD108E0002000900BE0D3
:1022C0000820009008E01020009005E01820009001
:1022D00002E04FF0FF30E3E700BFD848007A9DF8F6
:1022E0000010B0EBE10F01D10020D9E7D34A12680A
:1022F0009179D24A526810786B460122FEF7B0FC01
:1023000010B14FF0FF30CBE79DF80000C010CB4973
:1023100008720020C4E71CB580208DF80000C74A71
:102320001268917CC54A526810786B460122FEF70C
:1023300097FC10B14FF0FF301CBD642002F09FFDF0
:1023400000208DF80000BD4A1268917CBB4A52689B
:1023500010786B460122FEF783FC10B14FF0FF307E
:10236000EAE7B64A1268917DB44A526810786B4623
:102370000622FEF7C0FB10B14FF0FF30DCE79DF8FE
:102380000500C007400F9DF8031001F0010140EA6D
:1023900041009DF8011001F0010140EA010494B1EF
:1023A000012C03D10121A548C17431E0022C03D1D5
:1023B0000021A248C1742BE02146A1A005F05EF8DF
:1023C0004FF0FF30B8E79D4A1268D1789B4A5268B7
:1023D00010786B460122FEF78EFB10B14FF0FF30F4
:1023E000AAE79DF8000000F00F042CB99E4805F004
:1023F00045F84FF0FF309FE7042C06D19BA005F075
:102400003DF801218D48C17402E000218B48C17460
:10241000FF218A488172FF2088490872FF2187487E
:102420004172C1724FF6FF71C181FF210174817445
:102430000121017380F82210002180F823104175DA
:1024400001751630016041608160163880F82410F3
:1024500080F82510C1844FF4FA60FFF71AFF10B11D
:102460004FF0FF3068E70220FFF7D1FE10B14FF0C8
:10247000FF3061E72A20FFF7D2FD10B14FF0FF30A7
:102480005AE73220FFF777FE10B14FF0FF3053E7E5
:102490000020FFF78FFD10B14FF0FF304CE7002018
:1024A000FFF7F8FB10B14FF0FF3045E70020FFF7D2
:1024B0008CFB002040E770477CB504460D465F4822
:1024C000807A00F0700010B94FF0FF307CBD5B4A9D
:1024D0001268117B594A526810786B460622FEF743
:1024E0000AFB10B14FF0FF30F0E79DF801009DF8B6
:1024F000001040EA012000B220809DF803009DF802
:10250000021040EA012000B260809DF805009DF8AD
:10251000041040EA012000B2A08015B12846FFF760
:10252000CAFF0020D2E77CB504460D464348807AB6
:1025300000F0080010B94FF0FF307CBD3F4A126830
:10254000517B3E4A526810786B460622FEF7D3FA5A
:1025500010B14FF0FF30F0E79DF801009DF800103A
:1025600040EA012000B220809DF803009DF802108F
:1025700040EA012000B260809DF805009DF804103B
:1025800040EA012000B2A08015B12846FFF793FF72
:102590000020D2E72DE9FE4F05460C462748807AF9
:1025A00018B94FF0FF30BDE8FE8F244A1268917BC6
:1025B000224A5268107802AB0222FEF79CFA10B150
:1025C0004FF0FF30EFE79DF809009DF8081040EA52
:1025D000012006B214B12046FFF76DFF1749496884
:1025E000C88804F053FD154901904968B1F9080005
:1025F00004F043FD8346304604F03FFD5946009009
:1026000004F03DFB8246019904F071FB81461F49AD
:1026100004F0E3FA80464FF08F4104F036FB0746A2
:1026200004F04AFD28600020BDE710B588B00446DC
:102630001CB94FF0FF3008B010BD29E05000002059
:10264000556E737570706F7274656420736F667405
:10265000776172652070726F64756374207265763D
:102660002025642E0A0000009894000848616C66DA
:102670002073656E7369746976697479207061720C
:102680007420666F756E642E0A00000000000C4214
:10269000206830B9606820B9A06810B9002008B07F
:1026A00010BDFA494968087806AB03221146FEF7C7
:1026B00022FA10B14FF0FF30F1E79DF81800082121
:1026C00001EB201000F00F00ADF800009DF819009C
:1026D00001EB201000F00F00ADF802009DF81A0089
:1026E00001EB201000F00F00ADF80400206841005D
:1026F000BDF90000403091FBF0F000B2ADF81000E1
:1027000060684100BDF90200403091FBF0F000B27A
:10271000ADF81200A0684100BDF90400403091FB03
:10272000F0F000B2ADF81400D8494968087806AB5B
:1027300006221146FEF7DFF910B14FF0FF30AEE789
:102740009DF819009DF8181040EA012000B2ADF87C
:1027500008009DF81B009DF81A1040EA012000B205
:10276000ADF80A009DF81D009DF81C1040EA0120FC
:1027700000B2ADF80C00BDF81000BDF80810084418
:1027800000B2ADF81000BDF81200BDF80A10084400
:1027900000B2ADF81200BDF81400BDF80C100844EA
:1027A00000B2ADF81400BDF81000000A8DF8180052
:1027B000BDF81000C0B28DF81900BDF81200000A73
:1027C0008DF81A00BDF81200C0B28DF81B00BDF8DC
:1027D0001400000A8DF81C00BDF81400C0B28DF87A
:1027E0001D00AA494968087806AB06221146FEF783
:1027F00037FA10B14FF0FF3051E700204FE70146A4
:10280000A248007A30B1012807D0022809D0032855
:102810000FD10AE0FA2008800EE04FF4FA70088029
:102820000AE04FF47A70088006E04FF4FA600880FE
:1028300002E00020088000BF00BF00207047014672
:102840009248407A30B1012807D0022808D00328E6
:102850000CD108E0022008700BE00420087008E0AA
:102860000820087005E01020087002E04FF0FF30EB
:10287000704700BF8548C07C18B108784006000E3C
:1028800008700020F4E701468048C07A082817D273
:10289000DFE800F01704070A0D101318BC200880A9
:1028A00013E06220088010E02A2008800DE0142048
:1028B00008800AE00A20088007E00520088004E07C
:1028C00000BF00BF0020088000BF00BF002070478D
:1028D00001466E4890F8240010B14FF0FF30704769
:1028E0006A48C08908800020F9E701460020088076
:1028F000401E704701464FF0FF3070470146634865
:10290000007A30B1012807D0022808D003280CD162
:1029100008E05F4808600BE05E48086008E05E4839
:10292000086005E05D48086002E04FF0FF30704746
:1029300000BF0020FBE701465448407A30B101282F
:1029400008D002280AD0032810D10BE04FF48040B1
:1029500008800EE041F69C7008800AE04FF4805039
:10296000088006E04FF40060088002E04FF0FF307E
:10297000704700BF4548C07C10B1088840100880EF
:102980000020F5E701464148007C087000207047B0
:1029900001463E48807A10B10120087001E0002015
:1029A00008700020704738B504463848807A10B95E
:1029B0004FF0FF3038BD354A1268117C334A5268F7
:1029C00010786B460222FEF796F810B14FF0FF30F8
:1029D000F0E79DF801009DF8001040EA012000B2E8
:1029E00020800020E6E72DE9FE4F07468846924604
:1029F0001D46DDF830B000260024244890F824005D
:102A000010B1601EBDE8FE8F002028701F48807A3C
:102A100010B94FF0FF30F5E71C48007C10B94FF0BB
:102A2000FF30EFE71948007C00F0400008B1B01C0F
:102A3000C6B21648007C00F0200008B1B01CC6B237
:102A40001248007C00F0100008B1B01CC6B20F485C
:102A5000007C00F0080008B1B01DC6B20B4A126835
:102A6000917A0A4A526810786B460222FEF743F8C0
:102A700010B14FF0FF30C5E79DF801009DF8001040
:102A800040EA0129B1450BDA0020BBE750000020E5
:102A90000000034300008342333303423333834156
:102AA000FC4840684088B9EB600F17DDF94A1268AE
:102AB000517CF84A526810786B460122FEF71BF8E9
:102AC00010B14FF0FF309DE79DF8000000F01000BE
:102AD00020B1FFF783F96FF0010093E75046FFF74D
:102AE000EAFCEC4A1268D17AEA4A526810786B46DE
:102AF0003246FEF700F810B14FF0FF3082E799FB45
:102B0000F6F0401E8BF8000000202870B4422AD056
:102B1000E048007C00F0080028B3601C1DF80000AD
:102B20001DF8041040EA012000B2A8F80000E01CE3
:102B30001DF80010A01C1DF8000041EA002000B2A2
:102B4000A8F80200601D1DF80010201D1DF80000EF
:102B500041EA002000B2A8F80400287840F00800FC
:102B60002870A01D84B2B44213D0CA48007C00F083
:102B7000400070B1601C1DF800001DF8041040EA10
:102B8000012000B23880287840F040002870A01C56
:102B900084B2B44213D0BF48007C00F0200070B172
:102BA000601C1DF800001DF8041040EA012000B26E
:102BB0007880287840F020002870A01C84B2B442AD
:102BC00013D0B448007C00F0100070B1601C1DF8F8
:102BD00000001DF8041040EA012000B2B8802878F7
:102BE00040F010002870A01C84B200200AE7F8B55D
:102BF00004460F461646A74890F8240010B94FF037
:102C0000FF30F8BDA348807A10B94FF0FF30F8E7E5
:102C1000A04A1268917A9F4A526810786B46022245
:102C2000FDF769FF10B14FF0FF30EAE79DF80100B2
:102C30009DF8001040EA0125A54203DA002030701B
:102C4000401EDEE7934840684088B5EB600F17DD13
:102C5000904A1268517C8F4A526810786B46012264
:102C6000FDF749FF10B14FF0FF30CAE79DF80000B3
:102C700000F0100020B1FFF7B1F86FF00100C0E7DD
:102C8000E2B2844B1B68D97A824B5B6818783B466A
:102C9000FDF731FF10B14FF0FF30B2E795FBF4F0D4
:102CA000401E30700020ACE701467A4880F82210C0
:102CB000002070477CB5054676494968087801AB25
:102CC00004220D21FDF717FF08B107207CBD9DF8F8
:102CD0000700C0F301109DF8041001F0E00140EA84
:102CE000E1008DF800009DF80700C0F381009DF819
:102CF000051001F0E00140EAE1008DF801009DF8C7
:102D0000070000F003009DF8061001F0E00140EA22
:102D1000E1008DF8020000241CE01DF8040018B941
:102D2000002045F8240013E05B4845F8240006E045
:102D300055F82400594903F0A8FF45F824001DF870
:102D40000400401EC0B20DF804000028F0D100BFFE
:102D5000601CC4B2032CE0DB0020B7E72DE9FE4F76
:102D600006460F4600256846FFF7A4FF002442E010
:102D700056F8240057F82410A0EB010ABAF1000F0E
:102D800001DB514601E0CAF10001084604F075F983
:102D900083464FF08F4103F0AAFF80465DF8240080
:102DA000002104F0E5F916D05DF82410404603F048
:102DB0009EFF82464FF07E5103F061FF814629F06D
:102DC000004A3748416A504604F0DCF912D201202B
:102DD000A04005430EE03248C169404604F0C8F9FE
:102DE00005D32F48016A404604F0CCF902D20120F5
:102DF000A0400543641C032CBADB2846BDE8FE8FC7
:102E00002DE9FC5F06460F460025224949680878EF
:102E100001AB03220D21FDF76EFE10B10720BDE8C6
:102E2000FC9F9DF8040000F01F008DF804009DF841
:102E3000050000F01F008DF805009DF8060000F069
:102E40001F008DF80600002462E056F8240057F8B1
:102E50002410A0EB010BBBF1000F01DB594601E090
:102E6000CBF10001084604F008F94FF08F410090C3
:102E700003F03DFF814601A8005DC0B30849086822
:102E800004F004F983465946064803F030FF8046B3
:102E90000FE00000500000207B14AE3E1D5A843F1E
:102EA000A08C000800B04C45FE49404603F0EDFE02
:102EB000804601A8005D401EC0B201A90855002847
:102EC000F2D14146484603F012FF83464FF07E514F
:102ED00003F0D5FE82462AF0004BF348816958463C
:102EE00004F050F913D20120A04005430FE0FFE7A2
:102EF000ED480169484604F03BF905D3EA484169C9
:102F0000484604F03FF902D20120A0400543641C6A
:102F1000032C9ADB284682E72DE9F04F87B005465F
:102F20000C46914601208DF8100000208DF811000C
:102F3000DE4A1268917CDD4A5268107804AB0222A6
:102F4000FDF78EFE20B14FF0FF3007B0BDE8F08FE7
:102F5000C82001F094FF00208DF81000D34A1268B9
:102F6000D17BD24A5268107804AB0122FDF778FE7B
:102F700010B14FF0FF30E8E7CC4A12685179CB4AE4
:102F80005268107804AB0122FDF76AFE10B14FF0D1
:102F9000FF30DAE7C54A1268917CC44A526810785B
:102FA00004AB0122FDF75CFE10B14FF0FF30CCE71F
:102FB000BE4A1268D17DBD4A5268107804AB012226
:102FC000FDF74EFE10B14FF0FF30BEE7B74A126872
:102FD0001179B64A5268107804AB0122FDF740FE21
:102FE00010B14FF0FF30B0E70C208DF81000AF4A61
:102FF00012681179AD4A5268107804AB0122FDF7CE
:103000002FFE10B14FF0FF309FE70F2001F037FF88
:10301000A648806A407A8DF81000A44A1268917818
:10302000A24A5268107804AB0122FDF719FE10B1D4
:103030004FF0FF3089E79D48806A007A8DF81000D4
:103040009A4A12685178994A5268107804AB012262
:10305000FDF706FE10B14FF0FF3076E7B9F1000F33
:1030600007D09248806A807A40F0E0008DF8100026
:1030700004E08E48806A807A8DF810008B4A1268CE
:1030800091798A4A5268107804AB0122FDF7E8FD75
:1030900010B14FF0FF3058E7B9F1000F07D0834867
:1030A000806AC07A40F0E0008DF8100003E07E48AE
:1030B000C07A8DF810007D4A1268D1797B4A526837
:1030C000107804AB0122FDF7CBFD10B14FF0FF30BB
:1030D0003BE7B9F1000F02D0C82001F0D0FE40203C
:1030E0008DF81000714A12681179704A5268107890
:1030F00004AB0122FDF7B4FD10B14FF0FF3024E71F
:1031000078208DF81000694A12685179674A526830
:10311000107804AB0122FDF7A3FD10B14FF0FF3092
:1031200013E76149888901F0AAFE00208DF810009C
:103130005E4A126851795D4A5268107804AB0122E8
:10314000FDF78EFD10B14FF0FF30FEE6574A1268D2
:10315000917A564A5268107804AB0222FDF7CBFCF4
:1031600010B14FF0FF30F0E69DF811009DF81010FF
:1031700040EA012B0C209BFBF0F0C6B20020A860B7
:1031800068602860A06060602060824665E0474A11
:103190001268D17A454A5268107804AB0C22FDF7C8
:1031A000AAFC10B14FF0FF30CFE69DF811009DF85A
:1031B000101040EA012000B2ADF808009DF813009D
:1031C0009DF8121040EA012000B2ADF80A009DF807
:1031D00015009DF8141040EA012000B2ADF80C0073
:1031E000BDF90810206808442060BDF90A10606825
:1031F00008446060BDF90C10A0680844A0609DF808
:1032000017009DF8161040EA012000B2ADF800004A
:103210009DF819009DF8181040EA012000B2ADF8A1
:1032200002009DF81B009DF81A1040EA012000B230
:10323000ADF80400BDF90010286808442860BDF905
:103240000210686808446860BDF90410A868084462
:10325000A8600AF1010000F0FF0AB24597DB1248AE
:10326000D0F800C02868C117090441EA10410704DA
:1032700062460023384603F060FC32460023CDE965
:10328000020103F05AFC28600748D0F800C06868C3
:10329000C117090441EA1041070462460023384679
:1032A00006E0000054E3853FA08C00085000002099
:1032B00003F043FC32460023CDE9020103F03DFC5C
:1032C0006860FE48D0F800C0A868C117090441EA48
:1032D0001041070462460023384603F02EFC3246B4
:1032E0000023CDE9020103F028FCA860F348D0F8E0
:1032F00004C02168C817000440EA11480F04624660
:1033000000233846414603F018FC32460023CDE93D
:10331000020103F012FC2060E848D0F804C06068A5
:10332000C117090441EA10410704624600233846E8
:1033300003F003FC32460023CDE9020103F0FDFB5C
:103340006060DE48D0F804C0A068C117090441EAF3
:103350001041070462460023384603F0EEFB324674
:103360000023CDE9020103F0E8FBA060A06800287B
:1033700004DDA068A0F58030A06003E0A06800F53F
:103380008030A0600020E0E538B50446CC4890F8D5
:103390002400A04201D1002038BD24B3C84890F8D1
:1033A000250010B94FF0FF30F6E70020FEF74AFB8A
:1033B0000020FEF76FFCC249C88CFEF7DCFE00203F
:1033C0000090BF49496808786B4601222321FDF728
:1033D00047FC0121BA4880F824100120FEF732FB97
:1033E000FEF7FCFC13E00020FEF72CFBB448007C49
:1033F0000090B349496808786B4601222321FDF704
:103400002FFC0021AE4880F82410FEF7E7FC0020D6
:10341000C2E72DE9F04F8DB083460F4602200C9095
:10342000A74890F8240020B10020FFF7ADFF012647
:1034300000E0002603A8FFF7E2F905A8FFF7FFF96F
:1034400001A8FFF720FA02A8FFF742FA9C4890F87B
:103450000AA004A8FFF796FA002407E000223946E4
:103460005846FFF759FD00B902E0641C022CF5DB59
:1034700000BF022C01D1002528E0002407E0012232
:1034800006A909A8FFF748FD00B902E0641C022C58
:10349000F5DB00BF022C01D1002517E006A9384654
:1034A000FFF75CFC00F0FF0809A95846FFF7A8FCED
:1034B00000F0FF090025B9F1000F01D145F0010529
:1034C000B8F1000F01D145F0020500BFFF207C4993
:1034D0000872FF217A484172C1724FF6FF71C181B3
:1034E000FF218172017401210173BDF80C00FEF708
:1034F000D0FE9DF81400FEF78AFEBDF80400FEF72A
:103500008EFDBDF80800FEF736FE5046FEF75DFB67
:103510009DF81000FEF74EFD16B10120FFF734FFB5
:1035200028460DB0BDE8F08FF8B504460D461646A6
:1035300016B94FF0FF30F8BD6148807A10B94FF0EE
:10354000FF30F8E720128DF80000E0B28DF801009E
:103550009DF8010028445A4949684989884202DD9A
:103560004FF0FF30E7E7564A1268117E544A52681E
:1035700010786B460222FDF773FB10B14FF0FF305D
:10358000D9E7EAB24E4B1B68597D4D4B5B68187802
:103590003346FDF765FB10B14FF0FF30CBE700205D
:1035A000C9E7F8B504460D46164616B94FF0FF3088
:1035B000F8BD4348807A10B94FF0FF30F8E7201289
:1035C0008DF80000E0B28DF801009DF8010028445C
:1035D0003B4949684989884202DD4FF0FF30E7E7FF
:1035E000374A1268117E364A526810786B460222BA
:1035F000FDF736FB10B14FF0FF30D9E7EAB2304BA0
:103600001B68597D2E4B5B6818783346FDF773FABB
:1036100010B14FF0FF30CBE70020C9E72DE9F043B0
:1036200085B005460E4690469946254890F82500F7
:1036300020B14FF0FF3005B0BDE8F08316B94FF070
:10364000FF30F8E7002423E0281B102801DD1020BC
:1036500000E0281B87B2321939462046FFF764FF85
:1036600010B14FF0FF30E6E701AA39462046FFF7D8
:1036700098FF10B14FF0FF30DDE730193A4601A94D
:1036800003F09EFA10B16FF00100D4E7E01984B2A4
:10369000AC42D9DB4FEA28208DF8000008F0FF008B
:1036A0008DF80100064A1268917E054A526810782A
:1036B0006B460222FDF7D4FA38B103E0A08C000873
:1036C000500000204FF0FF30B5E70121FE4880F8A0
:1036D0002510A0F826900020ADE70146FA4890F8A2
:1036E00024000870002070474FF0FF3070470246FA
:1036F0004FF0FF30704701464FF0FF307047F8B58C
:1037000005460F461446002C70D0B5F5FF5F01DD6D
:10371000FF2605E0202D01DA012601E0C5F347165A
:1037200007B90127282C02DD4FF0FF30F8BDE6482D
:10373000407D28BBE44890F8240038B10020FFF712
:1037400023FE0121E04880F8201003E00021DE483C
:1037500080F82010DC481630FFF751F8DA481830AE
:10376000FFF76DF8D8481A30FFF78DF8D6481C30AF
:10377000FFF7AEF8D448817A81771F30FFF702F95E
:103780000020FEF75FF90020FEF788FC00208DF88E
:103790000000CD4A12689178CB4A526810786B4687
:1037A0000122FDF75DFA10B14FF0FF30BEE7402077
:1037B0008DF80000C44A1268D17BC34A5268107861
:1037C0006B460122FDF74CFA00B165E08DF8006010
:1037D0008DF80170BC4A1268117ABB4A52681078A1
:1037E0006B460222FDF73CFA08B155E047E00520A0
:1037F00001F045FBB448407A072101EBC000C0B29C
:103800008DF80000B04A1268D179AF4A526810783A
:103810006B460122FDF724FA00B13DE020208DF82F
:103820000000012C03D100208DF801000EE0052CD2
:1038300003DC01208DF8010008E0142C03DC0220D9
:103840008DF8010002E003208DF801009DF80100D1
:10385000072101EB8010C0B28DF801009A4A12686E
:10386000917C994A526810786B460222FDF7F8F96C
:1038700000B111E0012194484175002056E7924AB9
:103880001632002103E0505C00B105E0491C0C2910
:10389000F9D34FF0FF3049E7FF208B490872FF2131
:1038A00089484172C1724FF6FF71C181FF21817257
:1038B0000174012101730146887FFEF786F9824970
:1038C000C88AFEF7E6FC8049087EFEF7A0FC7E4928
:1038D000488BFEF7A4FB7C49888BFEF74CFC7A49A9
:1038E000C87FFEF767FB784890F8200010B10120F0
:1038F000FFF74AFD002174484175002016E770B5B6
:1039000088B002A905A8FFF784FD0446032C3ED128
:1039100001A8FEF7F3FF059803F0AFFB06460199F7
:1039200003F0B3F9054603F0C7FB0590069803F0D2
:10393000A4FB0646019903F0A8F9054603F0BCFB79
:103940000690079803F099FB0646019903F09DF94C
:10395000054603F0B1FB079005A8FDF756FA684647
:10396000FEF7E9FFBDF80010029848430290BDF849
:103970000010039848430390BDF800100498484392
:10398000049002A8FDF7D4FA002008B070BD012011
:10399000FBE7014691F90020002A01DD00201EE02E
:1039A00091F90020002A01DA042018E091F90120A1
:1039B000002A01DD012012E091F90120002A01DA3C
:1039C00005200CE091F90220002A01DD022006E02A
:1039D00091F90220002A01DA062000E00720704752
:1039E00010B504462046FFF7D4FF0346E01CFFF75E
:1039F000D0FF43EAC00083B2A01DFFF7CAFF43EA2D
:103A0000801083B2184610BD70B50024FCF775FE17
:103A1000FEF781FC002840D17820FEF7D6F8C4B22A
:103A20000CB1012070BD7820FEF7C4FAC4B20CB10D
:103A30000220F7E76420FEF79EFBC4B20CB103201E
:103A4000F0E7FDF747F9C4B20CB10420EAE71F48DC
:103A5000FFF7C6FF0546FDF747F9C4B20CB10520D4
:103A6000E0E740F27310FDF780FDC4B20CB1062010
:103A7000D8E76420FDF7F2FAC4B20CB10720D1E711
:103A8000FFF73DFF04460CB10820CBE70120FFF70C
:103A90007BFCC4B21CB10920C4E70A20C2E70020A5
:103AA000C0E72DE9F04F99B004460D4616464FF099
:103AB0007E574FF000084FF000094FF0000A12A89F
:103AC00013A918AB0EAA03E0500000207C000020D0
:103AD000CDE9001014A916A8FDF7A6FE18B1012023
:103AE00019B0BDE8F08FBDF84C0000F480700028DC
:103AF0007ED00E9803F0C1FA83464FF09D4103F04B
:103B0000F6F807460F9803F0B8FA83464FF09D4148
:103B100003F0EDF88046109803F0AFFA83464FF0BB
:103B20009D4103F0E4F88146119803F0A6FA83461C
:103B30004FF09D4103F0DBF8824639464FF080405C
:103B400003F0A3F84946059003F09FF8414607901B
:103B50004FF0404003F099F85146059003F095F876
:103B60000690079903F039F8834603F0D2FACDE9BD
:103B7000080103F057FF4FF06632544BCDE90A01BC
:103B800003F09AF9CDE90C0103F0D6FA206049461A
:103B90004FF0804003F079F84946029003F075F841
:103BA000414604904FF0404003F06FF841460290C8
:103BB00003F06BF80390049903F061F883464FF02B
:103BC0007E5103F00AF8059003F0A3FACDE908014D
:103BD00039464FF0804003F058F84146039003F017
:103BE00054F8494604904FF0804003F04EF800E04E
:103BF00068E05146039003F048F88346049902F0C8
:103C0000ECFF059003F085FACDE90601DDE9082314
:103C100004F050F94FF066322C4BCDE90A0103F065
:103C20004BF9CDE90C0103F087FA28605146504664
:103C300003F02BF849460490484603F026F8414625
:103C40000390404603F021F839460190384603F0CE
:103C50001CF80090019902F0C0FF0290039903F054
:103C60000EF88346049903F00AF8059003F051FA20
:103C7000CDE908015146384603F007F8494604905B
:103C8000404603F002F80390049902F0A6FF4FF0BB
:103C90008041059002F0F9FF834603F03AFACDE93E
:103CA0000601DDE9082304F005F94FF06632074B01
:103CB000CDE90A0103F000F9CDE90C0103F03CFA6B
:103CC000306001E002200BE7002009E766A64C40C7
:103CD00070B504460D462DB14FF48061B44801F033
:103CE0003AFB04E04FF48061B14801F036FB10214B
:103CF000B04801F032FBE0B200F0F6FC1021AD4814
:103D000001F029FB70BD70B505460C462646E1174B
:103D100004EB5171C91001F1B0000021FFF7D8FF89
:103D2000A91CC1F3031141F010000021FFF7D0FFDF
:103D3000A91C01F00F000021FFF7CAFF70BD10B5EC
:103D400000218D20FFF7C4FF00211420FFF7C0FFE2
:103D50000021AF20FFF7BCFF10BD10B500218D2062
:103D6000FFF7B6FF00211020FFF7B2FF0021AE20C1
:103D7000FFF7AEFF10BDF0B503461446E4B1CD1712
:103D800001EB5575ED1003EBC5158B4E755D0A46BD
:103D9000CE1701EB5676F610A1EBC6070126BE4002
:103DA000F6B235430846CE1701EB5676F61003EB14
:103DB000C616814FBD551AE0CD1701EB5575ED10B4
:103DC00003EBC5157C4E755D0A46CE1701EB5676A2
:103DD000F610A1EBC6070126BE40B5430846CE1734
:103DE00001EB5676F61003EBC616734FBD55F0BDCA
:103DF00070B500241BE004F1B0000021FFF768FF5C
:103E000000210846FFF764FF00211020FFF760FF44
:103E1000002508E005EBC411674A505C0121FFF75B
:103E200057FF681CC5B2802DF4DB601CC4B2082C9F
:103E3000E1DB70BD10B54FF480615F4802F0B5FE64
:103E400010BD10B5044634B1FF224FF480615A48CA
:103E500002F0A4FE04E04FF48061574802F0A5FE92
:103E6000FFF7C6FF10BD10B50221514801F073FAEB
:103E7000642001F004F802214D4801F06EFA64203C
:103E800000F0FDFF02214A4801F065FA10BD08B5B7
:103E900001210C2001F06EFC40F20240ADF8000060
:103EA00010208DF8030003208DF802006946404879
:103EB00001F0A4F9B020ADF8000069463D4801F0DA
:103EC0009DF940F202413A4801F045FAB0213948E3
:103ED00001F041FA08BD10B5FFF7D9FFC82000F086
:103EE000CEFFFFF7C0FF0021AE20FFF7F1FE00215B
:103EF0000846FFF7EDFE00211020FFF7E9FE002144
:103F00004020FFF7E5FE0021B020FFF7E1FE002191
:103F10008120FFF7DDFE0021FF20FFF7D9FE002101
:103F2000A120FFF7D5FE0021A620FFF7D1FE00213A
:103F3000A820FFF7CDFE00213F20FFF7C9FE00219A
:103F4000C820FFF7C5FE0021D320FFF7C1FE0021E6
:103F50000846FFF7BDFE0021D520FFF7B9FE00217E
:103F60008020FFF7B5FE0021D920FFF7B1FE002128
:103F7000F120FFF7ADFE0021DA20FFF7A9FE0021B6
:103F80001220FFF7A5FE0021DB20FFF7A1FE002194
:103F90003020FFF79DFE00218D20FFF799FE0021C4
:103FA0001420FFF795FE0021AF20FFF791FE10BD12
:103FB000000C014000080140D800002008B5012194
:103FC000082001F0D7FB4FF47040ADF8000010203E
:103FD0008DF8030003208DF802006946A54801F022
:103FE0000DF908BD30B589B005460C46FFF7E6FF70
:103FF0000121C80201F0BEFB0121042001F0BAFB3F
:104000004FF41060ADF8200018208DF82300032035
:104010008DF8220008A9984801F0F0F8ADF8185082
:10402000ADF814400020ADF81A00ADF8160005A94F
:10403000924801F049FF6020ADF804000020ADF87F
:104040000C004FF48070ADF810000120ADF80600B0
:104050000020ADF80800ADF80E00ADF81200ADF884
:104060000A0001A9854801F06CFF01A9834802F00C
:1040700042F80121814802F08FFA08217F4802F0BE
:10408000AFFB08217D4802F0CAFB01217B4802F00A
:1040900077FB0121794802F073FA09B030BD01467F
:1040A000002901DA484200E00846704770B505462D
:1040B0000C46002D07DD0020714908600120714980
:1040C000C1F8B80106E001206D49086000206D4983
:1040D000C1F8B8012846FFF7E2FF86B231466748CB
:1040E00002F0E6FC002C08DD002065490839086074
:1040F00001206449C1F8B00107E001206049083996
:10410000086000205F49C1F8B0012046FFF7C7FFF3
:104110005A494031088070BD41F658305A49096803
:104120004242914202DA4142574A116056490968B7
:10413000814201DD54490860544909684242914274
:1041400002DA4142514A116050490968814201DD59
:104150004E49086070470146002011F5C87F02DB18
:10416000B1F5C87F0DDD01200022454B1B1F1A60F1
:10417000444BC3F8BC21424B083B1A60414BC3F887
:10418000B02170477FB505460C460121022001F0A1
:10419000FEFAADF80850ADF804400020ADF80A0072
:1041A000ADF8060001A93A4801F08EFE0122114641
:1041B000374802F000FA1D208DF8000000208DF82D
:1041C000010003208DF8020001208DF803006846ED
:1041D00001F03DFD01212E4802F0D2F97FBD30B53E
:1041E00089B005460C460121022001F0D0FA0121D8
:1041F000092001F0BFFA0121264801F0D0F8202063
:10420000ADF8200018208DF8230003208DF822003F
:1042100008A9184800F0F2FFADF81850ADF81440A6
:104220000020ADF81A00ADF8160005A9184801F0F5
:104230004BFE7020ADF804000120ADF80600002010
:10424000ADF80C0001A9124801F0BDFE0121104893
:1042500002F096FA08210E4802F0CBFA4FF47A7178
:104260000B4802F027FC0121094802F089F909B046
:1042700030BD0000000C014000080140002C01404E
:10428000BC81214200802142880000208C00002057
:104290000004004000081A0000B587B0012108465C
:1042A00001F075FA0121042001F064FA0320ADF851
:1042B000000004208DF803006946834800F09EFF4B
:1042C00004A802F02DF90020ADF810004FF6FF70A1
:1042D000ADF814000020ADF81600ADF8120004A9E6
:1042E0004FF0804001F0F0FD00231A4603214FF00B
:1042F000804002F0F8F901A802F025F90A20ADF893
:104300000C0001A9400702F072F80121880702F0B1
:10431000FDFB01221146900702F04DF900214FF0FC
:10432000804002F0C1FB0121880702F029F907B0A3
:1043300000BD00B587B00121042001F028FA012159
:10434000082001F017FAC020ADF8000004208DF815
:10435000030069465D4800F051FF04A802F0E0F850
:104360000020ADF810004FF6FF70ADF814000020EB
:10437000ADF81600ADF8120004A9554801F0A4FDEF
:1043800000231A460321524802F0ADF901A802F0B9
:10439000DAF80A20ADF80C0001A94D4802F027F820
:1043A00001214B4802F0B2FB01221146484802F0BD
:1043B00002F90021464802F077FB0121444802F04F
:1043C000DFF807B000BD7FB505460C46012102208D
:1043D00001F0DDF901213F4802F0ACFB01213D482D
:1043E00002F094FBADF80850ADF804400020ADF8A1
:1043F0000A00ADF8060001A9364801F065FD01226A
:104400001146344802F0D7F81D208DF80000022034
:104410008DF801008DF8020001208DF80300684638
:1044200001F015FC01212B4802F0AAF87FBD10B560
:104430000121284802F06DFB28B1FBF7F8FE0121AD
:10444000244802F077FB10BD0146022904D003295D
:104450000BD004291BD111E04FF08042928C10B296
:1044600000224FF080439A8413E01A4A24321288C3
:1044700010B20022174B24331A800AE0144A243267
:10448000128810B20022124B24331A8001E000205F
:1044900000BF00BF70470E48103000880C48103035
:1044A000008820F001000A491031088070474FF061
:1044B0008040008A4FF08040008A20F001004FF0D9
:1044C000804108827047000000080140000C014054
:1044D00000080040000400400020744908602020CB
:1044E000C86073488860A020C86172488861002055
:1044F0000862012048620020086148616E488862B5
:1045000000200863C86270472DE9F04704466749F8
:10451000086802F0B2FD8046214602F0B3FB074670
:1045200002F0CAFD05466548B0F9000002F0A5FD9D
:1045300082465E488168504602F0A7FB80465B4990
:10454000C96801FB05F002F098FD8146414602F082
:1045500044FB074602F0B0FD06467042BDE8F08716
:104560002DE9FF5F0446894604EB09014F4A126AB0
:10457000881A02F082FD524908605248006802F031
:10458000C8FD07464FF066324F4B02F095FC0546DA
:1045900002F0D2FD4B4908604948006802F0B9FDBD
:1045A0004FF03332494BCDE9000102F085FC05465E
:1045B0000E464448006802F0ACFD07462A463346E2
:1045C00002F0D3FBCDE9020102F0B6FD3D490860DF
:1045D000084601683E48006802F0FFFA3C4908605E
:1045E0003C493B48006802F0CDFD02D239483849C9
:1045F000086039493648006802F0BAFD02D23648F0
:1046000033490860294988693149096802F03DFB4E
:10461000834602F051FD804602F02FFD06462349F5
:10462000C86902F02AFD804626480168404602F02B
:104630002CFB0746314602F0D0FA054602F03CFD5D
:10464000824626492648006802F092FD05D3254996
:104650002348006802F096FD02D200201C49086041
:10466000504604B0BDE8F09F2DE9F04705460C46E2
:10467000204602F002FD82460C48816A504602F054
:1046800004FB8046284602F0F8FC82460748016B8E
:10469000504602F0FAFA8146414602F0F0FA074627
:1046A00002F00AFD06463046BDE8F087D804002037
:1046B000CDCC8C3FCDCC4C3F0000A0411A00002057
:1046C00090000020940000206666E63F3333D33F1D
:1046D0009800002000401C4600401CC6000020C27C
:1046E0000C0000200000204270B50446002508257B
:1046F00017E004F0800020B180210B4800F02BFE71
:1047000003E08021084800F028FE2021064800F040
:1047100024FE2021044800F01EFE6006040E681EE0
:10472000C5B2002DE5DC70BD0008014070B504463F
:104730000D461646324629462046FFF71CFBFFF77A
:1047400057FB70BD2DE9F05F04460D469046994633
:10475000A8EB0400401C00F0FF0AA9EB0500401C78
:1047600000F0FF0B00260EE0002708E0AA19D1B2E6
:10477000E219D0B20A9AFFF7FEFA781CC7B2574581
:10478000F4DB701CC6B25E45EEDBFFF731FBBDE823
:10479000F09F2DE9FF4F85B081468A4600200390A7
:1047A00083460798A0EB09050898A0EB0A06CDF808
:1047B0000890CDF804A0002D01DD012705E00DB91A
:1047C000002702E04FF0FF376D42002E02DD4FF070
:1047D000010806E016B94FF0000802E04FF0FF387C
:1047E0007642B54201DD2C4600E0344600200490BC
:1047F0001EE0019AD1B2029AD0B2129AFFF7BBFA28
:10480000039828440390B3440398A04205DD03981D
:10481000001B0390029838440290A34504DDABEBE3
:10482000040B0198404401900498401C80B204900D
:10483000611C04988842DCDDFFF7DAFA09B0BDE8B4
:10484000F08F2DE9F84F06460F4691469A46DDF85F
:1048500028B04FF0000800240025A9F1200000F046
:10486000FF087F2E02DD0026B81CC7B2BAF1100F78
:1048700030D100242BE0BBF1000F05D004EB081071
:10488000FE49085C009006E004EB0810FB49085C58
:10489000C043C0B20090002515E080202841009957
:1048A000084038B13A19D1B27219D0B20122FFF7DB
:1048B00062FA06E03A19D1B27219D0B20022FFF7BB
:1048C0005AFA681CC5B2082DE7DB601CC4B2102C74
:1048D000D1DB01E0BDE8F88FFFF78AFA00BFF9E706
:1048E0002DE9F84F0546884616461C46DDF828A0F7
:1048F0000027102C05D1204604EBD071C1F34709E5
:1049000001E0BDE8F88F13E0CDF800A0F25D23468A
:1049100041462846FFF795FF05EB0900C5B2782D03
:1049200004DD002508EB040000F0FF08781CC7B286
:10493000F05D0028E8D100BFE3E710B50246012092
:1049400000E050430B1EA1F10104E1B2F9D110BD0A
:104950002DE9FF4F83B0804692461E46DDE9104B9D
:1049600000200290102C05D1204604EBD071C1F339
:1049700047070BE0082C06D1204604EBD071491004
:10498000891CCFB202E007B0BDE8F08F002530E00F
:10499000701B401EC1B20A20FFF7CFFFBAFBF0F038
:1049A0000A21B0FBF1F201FB1209029890B9701EC6
:1049B000A8420FDDB9F1000F0AD107FB0581C8B28B
:1049C00023462022CDF800B00499FFF73AFF0EE00D
:1049D0000120029009F13001CAB207FB0581C8B27B
:1049E0002346CDF800B00499FFF72BFF00BF681CE9
:1049F000C5B2B542CCDB00BFC5E72DE9FF4F83B0A0
:104A000080468946924601200190002562E005EB30
:104A100005109B4911F810009AF80010884257D1F0
:104A200005EB0510964901EB400040789AF801101B
:104A300088424DD1002448E0069840B105EB0510AE
:104A40008F4901EB4000801C005D029009E005EBFE
:104A500005108B4901EB4000801C005DC043C0B2D3
:104A6000029000262DE0802030410299084098B144
:104A7000274604EBD77209EB6202D1B2A34604EBDE
:104A8000DB725210A4EB420208EBC2023244D0B2F5
:104A90000122FFF770F912E0274604EBD77209EB09
:104AA0006202D1B2A34604EBDB725210A4EB4202C5
:104AB00008EBC2023244D0B20022FFF75CF9701C4E
:104AC000C6B2082ECFDB601CC4B2202CB4DB04E0DD
:104AD000681CC5B20198854299DB00BFFFF788F9D1
:104AE00007B0BDE8F08F2DE9FE4F07468846914696
:104AF0009B460120029000256DE005EB850000EB50
:104B00004510604911F8100099F80010884260D1F2
:104B100005EB850000EB45105A4901EB4000407859
:104B200099F80110884254D100244FE0BBF1000FE6
:104B30000AD005EB850000EB4510524901EB40001F
:104B4000801C10F804A00BE005EB850000EB45107D
:104B50004C4901EB4000801C005DC04300F0FF0A9F
:104B600000262FE08020304100EA0A00A0B1032097
:104B700094FBF0F04044C0B20190032094FBF0F1AC
:104B800000FB114007EBC0003044C0B2012200908E
:104B90000199FFF7F0F813E0032094FBF0F0404494
:104BA000C0B20190032094FBF0F100FB114007EB31
:104BB000C0003044C0B2002200900199FFF7DBF83A
:104BC000701CC6B2082ECDDB601CC4B2482CADDB15
:104BD00004E0681CC5B2029885428EDB00BFFFF777
:104BE00007F9BDE8FE8F2DE9FF4F83B08046894667
:104BF000924601200190002570E005EB85102249C6
:104C000011F810009AF80010884265D105EB851064
:104C10001D4901EB400040789AF8011088425BD1B1
:104C2000002456E0069840B105EB8510164901EBCB
:104C30004000801C005D029009E005EB85101249E0
:104C400001EB4000801C005DC043C0B20290002711
:104C50003BE08020384102990840F8B12646E2172F
:104C600004EB927209EBA202D1B2A346E21704EB65
:104C700092729210A4EB820208E00000C88C000837
:104C8000B8920008DA9200082493000808EBC202E8
:104C90003A44D0B20122FFF76EF814E02646E2173C
:104CA00004EB927209EBA202D1B2A346E21704EB25
:104CB00092729210A4EB820208EBC2023A44D0B284
:104CC0000022FFF758F8781CC7B2082FC1DB601C20
:104CD000C4B2802CA6DB04E0681CC5B201988542F2
:104CE0008BDB00BFFFF784F807B0BDE8F08F2DE93C
:104CF000F04106460F4614461D46DDF8188026E0B2
:104D0000102C06D143462A4639463046FFF775FE39
:104D100013E0182C06D143462A4639463046FFF7A1
:104D2000E2FE0AE0202C06D143462A4639463046A8
:104D3000FFF759FF01E0BDE8F0813019C6B2C4F1B8
:104D40008000B04202DA00263819C7B2AD1C2878BC
:104D50000028D5D100BFEEE72DE9F84F80468946FF
:104D600017469A46DDF828B0002545E000243AE0D1
:104D70000B9850B1F81DC11700EB5171C91005FB1C
:104D800001411BF8011000910BE0F81DC11700EB69
:104D90005171C91005FB01411BF80110C943C9B28B
:104DA000009100261BE0802030410099084050B15E
:104DB00009EB0502D1B208EBC4023244D0B20122A1
:104DC000FEF7D9FF09E009EB0502D1B208EBC402F6
:104DD0003244D0B20022FEF7CEFF701CC6B2082EBD
:104DE000E1DB601CC4B2F81DC11700EB5171B4EBDC
:104DF000E10FBDDB681CC5B25545B7DBFEF7F8FF18
:104E0000BDE8F88F10B56FF0040000F06AFF2E487F
:104E100000682E49B0FBF1F02D4908700846007873
:104E200000EB4001C1EBC0104FF6FF7101EAC0007A
:104E30002849088010BD0146254A12784A434FF0A0
:104E4000E0235A6100229A611A46126942F0010277
:104E50001A6100BF4FF0E022106900F001021AB1A0
:104E600000F48032002AF5D04FF0E022126922F0DF
:104E700001024FF0E0231A6100229A617047014657
:104E8000144A12884A434FF0E0235A6100229A6183
:104E90001A46126942F001021A6100BF4FF0E02287
:104EA000106900F001021AB100F48032002AF5D036
:104EB0004FF0E022126922F001024FF0E0231A6164
:104EC00000229A61704700003C00002000127A0026
:104ED0009C0000209E000020014600BF704770B576
:104EE00004460D46E1B2854800F0E4FD00BF4021D4
:104EF000824800F04DFE0028F9D0204670BD10B564
:104F000086B004460121480400F041FC0121042040
:104F100000F030FC0420ADF8140003208DF81600DA
:104F200018208DF8170005A9754800F067F90820CA
:104F3000ADF8140004208DF8170005A9704800F0A2
:104F40005DF926208DF8000003208DF801008DF812
:104F5000020001208DF80300684600F078FE0194FD
:104F60000020ADF80800ADF80A00ADF80C00ADF86F
:104F700010000C20ADF80E0001A9604800F0A1FC63
:104F8000012240F225515D4800F033FD01215B48CC
:104F900000F023FD06B010BD10B586B00446012117
:104FA00044F2040000F0E6FB4FF40070ADF814008A
:104FB00003208DF8160018208DF8170005A9504819
:104FC00000F01CF94FF48060ADF8140004208DF857
:104FD000170005A94A4800F011F925208DF80000B6
:104FE00001208DF8010003208DF8020001208DF8CA
:104FF0000300684600F02BFE01940020ADF8080085
:10500000ADF80A00ADF80C00ADF810000C20ADF8BA
:105010000E0001A93B4800F054FC012240F225514A
:10502000384800F0E6FC0121364800F0D6FC06B016
:1050300010BD10B540F22551304800F0BFFD0028EA
:105040005BD040F225512D4800F0E2FD2B4800F0E6
:1050500035FDC4B25A2C09D100202B4908702B49C8
:1050600008702B4908702B49087046E0412C0AD182
:10507000012025490870002024490870244908703F
:105080002449087039E0452C0BD100201E490870D6
:1050900001201E49087000201D4908701D49087034
:1050A0002BE0422C03D0432C01D0442C0AD1002009
:1050B00015490870154908701549087001201549EF
:1050C00008701AE0462C03D0472C01D0482C0BD195
:1050D00000200D4908700D49087001200C49087026
:1050E00000200C49087008E00020074908700749B3
:1050F0000870074908700749087010BD0044004057
:105100000008014000380140AC000020AD00002044
:10511000AE000020AF000020064880470648004748
:10512000FEE7FEE7FEE7FEE7FEE7FEE7FEE7FEE757
:10513000FEE7FEE7EF0500083101000810B5044660
:10514000CC48844208D10121042000F02DFB00212D
:10515000042000F029FB46E0C748844208D1012121
:10516000082000F021FB0021082000F01DFB3AE0A0
:10517000C248844208D10121102000F015FB002113
:10518000102000F011FB2EE0BD48844208D101211F
:10519000202000F009FB0021202000F005FB22E088
:1051A000B848844208D10121402000F0FDFA0021D6
:1051B000402000F0F9FA16E0B348844208D10121FA
:1051C000802000F0F1FA0021802000F0EDFA0AE0E2
:1051D000AE48844207D10121801500F0E5FA002194
:1051E000A01500F0E1FA10BD10B50121084600F04D
:1051F000DBFA0021012000F0D7FA10BD2DE9F041C3
:10520000024600250026002000230024002791F8F4
:1052100003C00CF00F0591F803C00CF0100CBCF1AA
:10522000000F03D091F802C04CEA050591F800C0C8
:10523000BCF1000F31D0146800202BE04FF0010CBE
:105240000CFA00F3B1F800C00CEA03069E4220D12C
:1052500083004FF00F0C0CFA03F7BC4305FA03FC74
:105260004CEA040491F803C0BCF1280F06D14FF0BA
:10527000010C0CFA00FCC2F814C00AE091F803C05B
:10528000BCF1480F05D14FF0010C0CFA00FCC2F83C
:1052900010C0401C0828D1D31460B1F800C0BCF184
:1052A000FF0F34DD546800202EE000F1080C4FF0B1
:1052B000010808FA0CF3B1F800C00CEA03069E429C
:1052C00021D183004FF00F0C0CFA03F7BC4305FA11
:1052D00003FC4CEA040491F803C0BCF1280F05D18B
:1052E00000F1080C08FA0CF8C2F8148091F803C019
:1052F000BCF1480F07D100F1080C4FF0010808FA83
:105300000CF8C2F81080401C0828CED35460BDE8C9
:10531000F0814FF6FF710180022181700421C1707C
:1053200070470246002093680B400BB1012000E05B
:10533000002070470146886880B27047024600200E
:10534000D3680B400BB1012000E0002070470146FC
:10535000C86880B2704701617047416170470AB107
:10536000016100E041617047C16070474FF48032D5
:105370000A43826181618261826982697047024663
:105380000020434B18684FF68073184040EA021023
:1053900008433F4B186070473E49C8617047F0B5FD
:1053A0000A46002300240021002500F00046B6F143
:1053B000004F02D1364EF16901E0354E7168C0F3FD
:1053C000034583B200F44016B6F5401F08D121F022
:1053D00070612F4E766826F070662D4F7E6012E069
:1053E00000F48016B6F5801F06D1032606FA05F4F0
:1053F000A14341F0706106E0460D360103FA06F65E
:10540000B14341F0706122B1460D360103FA06F650
:10541000314300F00046B6F1004F02D11C4EF1615D
:1054200001E01B4E7160F0BD30B500228B071C0FF0
:105430000F2303FA04F2164B08338C1053F8243070
:105440009343134C08348D1044F8253023468C10B8
:1054500053F824308C07240F00FA04F423430C4C37
:1054600008348D1044F8253030BD0A49DC3108601D
:105470007047000000080140000C0140001001408E
:105480000014014000180140001C014000200140B0
:105490000000014000002042DF48006840F00100A9
:1054A000DD49086008464068DC490840DA49486040
:1054B00008460068DA490840D7490860084600688D
:1054C00020F4802008600846406820F4FE00486010
:1054D0004FF41F0088607047CF49096821F480317C
:1054E000CD4A11601146096821F480211160B0F5A0
:1054F000803F03D0B0F5802F0ED106E0C649096881
:1055000041F48031C44A116007E0C349096841F49D
:10551000A021C14A116000E000BF00BF704710B574
:1055200001460022002300204A11012A02D1BA4C70
:10553000236806E0022A02D1B74C236A01E0B64C88
:10554000636A01F01F02012494401C400CB1012049
:1055500000E0002010BD38B5002000900024002598
:1055600000BF3120FFF7DBFF05460098401C00908C
:105570000098B0F5A06F01D0002DF2D03120FFF7D8
:10558000CEFF08B1012400E00024204638BD0146CA
:105590000020A14A106820F0F80040EAC100106025
:1055A0007047A04908607047024600209A4B58682F
:1055B00020F47C1042EA01031843974B586070476F
:1055C00098490866704701460020934A506820F0C9
:1055D00003000843506070478F48406800F00C009B
:1055E0007047014600208C4A506820F0F0000843C4
:1055F0005060704701460020874A506820F4E06000
:1056000008435060704701460020834A506820F4E8
:10561000605040EAC1005060704729B17E4A527A1A
:1056200002437D4B5A7204E07B4A527A82437A4BA2
:105630005A7270477B49D831086070470146002094
:10564000754A506820F4404008435060704700217C
:10565000714A20321170704A82F82010012802D05D
:1056600004280AD104E001216B4A2032117005E0C0
:105670000521694A2032117000E000BF00BF704769
:105680006949086070476449096A0143624A1162C6
:105690007047654944390860704730B500210022E1
:1056A000002400235C4D6D6805F00C0121B1042934
:1056B00005D0082923D105E05C4D056022E05B4D53
:1056C00005601FE0544D6D6805F47012524D6D6811
:1056D00005F48034022505EB92421CB9544D554324
:1056E00005600BE04C4D6D6805F400351DB1504D63
:1056F0005543056002E04D4D5543056002E04B4DBA
:10570000056000BF00BF444D6D6805F0F001090958
:10571000484D6B5C0568DD4045603F4D6D6805F4A4
:10572000E061090A434D6B5C4568DD4085603A4D98
:105730006D6805F46051C90A3E4D6B5C4568DD40FB
:10574000C560354D6D6805F44041890B3A4D6B5C81
:10575000C568B5FBF3F5056130BD29B12E4A526924
:1057600002432D4B5A6104E02B4A526982432A4B73
:105770005A61704729B1284A92690243264B9A61BF
:1057800004E0254A92698243234B9A61704729B10C
:10579000214AD2690243204BDA6104E01E4AD269F1
:1057A00082431D4BDA61704729B11B4AD26802431C
:1057B000194BDA6004E0184AD2688243164BDA606B
:1057C000704729B1144A12690243134B1A6104E06D
:1057D000114A12698243104B1A61704712494039CD
:1057E000086070470F49C86470470B49C87170471B
:1057F0000948406A40F08070074948627047014696
:105800000020054A92680A400AB1012000E0002009
:105810007047014988727047001002400000FFF88D
:10582000FFFFF6FE000042428004424200127A006E
:1058300000093D00B0000020C000002010B5044663
:10584000FB48844209D101218803FFF7ADFF002105
:105850004FF48040FFF7A8FF32E0F648844209D1B8
:1058600001214804FFF7ADFF00214FF40030FFF79E
:10587000A8FF25E0F048844209D101218804FFF700
:10588000A0FF00214FF48020FFF79BFF18E0EB48BA
:10589000844209D10121C804FFF793FF00214FF48E
:1058A0000020FFF78EFF0BE0E548844208D101217C
:1058B0000805FFF786FF00214FF48010FFF781FFF6
:1058C00010BD2DE9F04786B005460E460024A246DD
:1058D00000BFA1460027B08900B100BF2F462C8A27
:1058E0004CF6FF700440F08804432C82AC894EF6DD
:1058F000F3100440B0883189084371890843044398
:10590000AC81AC8A4FF6FF400440B0890443AC82BE
:1059100001A8FFF7C2FEC648874202D1DDF810A0F9
:1059200001E0DDF80CA0A88900F4004040B10AEBCA
:10593000CA0000EB0A1031684900B0FBF1F807E03B
:105940000AEBCA0000EB0A1031688900B0FBF1F8DD
:105950006420B8FBF0F004012009642101FB1089E8
:10596000A88900F4004040B1322000EBC900B0FB30
:10597000F1F000F00700044308E0322000EB0910CA
:105980006421B0FBF1F000F00F0004432C8106B05D
:10599000BDE8F0874FF41651016000218180C1807D
:1059A00001810C21418100218181704710B502469F
:1059B0000020108A4FF2FF0318400B884C882343C5
:1059C0008C882343CC8823431843108210BD0021C8
:1059D000018041808180C180704721B1828942F479
:1059E0000052828104E082894DF6FF731A40828161
:1059F0007047F0B50346002400260025002040F63D
:105A00006A17B94200D100BF1846C1F3421401F031
:105A10001F06012707FA06F5012C01D10C3004E01E
:105A2000022C01D1103000E014301AB107682F4366
:105A3000076002E00768AF430760F0BD1AB1838AD0
:105A40000B43838202E0838A8B4383827047028AFE
:105A50004FF6F0731A400282028A0A4302827047AC
:105A600082894FF2FF731A40828182890A438281C0
:105A7000704721B1828942F00202828104E082896A
:105A80004FF6FD731A4082817047028A4FF6DF732A
:105A90001A400282028A0A430282704721B1028AB6
:105AA00042F48042028204E0028A4BF6FF731A40FD
:105AB00002827047C1F308028280704701468888DD
:105AC000C0F308007047818941F00101818170476E
:105AD000028BD2B20283028B42EA01220283704718
:105AE000028B02F47F420283028B0A4302837047D7
:105AF00021B1828A42F02002828204E0828A4FF63B
:105B0000DF731A408282704721B1828A42F010020C
:105B1000828204E0828A4FF6EF731A4082827047D5
:105B200021B1828A42F00802828204E0828A4FF622
:105B3000F7731A408282704721B1828942F4004291
:105B4000828103E08289C2F30E028281704721B113
:105B5000828A42F40062828204E0828A4FF2FF73FA
:105B60001A4082827047828A4FF6FB731A40828203
:105B7000828A0A438282704721B1828A42F00202FD
:105B8000828204E0828A4FF6FD731A408282704757
:105B900002460020B1F5007F00D100BF13880B4002
:105BA0000BB1012000E00020704701F40072B2F553
:105BB000007F00D100BFCA430280704770B5024623
:105BC000002400230025002040F66A16B14200D1CF
:105BD00000BFC1F3421501F01F03012606FA03F3CB
:105BE000012D02D19689334006E0022D02D1168A9A
:105BF000334001E0968A33400C12012606FA04F481
:105C00001688344013B10CB1012000E0002070BDB3
:105C100010B50022002340F66A14A14200D100BF53
:105C20000A1201249440A3B2DC43048010BD00009A
:105C3000003801400044004000480040004C004053
:105C40000050004031490143314A1160704770B53E
:105C5000002100230F22C47804B32D4C246804F4DF
:105C6000E064C4F5E064210AC1F10403CA40447849
:105C700004FA03F18478144021430901254C067885
:105C8000A155047804F01F050124AC4005786D117E
:105C9000AD0005F1E025C5F8004109E0047804F005
:105CA0001F050124AC401C4D0678761145F82640AE
:105CB00070BD1A4A0A400243154B1B1F1A607047F9
:105CC00039B1134A121D12680243114B1B1D1A6091
:105CD00006E00F4A121D126882430D4B1B1D1A600D
:105CE0007047042808D14FF0E021096941F0040110
:105CF0004FF0E022116107E04FF0E021096921F047
:105D000004014FF0E0221161704700000000FA0525
:105D10000CED00E000E400E080E100E080FFFF1F08
:105D200010B50446FE48844208D10121C014FFF793
:105D30003BFD0021E014FFF737FDC4E0B4F1804FD4
:105D400008D101210846FFF73CFD00210120FFF7A3
:105D500038FDB8E0F348844208D101210220FFF762
:105D600030FD00210220FFF72CFDACE0EE4884421C
:105D700008D101210420FFF724FD00210420FFF7B2
:105D800020FDA0E0E948844208D101210820FFF766
:105D900018FD00210820FFF714FD94E0E448844238
:105DA00008D101211020FFF70CFD00211020FFF782
:105DB00008FD88E0DF48844208D101212020FFF758
:105DC00000FD00212020FFF7FCFC7CE0DA48844243
:105DD00008D101214014FFF7E7FC00216014FFF710
:105DE000E3FC70E0D548844209D10121C804FFF7E3
:105DF000DBFC00214FF40020FFF7D6FC63E0D04825
:105E0000844209D101210805FFF7CEFC00214FF49F
:105E10008010FFF7C9FC56E0CA48844209D101212D
:105E20004805FFF7C1FC00214FF40010FFF7BCFC50
:105E300049E0C548844208D101214020FFF7C1FC58
:105E400000214020FFF7BDFC3DE0C048844208D15E
:105E500001218020FFF7B5FC00218020FFF7B1FC75
:105E600031E0BB48844208D101218015FFF7A9FC2D
:105E70000021A015FFF7A5FC25E0B648844209D112
:105E800001210804FFF790FC00214FF48030FFF758
:105E90008BFC18E0B048844209D101214804FFF787
:105EA00083FC00214FF40030FFF77EFC0BE0AB4891
:105EB000844208D101218804FFF776FC00214FF4C9
:105EC0008020FFF771FC10BD00220288944B98429D
:105ED0000ED0994B98420BD0B0F1804F08D0914B27
:105EE000984205D0904B984202D0904B984204D1F2
:105EF0004FF68F731A404B881A438D4B984207D048
:105F00008C4B984204D04FF6FF431A40CB881A437B
:105F100002808B8883850B880385814B98420BD048
:105F2000854B984208D08B4B984205D08A4B9842BB
:105F300002D08A4B984201D10B7A038601238382D7
:105F4000704770B5002400220023058C4FF6FE76C2
:105F500035400584028C8388048B4FF68F752C4066
:105F6000B51E2C400D882C43751E2A400D892A43EE
:105F70004D882A436A4DA8420BD06F4DA84208D0E5
:105F8000744DA84205D0744DA84202D0734DA8426A
:105F900013D14FF6F7752A404D892A434FF6FB750A
:105FA0002A408D882A434FF6FF652B404FF6FF5558
:105FB0002B408D892B43CD892B4383800483CD884F
:105FC0008586028470BD70B5002400220023058CF4
:105FD0004FF6EF7635400584028C8388048B48F6B3
:105FE000FF752C404FF6FF452C400D884FF6FF768D
:105FF00006EA05252C434FF6DF752A400D8906EA8F
:1060000005152A434D8806EA05152A43444DA84242
:1060100002D0494DA8421DD14FF67F752A404D89C7
:106020004FF6FF7606EA05152A434FF6BF752A405C
:106030008D8806EA05152A434FF6FF352B404FF2AF
:10604000FF752B408D8906EA85052B43CD8906EA2D
:1060500085052B4383800483CD880587028470BD2A
:1060600070B5002400220023058C4FF6FF663540F2
:106070000584028C8388848B4FF68F752C404FF6F5
:10608000FC752C400D882C434FF6FF552A400D8996
:106090004FF6FF7606EA05252A434D8806EA0525D0
:1060A0002A431F4DA84202D0234DA8421DD14FF2D2
:1060B000FF752A404D894FF6FF7606EA05252A43EB
:1060C0004FF6FF352A408D8806EA05252A434EF60D
:1060D000FF752B404DF6FF752B408D8906EA05159F
:1060E0002B43CD8906EA05152B4383808483CD8815
:1060F0008587028470BD70B5002200230024058CC2
:106100004EF6FF7635400584038C8488828B48F6F2
:10611000FF752A404FF6FF452A400D8820E0000019
:10612000002C01400004004000080040000C00402A
:10613000001000400014004000340140004C0140B9
:10614000005001400054014000180040001C004075
:106150000020004000400140004401400048014050
:106160004FF6FF7606EA05252A434DF6FF752B40CC
:106170000D8906EA05352B434D8806EA05352B4384
:10618000FA4DA84202D0FA4DA84208D14BF6FF754D
:106190002C408D894FF6FF7606EA85152C438480C6
:1061A0008283CD88A0F84050038470BD828B4FF26B
:1061B000FF331A408283828B4FF6FF7303EA012379
:1061C0001A4382837047F0B50C4615460022002121
:1061D0000026078C4EF6FF7C07EA0C070784828BAB
:1061E000018C4FF6FF7707EA043640F6FF473A4046
:1061F0004FF6FF7707EA05273A434FF6FF7707EA9E
:1062000003373A43D94FB8420ED0D94FB8420BD0DA
:10621000B0F1804F08D0D74FB84205D0D64FB84222
:1062200002D0D64FB84206D14DF6FF77394046F43A
:106230008057394305E047F6FF57394044F480570B
:10624000394382830184F0BD828B4FF6F3731A4089
:106250008283828B0A4382837047F0B50C461546D1
:10626000002200210026078C4FF6FF6C07EA0C077E
:106270000784828B018C4FF6FF7707EA04264FF6DE
:106280000C773A404FF6FF7707EA03172F433A435C
:10629000B64FB8420ED0B64FB8420BD0B0F1804FD7
:1062A00008D0B44FB84205D0B34FB84202D0B34F74
:1062B000B84206D14FF6FF57394046F4807739434C
:1062C00005E04FF2FF57394044F480773943828329
:1062D0000184F0BD028B4FF2FF331A400283028B20
:1062E0004FF6FF7303EA01231A4302837047F0B5A8
:1062F0000C461546002200210026078C4FF6EF7C45
:1063000007EA0C070784028B018C4FF6FF7707EA38
:10631000041640F6FF473A404FF6FF7707EA033787
:106320003A434FF6FF7707EA05273A438F4FB842C3
:106330000ED08F4FB8420BD0B0F1804F08D08D4FA8
:10634000B84205D08C4FB84202D08C4FB84206D12B
:106350004FF6DF77394046F01007394305E04FF636
:106360005F77394044F01007394302830184F0BD60
:10637000028B4FF6F3731A400283028B0A430283A7
:106380007047F0B50C46154600220021068C4FF6EA
:10639000FE773E400684028B018C4FF60C7632402D
:1063A0007E1C06EA03162E433243704EB0420ED0D6
:1063B0006F4EB0420BD0B0F1804F08D06D4EB0425E
:1063C00005D06D4EB04202D06C4EB04206D14FF6B1
:1063D000FD76314044F00106314305E04FF6F57695
:1063E000314044F00106314302830184F0BD70B5B1
:1063F00005460C465D4885420ED05D4885420BD06F
:10640000B5F1804F08D05B48854205D05A48854297
:1064100002D05A48854200D100E000BF208850B920
:106420002389A28861882846FFF7ABFFE1882846C8
:10643000FFF79EFF25E0208804280AD12389A2883F
:1064400061882846FFF753FFE1882846FFF742FF9F
:1064500017E0208808280AD12389A2886188284665
:10646000FFF7FBFEE1882846FFF7EEFE09E02389EF
:10647000A28861882846FFF7A6FEE1882846FFF734
:1064800095FE70BD2DE9F04105460C46002601271A
:10649000608808B9022600E00026A088012801D102
:1064A000022700E001272088A0B92389A2886188FB
:1064B0002846FFF766FFE1882846FFF759FF238942
:1064C0003A4631462846FFF712FFE1882846FFF793
:1064D00001FF13E02389A28861882846FFF707FFA0
:1064E000E1882846FFF7F6FE23893A4631462846DA
:1064F000FFF747FFE1882846FFF73AFFBDE8F08144
:106500000A884B881A438B881A43CB881A430B8915
:106510001A434B891A438B891A43A0F844207047C9
:106520004FF6FF71818000210180C180418001729E
:1065300070470021018041808180C18001814181BB
:106540008181C181704700210180418001218180CA
:106550000021C1800181704700210180418081803C
:10656000C18001814181818170470000002C014080
:10657000003401400004004000080040000C0040CE
:1065800021B1028842F00102028004E002884FF645
:10659000FE731A400280704731B1B0F8442042F4D3
:1065A0000042A0F8442005E0B0F84420C2F30E02F7
:1065B000A0F8442070471AB183890B43838102E01D
:1065C00083898B43838170478182704741EA02034C
:1065D000A0F8483070471AB183890B43838102E0E9
:1065E00083898B438381704701894FF6F87211408C
:1065F000018170470A46002101894FF68F731940C7
:1066000011430181704730B504460D4629462046A6
:10661000FFF7F0FF208940F00700208130BD2DE911
:10662000F04104460D4616461F46602D06D13B46F6
:10663000012231462046FFF75AFE05E03B46012283
:1066400031462046FFF79DFE29462046FFF7D2FF40
:10665000208940F007002081BDE8F08130B50C466C
:1066600000210189C9B24FF6FF7505EA03251543DC
:1066700025432943018130BD2DE9F04105460E46F1
:1066800017469846002443463A4631462846FFF7C7
:10669000E5FF2C894FF6F870044044F007044FF6EC
:1066A0008F70044044F070042C81BDE8F081F0B597
:1066B00004460D4616461F463B46324629462046AE
:1066C000FFF7CCFF208940F480402081F0BD018598
:1066D000828270470A46002101884FF68F73194065
:1066E000114301807047F0B50C4615461E46002147
:1066F000002200230189028B038C4FF6F877394082
:1067000021434FF6FC473A4040F201173A434FF617
:10671000DD773B404FF6FF7707EA06172F433B43F1
:10672000018102830384F0BD0A460021018B4FF6EC
:106730008F7319401143018370470A460021018B72
:1067400048F6FF7319404FF6FF7303EA022319431B
:10675000018370470A460021818B4FF68F731940E1
:106760001143818370470A460021818B48F6FF73ED
:1067700019404FF6FF7303EA0223194381837047E0
:1067800021B1028842F08002028004E002884FF6C4
:106790007F731A400280704721B1828842F0040260
:1067A000828004E082884FF6FB731A408280704733
:1067B00021B1828842F00802828004E082884FF68C
:1067C000F7731A408280704721B1828842F001023B
:1067D000828004E082884FF6FE731A408280704700
:1067E0000A460021018B4FF6F773194011430183CC
:1067F00070470A460021018B4FF2FF7319404FF694
:10680000FF7303EA02231943018370470A460021FC
:10681000818B4FF6F77319401143818370470A4605
:106820000021818B4FF2FF7319404FF6FF7303EA8B
:1068300002231943818370470A460021018B4FF6DA
:10684000FB7319401143018370470A460021018BF5
:106850004FF6FF3319404FF6FF7303EA0223194343
:10686000018370470A460021818B4FF6FB73194064
:106870001143818370470A460021818B4FF6FF3315
:1068800019404FF6FF7303EA0223194381837047CF
:106890000A460021018B4FF67F7319401143018393
:1068A00070470A460021018BC1F30E014FF6FF73BA
:1068B00003EA02231943018370470A460021818BB2
:1068C0004FF67F7319401143818370470A460021B8
:1068D000818BC1F30E014FF6FF7303EA02231943C4
:1068E000818370470A460021018C4FF6FD731940E1
:1068F0001143018470470A460021018C4FF6F7735B
:1069000019401143018470470A460021018C4FF65B
:10691000DF7319404FF6FF7303EA02131943018432
:1069200070470A460021018C4FF67F7319404FF6DD
:10693000FF7303EA02131943018470470A460021DA
:10694000018C4FF6FF5319404FF6FF7303EA022301
:106950001943018470470A460021018C4FF2FF73EE
:1069600019404FF6FF7303EA02231943018470476D
:106970000A460021018C4DF6FF7319404FF6FF7354
:1069800003EA023319430184704730B50023012420
:106990008C40A3B2048C9C430484048C02FA01F55D
:1069A000ADB22C43048430BD30B5002304248C40A8
:1069B000A3B2048C9C430484048C02FA01F5ADB2AA
:1069C0002C43048430BD70B50346002000241846D3
:1069D000183001258D40ACB21D8CA5431D8409B132
:1069E000082909D100EB6100056825F070050560F4
:1069F0000568154305600EE00D1FC5F34E052844DC
:106A0000056825F4E045056005684FF6FF7606EA5F
:106A100002263543056070BD21B1028842F00202B2
:106A2000028004E002884FF6FD731A40028070472E
:106A300021B1028842F00402028004E002884FF68D
:106A4000FB731A400280704721B1828842F08002B5
:106A5000828004E082884FF67F731A4082807047FC
:106A600002884FF6F7731A40028002880A430280B8
:106A7000704782884FF68F731A40828082880A435B
:106A80008280704702894FF6F8731A4002810289AA
:106A90000A430281704702894FF67F731A400281D0
:106AA00002890A430281704781847047818570475B
:106AB000818670470187704781877047A0F8401032
:106AC000704702884FF6FF431A40028002880A434B
:106AD000028070470146888E70470146088F7047D4
:106AE0000146888F70470146B1F840007047014663
:106AF000888C70470146088D704702460020138A33
:106B00000B400BB1012000E000207047CA43028215
:106B1000704730B50246002000230024158A05EA9C
:106B20000103958905EA010413B10CB1012000E0CD
:106B3000002030BDCA43028270472DE9F041002495
:106B4000061B254671F1000605DA01240027D0EB6B
:106B5000070067EB0101161E73F1000605DA002736
:106B6000D2EB0702012567EB030300F015FB864615
:106B70000E4617469C46AC4204D00025D0EB050ECD
:106B800065EB010624B10020D2EB000760EB030C9B
:106B9000704631463A466346BDE8F081D2B201E024
:106BA00000F8012B491EFBD270470022F6E710B512
:106BB00013460A4604461946FFF7F0FF204610BD6B
:106BC00030B504460020034600E05B1C934203D22C
:106BD000E05CCD5C401BF8D030BDF0B480EA01022F
:106BE000D40F4200B2EB410F02D2024608461146D2
:106BF0004A0042D0C30DDDB2C1F3C752AD1A202DF9
:106C000035DAC1F3160141F4000204B15242C5F174
:106C1000200602FA06F12A411044B3EBD05F23D0DC
:106C2000C4B1012DA0EBC35009DCF0BC4FF0004211
:106C300002EAC352DBB200F5000000F008BB4000DE
:106C400000F1807000EBC350A0F1807040EAD17079
:106C5000490009E0490841EAC071A0EBC35000F5C2
:106C60000000400800EBC350F0BC00F0E7BA6142FE
:106C7000012202EB4101001BF6E7F0BC704781F0F6
:106C80000041AAE780F00040A7E780EA010210B5C2
:106C900002F00043400022D04A001FD0010E01EB59
:106CA0001261C0F35600C2F3560240F4000042F4F1
:106CB0000002A0FB022000047F39140400D0401C15
:106CC00050EA124001D44000491EC2B20C0604EB47
:106CD000D010401C4008802A02D003E0002010BDE4
:106CE00020F00100002900DA0020184310BD30B464
:106CF00080EA010202F0004530F0004221F000403D
:106D000013D090B1C30DD40DC2F31601C0F3160019
:106D1000E41A41F4000140F400027D34914201D3B1
:106D2000641C00E04900002C02DA30BC00207047EF
:106D30004FF400000023914201D3891A0343400815
:106D40004FEA4101F7D151B1914202D14FF00041D8
:106D500005E002D24FF0010101E06FF0010103EB09
:106D6000C450284430BC00F069BA2DE9FE4F80467B
:106D700081EA0300C00F0C46009021F0004123F08F
:106D80000045B8EB0200A94105D240462146904695
:106D90001C460B46024623F00040104347D0270D07
:106DA000C7F30A00C3F30A510290401A0190402829
:106DB0006BDAC3F3130040F4801B0098924620B1B5
:106DC0000023D2EB030A63EB0B0B01985946C0F189
:106DD0004002504600F011FA06460D46504659460C
:106DE000019A00F019FA10EB08006141002487EACB
:106DF000115284EAE7731A4340D0009A62B3019AB1
:106E0000012A4FEA075215DC001B61EB02014FF02B
:106E1000004202EA0752CDE90042001C41F5801110
:106E200032462B4600F050FA03B0BDE8F08F4046E2
:106E30002146F9E7001B61EB0201001C41F58013BC
:106E400000185B412018A2F5001747EB030140EA48
:106E5000D570B6196D4111E06D084FEA360645EA66
:106E6000C0754FEA0752001B61EB0201001C41F59F
:106E7000801149084FEA30000019514132462B4633
:106E800003B0BDE8F04F00F010BA009801224000B6
:106E90000023D0EB020263EBE073009821464FEA37
:106EA000E074B8EB000061EB0401E9E783F0004314
:106EB0005BE781F0004158E72DE9FE4F81EA0304CA
:106EC00004F0004421F0004100944FF0000B23F047
:106ED000004350EA01045ED052EA03045BD0C3F3DE
:106EE0000A54C1F30A552C44A4F2F3340194A0FBD4
:106EF0000254C1F3130141F48011C3F3130343F4AB
:106F0000801301FB024400FB034E840A970A44EA03
:106F1000815447EA8357A4FB076802958D0A05FB55
:106F200007854FEA932C04FB0C542705029D4FEA7A
:106F3000065847EA1637B5EB08056EEB070C870EC7
:106F4000920E47EA811742EA8312A7FB0201B6EBD1
:106F50000B0164EB00042B0D43EA0C335E1844EB89
:106F60001C50DA465146E7FB0201C5F313044FEA11
:106F70000B3343EA14534FEA0432019C43EA0603FD
:106F8000A4F10C040294009CCDE900B400F09CF93B
:106F900003B0BDE8F08F00200146F9E72DE9F04D80
:106FA00081EA030404F0004B21F0004514464FF041
:106FB000000A23F0004150EA050220D054EA010201
:106FC0001DD0C5F30A570246C5F31303C1F31300DE
:106FD000C1F30A5640F4801543F48013A7EB06086A
:106FE000101BD64608F2FD3873EB050002D308F1FA
:106FF000010801E092185B41B8F1000F03DA0020AC
:107000000146BDE8F08D00204FF48011064684460D
:107010000EE0171B73EB050705D3121B63EB05038B
:1070200006434CEA010C49084FEA300092185B41D4
:1070300050EA0107EDD152EA030012D082EA0400BF
:1070400083EA0501084305D0101BAB4106D201229B
:10705000002306E000224FF0004302E06FF001023F
:1070600053101AEB06004CEB085110EB0A0041EBF1
:107070000B01BDE8F04D00F018B9C10F80EAE070D7
:107080000844CA079623002100F0E1B896230022A5
:10709000114600F0DCB80EB5C10F80EAE07008447C
:1070A000CA07002140F233438DE80E000A460B4622
:1070B00000F00AF903B000BD00F0004220F00040EB
:1070C000C10DC0F3160040F400007F2901DA002052
:1070D0007047962903DCC1F19601C84001E096395A
:1070E0008840002AF4D04042704720F00040C10D93
:1070F000C0F3160040F400007F2901DA0020704739
:10710000962903DCC1F19601C84070479639884042
:10711000704700F0004230F000400AD0C10D01F588
:107120006071C0F3160042EA0151C20840071143E2
:10713000704700200146704701F0004330B421F051
:10714000004150EA010206D00A0DA2F56072C1F3B7
:107150001301002A02DC30BC00207047440F44EACF
:10716000C104C100E01830BC00EBC25000F066B8AA
:10717000002801DBC0F10040002901DBC1F1004122
:1071800081427047002801DBC0F10040002901DB8B
:10719000C1F10041884270472DE9F05F05460020AB
:1071A00092469B4688460646814640241BE0284678
:1071B00041464746224600F0FFF853465A46C01A59
:1071C000914110D311461846224600F016F82D1AA8
:1071D00067EB01084F4622460120002100F00DF820
:1071E00017EB00094E41201EA4F10104DFDC4846E4
:1071F00031462A464346BDE8F09F202A04DB203A68
:1072000000FA02F1002070479140C2F1200320FAF9
:1072100003F3194390407047202A06DBCB17203A2E
:1072200041FA02F043EAE07306E041FA02F3D0408B
:10723000C2F1200291400843194670470029A8BFB7
:107240007047401C490008BF20F00100704710B48F
:10725000B0FA80FC00FA0CF050EA010404BF10BC44
:10726000704749B1CCF1200421FA04F411FA0CF171
:1072700018BF012121430843A3EB0C01CB1D4FEAAA
:1072800000614FEA102042BF002010BC704700EBA5
:10729000C35010440029A4BF10BC7047401C4900D3
:1072A00008BF20F0010010BC704710B5141E73F128
:1072B000000408DA401C41F1000192185B411A43B6
:1072C00001D120F0010010BD2DE9F04D92469B4602
:1072D00011B1B1FA81F202E0B0FA80F220329046A8
:1072E000FFF78BFF04460F4640EA0A0041EA0B0114
:1072F00053465A46084313D0114653EA010019D0A9
:10730000C8F14002504600F057F805460E46504678
:1073100059464246FFF771FF084305D0012004E0BB
:1073200020463946BDE8F08D0020054346EAE07668
:107330002C4337430A986305E40AA0EB08000022B7
:10734000FD0A44EA47540A3002D500200146E9E725
:10735000010510196941DDE9084500196941BDE8D9
:10736000F04DA2E770B521F0004303430CD0C1F308
:107370000A550024D5EB040564EB0403D617AD1AB7
:10738000B34102DB0020014670BD201841EB0251E1
:1073900070BD0000064C074D06E0E06840F00103B8
:1073A00094E8070098471034AC42F6D3F8F7C4FECF
:1073B000E894000808950008202A04DB203A21FA06
:1073C00002F00021704721FA02F3D040C2F12002FE
:1073D00091400843194670472DE9F04D00231A46A5
:1073E0001B1A8A4103DB00200146BDE8F08DC1F382
:1073F0000A52C1F3130141F480154FF0000BD1077D
:1074000002D100186D41521E0027044640F2FF11C0
:10741000384601EB620A3E468046024600204FF4A1
:107420008011FFF7C9FFC2197141BB1846EB01007B
:10743000B4EB030C75EB000C04D3E41A65EB000508
:1074400017460E46241908F101006D418046342884
:10745000E3DDF91946EB0600091BA84103D24FF002
:10746000FF32134601E0002213461BEB070046EBF8
:107470000A51BDE8F04DFFF718BF00000FB4054BEF
:1074800010B503A9044A029800F09AF810BC5DF800
:1074900014FB0000DF4E0008A0000020490050EA65
:1074A000C12018BF04204A0D18BF40F0010040F26F
:1074B000FF72B2EB515F08BF40F00200012808BF25
:1074C000052070472DE9F0414F1E00EBC70104462F
:1074D000D1E9000115461E4637F006020DD02A46B6
:1074E0003346FFF7E9FC7F1E04EBC703D3E9002313
:1074F000FFF73BFC37F00602F1D1022F25D0042F15
:1075000013D0062F18BFBDE8F0812A463346FFF797
:10751000D3FCD4E90A23FFF728FC2A463346FFF7B9
:10752000CBFCD4E90823FFF720FC2A463346FFF7BB
:10753000C3FCD4E90623FFF718FC2A463346FFF7BD
:10754000BBFCD4E90423FFF710FC2A463346FFF7BF
:10755000B3FCD4E90223FFF708FC2A463346FFF7C1
:10756000ABFCD4E90023BDE8F041FFF7FEBB0122EC
:10757000FFF7F8BEFFF7F9BB00221346104611468D
:10758000FFF70CBD024A00201107FFF7EBBE000019
:1075900001FDFFFF02E008C8121F08C1002AFAD14E
:1075A00070477047002001E001C1121F002AFBD183
:1075B000704700000149086070470000C4000020C7
:1075C0002DE9FF4F8DB00F460546002606E0252821
:1075D0000BD0DDE90F1290476D1C761C287800282F
:1075E000F5D111B03046BDE8F08F0024A246A14687
:1075F0000122EC4900E0044315F8013F203B02FA68
:1076000003F00842F7D128782A2810D06FF02F0213
:107610002878A0F13001092914D80AEB8A0102EB7D
:10762000410144F0020400EB010A6D1CF0E701CFB8
:107630005FEA000A03D544F40054CAF1000A44F09A
:1076400002046D1C28782E2817D115F8010F44F07C
:1076500004042A280ED06FF02F022878A0F1300100
:1076600009290AD809EB890102EB410100EB010964
:107670006D1CF2E757F8049B6D1C28786C280FD01E
:1076800006DC4C2817D068280DD06A2814D104E0F5
:10769000742810D07A280FD10DE044F400140AE0C9
:1076A00044F4801401E044F440146978814202D12A
:1076B00004F580146D1C6D1C2A786E2A1FD00CDC1A
:1076C000632A31D004DC002A8BD0582A11D1A3E0E0
:1076D000642A68D0692A0CD165E0732A2ED004DCB4
:1076E0006F2A73D0702A04D19BE0752A6FD0782A54
:1076F0006ED01046DDE90F129047761C50E1C4F3BE
:107700000250022806D0032809D0042801CF09D04E
:10771000066045E101CFF117C0E9006140E101CF0A
:1077200006803DE106703BE117F8040B8DF8000080
:1077300000208DF80100EB46012003E057F804BB60
:107740004FF0FF3061074FF0000102D40DE008F167
:107750000101884649450FDA8045F8DB1BF808101F
:107760000029F4D108E008F1010188468142FADBE2
:107770001BF808100029F6D1DDE90F23AAEB080059
:107780008146214600F036F9304400EB080604E05B
:10779000DDE90F121BF8010B9047B8F10108F7D291
:1077A00021464846F7E00A21C4F302534FF0000B8C
:1077B0000891022B04D001CFC117032B09D00AE096
:1077C000FF1D27F00707F7E8020108E032E01FE09D
:1077D00020E000B2C117042B01D140B2C117031E33
:1077E00071F1000307DA4FF0000CD0EB0C006CEBEA
:1077F00001012D2302E0230504D52B238DF824302D
:10780000012303E0E30701D02023F7E7984658E07F
:107810000A2110E010210EE010204FF0000B08901C
:107820000CE010214FF0000B44F004044FF0080965
:10783000089103E008214FF0000B0891C4F30253B4
:10784000022B04D001CF0021032B06D006E0FF1D40
:1078500027F00707F7E8020103E080B2042B00D10C
:10786000C0B24FF0000823072BD5702A07D0DDF8EF
:1078700020C08CF0100C5CEA0B0C05D00EE040230D
:107880008DF82430012308E050EA010306D03023AC
:107890008DF824308DF8252002239846DDF820C08D
:1078A0008CF0080C5CEA0B0C0BD150EA010301D1FF
:1078B000630706D530238DF824304FF00108A9F175
:1078C0000109582A04D038A20B9208AA0A920BE0A8
:1078D0003AA2F9E75B46089AFFF75EFC0B9B9B5CBC
:1078E0000A9A521E0A92137050EA0102F2D10A98C3
:1078F000ADEB000000F1200B600702D524F48034CA
:1079000001E04FF00109D94502DDA9EB0B0000E0D1
:10791000002000EB0B0141440890AAEB010AE003B0
:1079200006D4DDE90F232146504600F063F80644F3
:107930004FF0000908E009A911F80900DDE90F126C
:10794000904709F10109761CC145F4DBE0030CD531
:10795000DDE90F232146504600F04CF8064404E0D0
:10796000DDE90F1230209047761C0899481E0890D8
:107970000029F5DC08E00A980A990078491C0A9168
:10798000DDE90F129047761CBBF10001ABF1010B52
:10799000F1DC21465046DDE90F2300F019F80644DA
:1079A0006D1C1BE60928010030313233343536377F
:1079B000383961626364656600000000303132333B
:1079C00034353637383941424344454600000000DB
:1079D0002DE9F041044600251E461746880404D4CC
:1079E00005E039462020B0476D1C641EF9D52846B5
:1079F000BDE8F0812DE9F041044600251E46904681
:107A0000C80301D5302700E02027880404D505E00D
:107A100041463846B0476D1C641EF9D52846BDE87E
:107A2000F08100002DE9F04D8D4F21F0004A86B025
:107A300005460C46BA452ADBAAEB070028430AD0C4
:107A40008848824501DC1AD1CDB106B02846BDE890
:107A5000F04DFFF78CBD844A844B2846FFF72CFA83
:107A600007460E46824A834B28462146FFF724FAF2
:107A700006B03A463346BDE8F04DFFF776B901202F
:107A8000FFF798FD06B0BDE8F04DFFF775BD7A48E9
:107A9000824542DABAF1795F0BDA2846FFF7FEFC3D
:107AA000042808BFFFF76EFD284606B02146BDE852
:107AB000F08D2A460B461046FFF7FEF98346024634
:107AC0006E480E460B4606217844FFF7FBFC5A46EB
:107AD0003346FFF7F1F9804669488A465A463346ED
:107AE00004217844FFF7EEFC5A463346FFF7E4F9E9
:107AF00000223B46FFF739F902460B464046514605
:107B0000FFF74CFA2A462346FFF7D6F906B02A4675
:107B10002346BDE8F04DFFF728B9284624F0004180
:107B200000223D463B46FFF7C4F94FF0FF32FFF716
:107B300019FC0646024653480F460B460621784478
:107B4000FFF7C0FC32463B46FFF7B6F9CDE900012E
:107B50004D4832463B4604217844FFF7B3FC324699
:107B60003B46FFF7A9F900222B46FFF7FEF88346B4
:107B700002913046394600F05DFA804643480D4692
:107B8000504517DCDDE900015A46029BFFF706FA73
:107B900042462B46FFF790F942462B46FFF7E5F8A1
:107BA0000122FFF7DFFB304A304BFFF77FF9304A05
:107BB000304B4CE04FF0000A52460B464046FFF770
:107BC000D4F8CDE9031052462B4610461946FFF76C
:107BD00073F932463B46FFF76CF9DDE90332FFF7F4
:107BE000DDF906460F46DDE900015A46029BFFF724
:107BF000D5F983460091012230463946FFF7B2FBA2
:107C0000194A1A4BFFF755F906460F46012240461E
:107C10002946FFF7A7FB5A46009BFFF74DF932466E
:107C20003B46FFF743F906460F46012250462946D8
:107C3000FFF798FB0E4DDFF858802A464346FFF7C2
:107C400038F932463B46FFF734F92A464346FFF7F8
:107C500030F9002CD8BF81F0004106B0BDE8F08DAE
:107C60000000F03F0000F07F075C143326A6913C33
:107C7000182D4454FB21F93F0000E03FDC180000C0
:107C8000F2180000661800007C1800003333EF3F44
:107C9000FB21E93F2DE9F84F04460D4621F0004055
:107CA00000917349814211DC7249884201DC06D19E
:107CB0002CB120462946BDE8F84FFFF758BC6E4866
:107CC000002DCCBF6D496E49BDE8F88F6D498142EA
:107CD00011DD6D498142D8BF4FF0FF366DDD204682
:107CE0002946FFF7DBFB042808BFFFF74BFC2046C3
:107CF0002946BDE8F88F6549654F25F0004581426A
:107D000033DD6449814219DD002632464FF080435D
:107D100020462946FFF729F880468A460122204658
:107D20002946FFF71FFB00223B46FFF7BFF84246FC
:107D30005346FFF733F904460D463EE00126002284
:107D4000BA463B4620462946FFF70FF880460F46C5
:107D50000022534620462946FFF7A8F842463B46F4
:107D6000FFF71CF904460D4627E04B4981421BDD15
:107D7000DFF828A102260022534620462946FFF7B5
:107D80009BF800223B46FEF7F0FF80460F4600229C
:107D9000534620462946FFF789F842463B46FFF7FF
:107DA000FDF804460D4608E0032622462B46002037
:107DB0003B49FFF7F3F804460D4622462B46104692
:107DC0001946FFF779F88B46824602460B46FFF7C5
:107DD00073F807460246334888460B460621784426
:107DE000FFF770FB52465B46FFF766F882462E4867
:107DF0008B463A46434605217844FFF763FB3A46F3
:107E00004346FFF759F802460B46002E50465946A6
:107E10000CDAFEF7AAFF22462B46FFF74DF801B019
:107E200022462B46BDE8F04FFFF743B8FEF79DFF13
:107E300022462B46FFF740F81C4A7A4402EBC60361
:107E4000D3E90023FFF732F822462B46FFF72EF83E
:107E5000174A7A4402EBC603D3E90023FFF729F857
:107E6000009A002AB8BF81F00041BDE8F88F0000F9
:107E7000000010440000F07F182D4454FB21F93F0E
:107E8000FB21F9BF0000DC3F0000203E0000F33F73
:107E90000000F03F0000E63F008003400000F83F94
:107EA0000000F0BF7E1600003C160000DA1500004E
:107EB000A21500002DE9F04D9446CCF1000423F00A
:107EC00000464CEA0404524F46EAD4749A46884667
:107ED00021F00042BC4206D8454240EA050442EA8D
:107EE000D474BC4204D9BDE8F04D6246FFF742BBF2
:107EF000AAF14055A5F17F6555EA0C040BD0022488
:107F000004EAAA74434DDFF810E144EAD87452EA57
:107F1000000B04D00CE0BDE8F04DFFF7BBBE002C19
:107F200014BF012CBDE8F08D022C30D0032C32D0D0
:107F300056EA0C0B0AD0BE4220D1BA4209D126F033
:107F4000804622F080423346114617E000291ADBB2
:107F500025E0DFF8C8B0FB44002C04BFDBE90001DA
:107F6000BDE8F08D012C02BFDBE9000181F000418A
:107F7000BDE8F08D022C0AD0032C0CD0BA4212D1ED
:107F8000B8F1000F0BDA23482549BDE8F08D2846EB
:107F90002449BDE8F08D28467146BDE8F08D1D48A6
:107FA0002149BDE8F08D921B12153C2AC4BF194827
:107FB0001D490EDCBAF1000FBEBF12F13C0F0020CC
:107FC000014606DB6246FEF7E9FF21F00041FFF7BC
:107FD00061FE002C08BFBDE8F08D012C04BF81F0CC
:107FE0000041BDE8F08D114A114B022C07D0FEF77D
:107FF0005DFF2A46BDE8F04D0A4BFEF757BFFEF77E
:1080000055FF2A46BDE8F04D064BFEF752BF000073
:108010000000F07F182D4454FB2109C036150000E4
:10802000FB21F9BFFB210940FB21F93F075C143319
:1080300026A6A13C2DE9F04106460F46FFF7CCF9F4
:10804000041E0D4618BF0120284320F00040C0F157
:108050007F6000F1E040C00F0ED0301C18BF01203F
:10806000384320F00040C0F17F6000F1E040C00FD5
:1080700004BF0120FFF79EFA20462946BDE8F081A3
:108080000000700000000024000000020003000057
:1080900000650054FFEF0000FA80000B128200011F
:1080A000030C30C30E8C8CE914D5400213710F8E73
:1080B0003883F8833000F883258EF8833000F88306
:1080C000FFFFFFFF0FFEA9D6240004001A8279A14A
:1080D0000000003CFFFF00000010000038836FA28A
:1080E000003E03304000000002CAE3093E80000069
:1080F00020000000000000004000000060000000C0
:10810000000C0000000C186E000006920A16C0DF7A
:10811000FFFF0256FD8CD377FFE1C496E0C5BEAAEF
:1081200000000000FFFF0B2B000016570000035952
:108130004000000000001DFA00026C1D000000005D
:108140003FFFDFEB003EB3B6000D227800002F3C6E
:1081500000000000001942B5000039A20000B3651C
:10816000D90E9FC91DCF4C343000000050000000D4
:108170003BB67AE80064000000C800000000000080
:10818000100000001000FA921000225E000D229FE5
:108190000001000000320000FF46000063D4000030
:1081A0001000000004D6000004CC000004CC000045
:1081B00000001072000000400000000000000000FD
:1081C0000006000200050007000000000064000037
:1081D0000000000000000005000500640020000011
:1081E000000000000000000000004000000003004C
:1081F00000000032F8980000FF650000830F0000C7
:10820000FF9BFC00000000000000000000000000D8
:10821000000000000000000000000000000000005E
:10822000000000000000000000000000000010003E
:1082300040000000000000060000B26A00020000DA
:108240000001FB830068000000D9FC007CF1FF8383
:108250000000000000650000006403E800640028DE
:10826000000000250000000016A000000000100023
:1082700000001000002F0000000001F400001000BA
:1082800000280000FFFF4581FFFFFA720000000098
:1082900000000000004400050005BAC6004778A2AF
:1082A00000000001000000000000060000000014B3
:1082B0000000254D002F706D000005AE000C02D0AF
:1082C00000000000000000000000000000000000AE
:1082D000001B000000000000000000000000000083
:1082E0000064000000080000000000000000000022
:1082F000000000000000000000000000000000007E
:10830000000000000000000000000000000000006D
:10831000000000000000000000000000000000005D
:10832000000000000000000000000000000000004D
:10833000000000000000000000000000000000003D
:10834000001B00000000000000000000000E000EF6
:1083500000000AC70004000000000032FFFFFF9C7D
:1083600000000B2B00000002000000010000006470
:10837000FFE5000000000000000000000000000019
:1083800000000001000000000001000000000000EB
:10839000000180000001800000018000002426D33D
:1083A0000000000000000000000600100096003CE5
:1083B00000000000000000000000000000000000BD
:1083C0000C0A4E68CDCF770950166759C619CE8270
:1083D000000000000000000000000000000000009D
:1083E000000000000000000017D784000300000018
:1083F0000000000000000000C7938F9D1E1B1C1989
:10840000000000000000000000000000000000006C
:10841000000000000000000002031885000040007A
:108420000000000300000003000000000000000046
:1084300040000000000000000000000000000000FC
:10844000000000000000000000000000000000002C
:10845000000000000000000000000000000000001C
:1084600000000000677DDF7E72902E554CF6E68896
:1084700000000000000000000000000000000000FC
:10848000D8DCB4B8B0D8B9ABF3F8FAB3B7BB8E9EAA
:10849000AEF132F51BF1B4B8B08097F1A9DFDFDFA0
:1084A000AADFDFDFF2AAC5CDC7A90CC92C97F1A9B5
:1084B00089264666B28999A92D557DB0B08AA896BD
:1084C000365676F1BAA3B4B280C0B8A89711B28379
:1084D00098BAA3F0240844106418B2B9B49883F190
:1084E000A329557DBAB5B1A38393F0002850F5B206
:1084F000B6AA839328547CF1B9A3829361BAA2DA15
:10850000DEDFDB819AB9AEF5606870F1DABAA2DF1E
:10851000D9BAA2FAB9A38292DB31BAA2D9BAA2F827
:10852000DF85A4D0C1BBAD83C2C5C7B8A2DFDFDF82
:10853000BAA0DFDFDFD8D8F1B8AAB38DB4980D3573
:108540005DB2B6BAAF8C96198F9FA70E161EB49A5D
:10855000B8AA872C547CBAA4B08AB691325676B2A7
:108560008494A4C808CDD8B8B4B0F19982A82D5588
:108570007D98A80E161EA22C547C92A4F02C507844
:10858000F184A898C4CDFCD80DDBA8FC2DF3D9BA92
:10859000A6F8DABAA6DED8BAB2B68696A6D0F3C8DE
:1085A00041DAA6C8F8D8B0B4B882A892F52C54889D
:1085B00098F135D9F418D8F1A2D0F8F9A884D9C720
:1085C000DFF8F883C5DADF69DF83C1D8F40114F17D
:1085D000A8824EA884F311D182F5D992289788F108
:1085E00009F41C1CD884A8F3C0F9D1D99782F129C9
:1085F000F40DD8F3F9F9D1D982F4C203D8DEDF1A29
:10860000D8F1A2FAF9A88498D9C7DFF8F8F883C797
:10861000DADF69DFF883C3D8F40114F198A8822E59
:10862000A884F311D182F5D992509788F109F41CEE
:10863000D884A8F3C0F8F9D1D99782F149F40DD8BC
:10864000F3F9F9D1D982F4C403D8DEDFD8F1AD88CB
:1086500098CCA809F9D98292A8F57CF1883ACF94F0
:108660004A6E98DB6931DAADF2DEF9D88795A8F267
:1086700021D1DAA5F9F417D9F1AE8ED0C0C3AE82FC
:10868000C684C3A88595C8A588F2C0F1F4010EF18F
:108690008E9EA8C63E56F554F18872F40115F198E5
:1086A00045856EF58E9E0488F142985A8E9E068806
:1086B00069F4011CF1981E1108D0F504F11E97020F
:1086C00002983625DBF9D985A5F3C1DA85A5F3DF54
:1086D000D88595A8F309DAA5FAD88292A8F578F199
:1086E000881A849F26889821DAF41DF3D8879F3949
:1086F000D1AFD9DFDFFBF9F40CF3D8FAD0F8DAF90F
:10870000F9D0DFD9F9D8F40BD8F3879F39D1AFD995
:10871000DFDFF41DF3D8FAFCA869F9F9AFD0DADE8F
:10872000FAD9F88F9FA8F1CCF398DB45D9AFDFD009
:10873000F8D8F18F9FA8CAF38809DAAF8FCBF8D8A1
:10874000F2AD978D0CD9A5DFF9BAA6F3FAF412F2BF
:10875000D8950DD1D9BAA6F3FADAA5F2C1BAA6F323
:10876000DFD8F1BAB2B68696A6D0CAF349DAA6CB5C
:10877000F8D8B0B4B8D8AD84F2C0DFF18FCBC3A8BD
:10878000B2B68696C8C1CBC3F3B0B48898A821DB33
:10879000718D9D71859521D9ADF2FAD88597A8285C
:1087A000D9F408D8F28D29DAF405D9F285A4C2F2F9
:1087B000D8A88D9401D1D9F411F2D88721D8F40A20
:1087C000D8F28498A8C801D1D9F411D8F3A4C8BBB1
:1087D000AFD0F2DEF8F8F8F8F8F8F8F8D8F1B8F613
:1087E000B5B9B08A95A3DE3CA3D9F8D85CA3D9F873
:1087F000D87CA3D9F8D8F8F9D1A5D9DFDAFAD8B15D
:108800008530F7D9DED8F830ADDADED8F2B48C99FD
:10881000A32D557DA083DFDFDFB591A0F629D9FB1D
:10882000D8A0FC29D9FAD8A0D051D9F8D8FC51D970
:10883000F9D879D9FBD8A0D0FC79D9FAD8A1F9F91F
:10884000F9F9F9A0DADFDFDFD8A1F8F8F8F8F8AC29
:10885000DEF8ADDE8393AC2C547CF1A8DFDFDFF6CD
:108860009D2CDAA0DFD9FADB2DF8D8A850DAA0D0F9
:10887000DED9D0F8F8F8DB55F8D8A878DAA0D0DF40
:10888000D9D0FAF8F8F8F8DB7DF8D89CA88CF53048
:10889000DB38D9D0DEDFA0D0DEDFD8A848DB58D95E
:1088A000DFD0DEA0DFD0DED8A868DB70D9DFDFA0A4
:1088B000DFDFD8F1A888902C547C98A8D05C38D100
:1088C000DAF2AE8CDFF9D8B087A8C1C1B188A8C6EA
:1088D000F9F9DA36D8A8F9DA36D8A8F9DA36D8A804
:1088E000F9DA36D8A8F9DA36D8F78D9DADF818DA66
:1088F000F2AEDFD8F7ADFA30D9A4DEF9D8F2AEDEA9
:10890000FAF983A7D9C3C5C7F1889BA77AADF7DE6B
:10891000DFA4F8849408A797F300AEF29819A4880E
:10892000C6A39488F632DFF28393DB09D9F2AADF7B
:10893000D8D8AEF8F9D1DAF3A4DEA7F1889B7AD8BB
:10894000F38494AE19F9DAAAF1DFD8A881C0C3C5BF
:10895000C7A39283F628ADDED9F8D8A350ADD9F8D5
:10896000D8A378ADD9F8D8F8F9D1A1DADEC3C5C754
:10897000D8A18194F818F2B089ACC3C5C7F1D8B8B2
:10898000B4B09786A8319B069907AB9728889BF0CF
:108990000C201440B0B4B8F0A88A9A285078B79B3D
:1089A000A8295179247059446938644831F1BBAB26
:1089B00088002C547CF0B38BB8A804285078F1B010
:1089C00088B49726A85998BBABB38B02264666B0ED
:1089D000B8F08A9CA82951798B2951798A24705939
:1089E0008B2058718A4469388B3940688A644831D1
:1089F0008B30496088F1AC002C547CF08CA80428A2
:108A00005078F1889726A85998AC8C02264666F0D3
:108A1000899CA8295179247059446938644831A93E
:108A20008809205970AB11384069A8193148608C09
:108A3000A83C415C207C00F187981986A86E767E60
:108A4000A999882D557DD8B1B5B9A3DFDFDFAED0A8
:108A5000DFAAD0DEF2ABF8F9D9B087C4AAF1DFDF24
:108A6000BBAFDFDFB9D8B1F1A3978E60DFB084F27E
:108A7000C8F8F9D9DED89385F14AB183A308B58344
:108A80009A0810B79F10D8F1B0BAAEB08AC2B2B689
:108A90008E9EF1FBD9F41DD8F9D90CF1D8F8F8ADB8
:108AA00061D9AEFBD8F40CF1D8F8F8AD19D9AEFB0A
:108AB000DFD8F416F1D8F8AD8D61D9F4F4ACF59C9B
:108AC0009C8DDF2BBAB6AEFAF8F40BD8F1AED0F825
:108AD000AD51DAAEFAF8F1D8B9B1B6A3839C08B9B2
:108AE000B1839AB5AAC0FD3083B79F10B58B93F2BE
:108AF0000202D1ABDADED8F1B080BAABC0C3B28427
:108B0000C1C3D8B1B9F38BA391B609B4D9ABDEB068
:108B1000879CB9A3DDF1B38B8B8B8B8BB087A3A321
:108B2000A3A3B28BB69BF2A3A3A3A3A3A3A3A3A3C4
:108B3000A3F1B087B59AA3F39BA3A3DCBAACDFB9CA
:108B4000A3A3A3A3A3A3A3A3A3A3A3A3A3A3A3A3F5
:108B5000D8D8D8BBB3B7F1AAF9DAFFD9809AAA2836
:108B6000B48098A720B79787A86688F07951F190CC
:108B70002C870CA781976293F0717160859401290D
:108B8000517990A5F1284C6C870C95188578A383B2
:108B900090284C6C886CD8F3A28200F210A892192D
:108BA00080A2F2D926D8F188A84DD948D896A839FC
:108BB00080D93CD89580A839A68698D92CDA87A781
:108BC0002CD8A8899519A980D938D8A88939A9801D
:108BD000DA3CD8A82EA83990D90CD8A8953198D9C4
:108BE0000CD8A809D9FFD801DAFFD89539A9DA2617
:108BF000FFD890A80D8999A810809821DA2ED889DD
:108C000099A83180DA2ED8A886963180DA2ED8A895
:108C1000873180DA2ED8A88292F34180F1D92ED8FC
:108C2000A882F31980F1D92ED882ACF3C0A2802299
:108C3000F1A62EA72EA92298A829DAACDEFFD8A289
:108C4000F22AF1A92E8292A8F23180A696F1D900DB
:108C5000AC8C9C0C30ACDED0DEFFD88C9CACD01041
:108C6000ACDE8092A2F24C82A8F1CAF235F196886D
:108C7000A6D900D8F1FF000075191A0C6A231B1C35
:108C80001F207274433B4138393A6B6C376F0624AE
:108C90006D6E70006800000476005401F7FD00015D
:108CA00083000000000800000001001832000500E9
:108CB000000020410000D242295C0F3E9A99993E63
:108CC0003333733F295C0F3E0000000000000000BA
:108CD000000000000000000000000018181818181C
:108CE0001818000018180000001236244800000070
:108CF0000000000000000000000000242424FE48C2
:108D00004848FE484848000000001038545450308D
:108D10001C1414545438101000000044A4A8A8A82F
:108D2000541A2A2A2A4400000000003048484850BB
:108D30006EA494888976000000606020C000000066
:108D400000000000000000000002040808101010DD
:108D50001010100808040200004020101008080835
:108D60000808081010204000000000001010D6383D
:108D700038D6101000000000000000001010101085
:108D8000FE101010100000000000000000000000A5
:108D900000000000606020C0000000000000000033
:108DA0007F00000000000000000000000000000044
:108DB00000000000606000000000010202040408DE
:108DC00008101020204040000000001824424242B9
:108DD000424242422418000000000010701010109F
:108DE00010101010107C00000000003C42424204B1
:108DF00004081020427E00000000003C424204189B
:108E00000402024244380000000000040C14242430
:108E100044447E04041E00000000007E4040405890
:108E200064020242443800000000001C2440405804
:108E300064424242241800000000007E42440808B8
:108E400010101010101000000000003C424242249C
:108E500018244242423C00000000001824424242D2
:108E6000261A020224380000000000000000181832
:108E70000000000018180000000000000000181892
:108E8000000000181808300000000002040810203C
:108E90004020100804020000000000000000FE0056
:108EA0000000FE0000000000000000402010080448
:108EB00002040810204000000000003C4242620210
:108EC000040808001818000000000038445AAAAA34
:108ED000AAAAB44244380000000000101018282844
:108EE000243C444242E70000000000F84444447837
:108EF0004442424244F800000000003E424280806A
:108F00008080804244380000000000F84442424221
:108F10004242424244F80000000000FE42484878C5
:108F20004848404242FE0000000000FE42484878A7
:108F30004848404040E000000000003C444480803D
:108F4000808E844444380000000000E742424242E0
:108F50007E42424242E700000000007C10101010E8
:108F600010101010107C00000000003E08080808D7
:108F700008080808080888F0000000EE444850700F
:108F80005048484444EE0000000000E040404040AB
:108F90004040404042FE0000000000EE6C6C6C6CF3
:108FA0005454545454D60000000000C76262525218
:108FB0004A4A4A4646E20000000000384482828263
:108FC0008282828244380000000000FC4242424219
:108FD0007C40404040E00000000000384482828233
:108FE0008282B2CA4C380600000000F8444444783B
:108FF0004848444442E300000000003E4242402012
:1090000018040242427C0000000000FE9210101082
:109010001010101010380000000000E742424242D9
:1090200042424242423C0000000000E742424424E7
:109030002428281810100000000000D69292929266
:10904000AAAA6C4444440000000000E7422424180B
:109050001818242442E70000000000EE44442828A9
:1090600010101010103800000000007E8404080862
:109070001020204242FC0000001E101010101010A2
:109080001010101010101E00000040402020101082
:109090000804040202020101007808080808080810
:1090A00008080808080878000008142200000000DA
:1090B00000000000000000000000000000000000B0
:1090C00000000000000000FF006010000000000031
:1090D0000000000000000000000000000000003C54
:1090E000421E2242423F0000000000C04040405863
:1090F0006442424264580000000000000000001C6E
:1091000022404040221C0000000000060202021E15
:1091100022424242261B0000000000000000003CEA
:10912000427E4040423C00000000000F1110107EC3
:1091300010101010107C0000000000000000003E25
:10914000444438403C42423C000000C04040405C47
:109150006242424242E700000000003030000070EE
:1091600010101010107C00000000000C0C00001CFF
:109170000404040404044478000000C04040404E4D
:109180004850684844EE00000000007010101010B5
:1091900010101010107C000000000000000000F60D
:1091A0004949494949ED000000000000000000DC89
:1091B0006242424242E70000000000000000003C22
:1091C00042424242423C000000000000000000D841
:1091D00064424242645840E0000000000000001E6B
:1091E00022424242261A020700000000000000EE60
:1091F0003220202020F80000000000000000003E87
:1092000042403C02427C0000000000000010107C44
:1092100010101010100C000000000000000000C62C
:1092200042424242463B000000000000000000E7CE
:10923000422424281010000000000000000000D785
:109240009292AAAA44440000000000000000006EB0
:10925000241818182476000000000000000000E721
:1092600042242428181010E0000000000000007EB6
:1092700044081010227E00000003040404040408C3
:109280000404040404040300080808080808080883
:1092900008080808080808080060101010101008D6
:1092A000101010101010600000000000000020528C
:1092B0000C00000000000000D7D300007FF8001071
:1092C0000020004001800100FFFE010001000100BC
:1092D00001000100010005000200D7D300000000DA
:1092E00000000000200FFFF000006000008000037D
:1092F0000000140000180000180000180C7FFFFE8A
:1093000000180000180000180000180000180000E5
:10931000180000180000180000180000F8000030C5
:1093200000000000D7D30000000000000000000093
:109330000000000000C003FFFFE0000001E00000AB
:1093400003000000060000001800000030000001CB
:10935000C0000001C0000001800000018010000179
:1093600080383FFFFFFC0001800000018000000109
:1093700080000001800000018000000180000001E9
:1093800080000001800000018000000180000001D9
:10939000800000018000003F800000070000000204
:1093A0000000000000000000555555555555C53FBB
:1093B0007D6FEB0312D6D4BF5544880E55C1C93F0B
:1093C0003B8F68B52882A4BF88B20175E0EF493FA2
:1093D00009F7FD0DE13D023F4B2D8A1C273A03C0E2
:1093E000C88A599CE52A004059018D1B6C06E6BFCE
:1093F00082922EB1C5B8B33F4FBB610567ACDD3F6C
:10940000182D4454FB21E93F9BF681D20B73EF3FAB
:10941000182D4454FB21F93FE2652F227F2B7A3C23
:10942000075C143326A6813CBDCBF07A8807703CDC
:10943000075C143326A6913CC4EB98999999C9BF4F
:10944000711623FEC671BCBF6D9A74AFF2B0B3BF84
:109450009AFDDE522DDEADBF2F6C6A2C44B4A2BF44
:109460000D5555555555D53FFF8300922449C23FB0
:109470006E204CC5CD45B73F513DD0A0660DB13FE4
:10948000EB0D76244B7BA93F11DA22E33AAD903FF6
:10949000000000000000000050726F6475637420CB
:1094A00049442072656164206173203020696E64D4
:1094B00069636174657320646576696365206973A7
:1094C0002065697468657220696E636F6D70617480
:1094D00069626C65206F7220616E204D505533308B
:1094E00035302E0A0000000008950008000000201A
:1094F000C800000094750008D0950008C80000203E
:1095000048080000A47500080000000000000000EA
:10951000000000000000000000000000000000004B
:10952000000000000000000000000000000000003B
:10953000000000000000000000000000000000002B
:109540000000000000A24A0400000000000000002B
:109550000102030406070809788C0008948C0008AF
:1095600000000000000000000000000000000000FB
:1095700000000000000000000000000000000000EB
:10958000A08C0008010000000100000001000000A4
:1095900000000000000000000000000000000000CB
:1095A00000000000000000000000000000000000BB
:1095B00000000000000000000000000001020304A1
:1095C000010203040607080902040608000000005F
:0400000508000131BD
:00000001FF
